{
	"contracts/Gradebook.sol": {
		"Gradebook": {
			"abi": [
				{
					"inputs": [],
					"stateMutability": "nonpayable",
					"type": "constructor"
				},
				{
					"anonymous": false,
					"inputs": [
						{
							"indexed": true,
							"internalType": "uint256",
							"name": "_id",
							"type": "uint256"
						}
					],
					"name": "assignmentCreationEvent",
					"type": "event"
				},
				{
					"anonymous": false,
					"inputs": [
						{
							"indexed": true,
							"internalType": "uint256",
							"name": "_id",
							"type": "uint256"
						}
					],
					"name": "gradeEntryEvent",
					"type": "event"
				},
				{
					"inputs": [
						{
							"internalType": "string",
							"name": "name",
							"type": "string"
						},
						{
							"internalType": "uint256",
							"name": "max_score",
							"type": "uint256"
						}
					],
					"name": "addAssignment",
					"outputs": [
						{
							"internalType": "uint256",
							"name": "",
							"type": "uint256"
						}
					],
					"stateMutability": "nonpayable",
					"type": "function"
				},
				{
					"inputs": [
						{
							"internalType": "string",
							"name": "student",
							"type": "string"
						},
						{
							"internalType": "uint256",
							"name": "assignment",
							"type": "uint256"
						},
						{
							"internalType": "uint256",
							"name": "score",
							"type": "uint256"
						}
					],
					"name": "addGrade",
					"outputs": [],
					"stateMutability": "nonpayable",
					"type": "function"
				},
				{
					"inputs": [
						{
							"internalType": "uint256",
							"name": "",
							"type": "uint256"
						}
					],
					"name": "assignment_names",
					"outputs": [
						{
							"internalType": "string",
							"name": "",
							"type": "string"
						}
					],
					"stateMutability": "view",
					"type": "function"
				},
				{
					"inputs": [
						{
							"internalType": "address",
							"name": "ta",
							"type": "address"
						}
					],
					"name": "designateTA",
					"outputs": [],
					"stateMutability": "nonpayable",
					"type": "function"
				},
				{
					"inputs": [
						{
							"internalType": "string",
							"name": "student",
							"type": "string"
						}
					],
					"name": "getAverage",
					"outputs": [
						{
							"internalType": "uint256",
							"name": "",
							"type": "uint256"
						}
					],
					"stateMutability": "view",
					"type": "function"
				},
				{
					"inputs": [],
					"name": "instructor",
					"outputs": [
						{
							"internalType": "address",
							"name": "",
							"type": "address"
						}
					],
					"stateMutability": "view",
					"type": "function"
				},
				{
					"inputs": [
						{
							"internalType": "uint256",
							"name": "",
							"type": "uint256"
						}
					],
					"name": "max_scores",
					"outputs": [
						{
							"internalType": "uint256",
							"name": "",
							"type": "uint256"
						}
					],
					"stateMutability": "view",
					"type": "function"
				},
				{
					"inputs": [],
					"name": "num_assignments",
					"outputs": [
						{
							"internalType": "uint256",
							"name": "",
							"type": "uint256"
						}
					],
					"stateMutability": "view",
					"type": "function"
				},
				{
					"inputs": [],
					"name": "requestTAAccess",
					"outputs": [],
					"stateMutability": "nonpayable",
					"type": "function"
				},
				{
					"inputs": [
						{
							"internalType": "uint256",
							"name": "",
							"type": "uint256"
						},
						{
							"internalType": "string",
							"name": "",
							"type": "string"
						}
					],
					"name": "scores",
					"outputs": [
						{
							"internalType": "uint256",
							"name": "",
							"type": "uint256"
						}
					],
					"stateMutability": "view",
					"type": "function"
				},
				{
					"inputs": [
						{
							"internalType": "bytes4",
							"name": "interfaceId",
							"type": "bytes4"
						}
					],
					"name": "supportsInterface",
					"outputs": [
						{
							"internalType": "bool",
							"name": "",
							"type": "bool"
						}
					],
					"stateMutability": "pure",
					"type": "function"
				},
				{
					"inputs": [
						{
							"internalType": "address",
							"name": "",
							"type": "address"
						}
					],
					"name": "tas",
					"outputs": [
						{
							"internalType": "bool",
							"name": "",
							"type": "bool"
						}
					],
					"stateMutability": "view",
					"type": "function"
				}
			],
			"devdoc": {
				"kind": "dev",
				"methods": {},
				"version": 1
			},
			"evm": {
				"assembly": "    /* \"contracts/Gradebook.sol\":100:2494  contract Gradebook is IGradebook {... */\n  mstore(0x40, 0x80)\n    /* \"contracts/Gradebook.sol\":464:518  constructor() {... */\n  callvalue\n  dup1\n  iszero\n  tag_1\n  jumpi\n  0x00\n  dup1\n  revert\ntag_1:\n  pop\n    /* \"contracts/Gradebook.sol\":501:511  msg.sender */\n  caller\n    /* \"contracts/Gradebook.sol\":488:498  instructor */\n  0x04\n  0x00\n    /* \"contracts/Gradebook.sol\":488:511  instructor = msg.sender */\n  0x0100\n  exp\n  dup2\n  sload\n  dup2\n  0xffffffffffffffffffffffffffffffffffffffff\n  mul\n  not\n  and\n  swap1\n  dup4\n  0xffffffffffffffffffffffffffffffffffffffff\n  and\n  mul\n  or\n  swap1\n  sstore\n  pop\n    /* \"contracts/Gradebook.sol\":100:2494  contract Gradebook is IGradebook {... */\n  dataSize(sub_0)\n  dup1\n  dataOffset(sub_0)\n  0x00\n  codecopy\n  0x00\n  return\nstop\n\nsub_0: assembly {\n        /* \"contracts/Gradebook.sol\":100:2494  contract Gradebook is IGradebook {... */\n      mstore(0x40, 0x80)\n      callvalue\n      dup1\n      iszero\n      tag_1\n      jumpi\n      0x00\n      dup1\n      revert\n    tag_1:\n      pop\n      jumpi(tag_2, lt(calldatasize, 0x04))\n      shr(0xe0, calldataload(0x00))\n      dup1\n      0x77ca2947\n      gt\n      tag_15\n      jumpi\n      dup1\n      0x77ca2947\n      eq\n      tag_9\n      jumpi\n      dup1\n      0x7fc29673\n      eq\n      tag_10\n      jumpi\n      dup1\n      0x9cfeb679\n      eq\n      tag_11\n      jumpi\n      dup1\n      0xa30254e7\n      eq\n      tag_12\n      jumpi\n      dup1\n      0xc7a9f77b\n      eq\n      tag_13\n      jumpi\n      dup1\n      0xdfd68b91\n      eq\n      tag_14\n      jumpi\n      jump(tag_2)\n    tag_15:\n      dup1\n      0x01ffc9a7\n      eq\n      tag_3\n      jumpi\n      dup1\n      0x077f3b02\n      eq\n      tag_4\n      jumpi\n      dup1\n      0x53acf883\n      eq\n      tag_5\n      jumpi\n      dup1\n      0x65dd2f69\n      eq\n      tag_6\n      jumpi\n      dup1\n      0x71ae413d\n      eq\n      tag_7\n      jumpi\n      dup1\n      0x7241d75f\n      eq\n      tag_8\n      jumpi\n    tag_2:\n      0x00\n      dup1\n      revert\n        /* \"contracts/Gradebook.sol\":2315:2487  function supportsInterface(bytes4 interfaceId) external pure returns (bool) {... */\n    tag_3:\n      tag_16\n      0x04\n      dup1\n      calldatasize\n      sub\n      dup2\n      add\n      swap1\n      tag_17\n      swap2\n      swap1\n      tag_18\n      jump\t// in\n    tag_17:\n      tag_19\n      jump\t// in\n    tag_16:\n      mload(0x40)\n      tag_20\n      swap2\n      swap1\n      tag_21\n      jump\t// in\n    tag_20:\n      mload(0x40)\n      dup1\n      swap2\n      sub\n      swap1\n      return\n        /* \"contracts/Gradebook.sol\":732:1203  function addAssignment(string memory name, uint max_score) external override returns (uint) {... */\n    tag_4:\n      tag_22\n      0x04\n      dup1\n      calldatasize\n      sub\n      dup2\n      add\n      swap1\n      tag_23\n      swap2\n      swap1\n      tag_24\n      jump\t// in\n    tag_23:\n      tag_25\n      jump\t// in\n    tag_22:\n      mload(0x40)\n      tag_26\n      swap2\n      swap1\n      tag_27\n      jump\t// in\n    tag_26:\n      mload(0x40)\n      dup1\n      swap2\n      sub\n      swap1\n      return\n        /* \"contracts/Gradebook.sol\":191:248  mapping (uint => string) public override assignment_names */\n    tag_5:\n      tag_28\n      0x04\n      dup1\n      calldatasize\n      sub\n      dup2\n      add\n      swap1\n      tag_29\n      swap2\n      swap1\n      tag_30\n      jump\t// in\n    tag_29:\n      tag_31\n      jump\t// in\n    tag_28:\n      mload(0x40)\n      tag_32\n      swap2\n      swap1\n      tag_33\n      jump\t// in\n    tag_32:\n      mload(0x40)\n      dup1\n      swap2\n      sub\n      swap1\n      return\n        /* \"contracts/Gradebook.sol\":1683:2133  function getAverage(string memory student) external override view returns (uint) {... */\n    tag_6:\n      tag_34\n      0x04\n      dup1\n      calldatasize\n      sub\n      dup2\n      add\n      swap1\n      tag_35\n      swap2\n      swap1\n      tag_36\n      jump\t// in\n    tag_35:\n      tag_37\n      jump\t// in\n    tag_34:\n      mload(0x40)\n      tag_38\n      swap2\n      swap1\n      tag_27\n      jump\t// in\n    tag_38:\n      mload(0x40)\n      dup1\n      swap2\n      sub\n      swap1\n      return\n        /* \"contracts/Gradebook.sol\":381:415  address public override instructor */\n    tag_7:\n      tag_39\n      tag_40\n      jump\t// in\n    tag_39:\n      mload(0x40)\n      tag_41\n      swap2\n      swap1\n      tag_42\n      jump\t// in\n    tag_41:\n      mload(0x40)\n      dup1\n      swap2\n      sub\n      swap1\n      return\n        /* \"contracts/Gradebook.sol\":1209:1677  function addGrade(string memory student, uint assignment, uint score) external override {... */\n    tag_8:\n      tag_43\n      0x04\n      dup1\n      calldatasize\n      sub\n      dup2\n      add\n      swap1\n      tag_44\n      swap2\n      swap1\n      tag_45\n      jump\t// in\n    tag_44:\n      tag_46\n      jump\t// in\n    tag_43:\n      stop\n        /* \"contracts/Gradebook.sol\":309:374  mapping (uint => mapping (string => uint)) public override scores */\n    tag_9:\n      tag_47\n      0x04\n      dup1\n      calldatasize\n      sub\n      dup2\n      add\n      swap1\n      tag_48\n      swap2\n      swap1\n      tag_49\n      jump\t// in\n    tag_48:\n      tag_50\n      jump\t// in\n    tag_47:\n      mload(0x40)\n      tag_51\n      swap2\n      swap1\n      tag_27\n      jump\t// in\n    tag_51:\n      mload(0x40)\n      dup1\n      swap2\n      sub\n      swap1\n      return\n        /* \"contracts/Gradebook.sol\":2139:2309  function requestTAAccess() external override {... */\n    tag_10:\n      tag_52\n      tag_53\n      jump\t// in\n    tag_52:\n      stop\n        /* \"contracts/Gradebook.sol\":524:726  function designateTA(address ta) external override {... */\n    tag_11:\n      tag_54\n      0x04\n      dup1\n      calldatasize\n      sub\n      dup2\n      add\n      swap1\n      tag_55\n      swap2\n      swap1\n      tag_56\n      jump\t// in\n    tag_55:\n      tag_57\n      jump\t// in\n    tag_54:\n      stop\n        /* \"contracts/Gradebook.sol\":140:185  mapping (address => bool) public override tas */\n    tag_12:\n      tag_58\n      0x04\n      dup1\n      calldatasize\n      sub\n      dup2\n      add\n      swap1\n      tag_59\n      swap2\n      swap1\n      tag_56\n      jump\t// in\n    tag_59:\n      tag_60\n      jump\t// in\n    tag_58:\n      mload(0x40)\n      tag_61\n      swap2\n      swap1\n      tag_21\n      jump\t// in\n    tag_61:\n      mload(0x40)\n      dup1\n      swap2\n      sub\n      swap1\n      return\n        /* \"contracts/Gradebook.sol\":421:457  uint public override num_assignments */\n    tag_13:\n      tag_62\n      tag_63\n      jump\t// in\n    tag_62:\n      mload(0x40)\n      tag_64\n      swap2\n      swap1\n      tag_27\n      jump\t// in\n    tag_64:\n      mload(0x40)\n      dup1\n      swap2\n      sub\n      swap1\n      return\n        /* \"contracts/Gradebook.sol\":254:303  mapping (uint => uint) public override max_scores */\n    tag_14:\n      tag_65\n      0x04\n      dup1\n      calldatasize\n      sub\n      dup2\n      add\n      swap1\n      tag_66\n      swap2\n      swap1\n      tag_30\n      jump\t// in\n    tag_66:\n      tag_67\n      jump\t// in\n    tag_65:\n      mload(0x40)\n      tag_68\n      swap2\n      swap1\n      tag_27\n      jump\t// in\n    tag_68:\n      mload(0x40)\n      dup1\n      swap2\n      sub\n      swap1\n      return\n        /* \"contracts/Gradebook.sol\":2315:2487  function supportsInterface(bytes4 interfaceId) external pure returns (bool) {... */\n    tag_19:\n        /* \"contracts/Gradebook.sol\":2385:2389  bool */\n      0x00\n        /* \"contracts/Gradebook.sol\":2423:2451  type(IGradebook).interfaceId */\n      0x1c95926d00000000000000000000000000000000000000000000000000000000\n        /* \"contracts/Gradebook.sol\":2408:2451  interfaceId == type(IGradebook).interfaceId */\n      not(0xffffffffffffffffffffffffffffffffffffffffffffffffffffffff)\n      and\n        /* \"contracts/Gradebook.sol\":2408:2419  interfaceId */\n      dup3\n        /* \"contracts/Gradebook.sol\":2408:2451  interfaceId == type(IGradebook).interfaceId */\n      not(0xffffffffffffffffffffffffffffffffffffffffffffffffffffffff)\n      and\n      eq\n        /* \"contracts/Gradebook.sol\":2408:2480  interfaceId == type(IGradebook).interfaceId || interfaceId == 0x01ffc9a7 */\n      dup1\n      tag_70\n      jumpi\n      pop\n        /* \"contracts/Gradebook.sol\":2470:2480  0x01ffc9a7 */\n      0x01ffc9a7\n        /* \"contracts/Gradebook.sol\":2455:2480  interfaceId == 0x01ffc9a7 */\n      0xe0\n      shl\n        /* \"contracts/Gradebook.sol\":2455:2466  interfaceId */\n      dup3\n        /* \"contracts/Gradebook.sol\":2455:2480  interfaceId == 0x01ffc9a7 */\n      not(0xffffffffffffffffffffffffffffffffffffffffffffffffffffffff)\n      and\n      eq\n        /* \"contracts/Gradebook.sol\":2408:2480  interfaceId == type(IGradebook).interfaceId || interfaceId == 0x01ffc9a7 */\n    tag_70:\n        /* \"contracts/Gradebook.sol\":2401:2480  return interfaceId == type(IGradebook).interfaceId || interfaceId == 0x01ffc9a7 */\n      swap1\n      pop\n        /* \"contracts/Gradebook.sol\":2315:2487  function supportsInterface(bytes4 interfaceId) external pure returns (bool) {... */\n      swap2\n      swap1\n      pop\n      jump\t// out\n        /* \"contracts/Gradebook.sol\":732:1203  function addAssignment(string memory name, uint max_score) external override returns (uint) {... */\n    tag_25:\n        /* \"contracts/Gradebook.sol\":818:822  uint */\n      0x00\n        /* \"contracts/Gradebook.sol\":856:866  instructor */\n      0x04\n      0x00\n      swap1\n      sload\n      swap1\n      0x0100\n      exp\n      swap1\n      div\n      0xffffffffffffffffffffffffffffffffffffffff\n      and\n        /* \"contracts/Gradebook.sol\":842:866  msg.sender == instructor */\n      0xffffffffffffffffffffffffffffffffffffffff\n      and\n        /* \"contracts/Gradebook.sol\":842:852  msg.sender */\n      caller\n        /* \"contracts/Gradebook.sol\":842:866  msg.sender == instructor */\n      0xffffffffffffffffffffffffffffffffffffffff\n      and\n      eq\n        /* \"contracts/Gradebook.sol\":842:893  msg.sender == instructor || tas[msg.sender] == true */\n      dup1\n      tag_72\n      jumpi\n      pop\n        /* \"contracts/Gradebook.sol\":889:893  true */\n      0x01\n        /* \"contracts/Gradebook.sol\":870:893  tas[msg.sender] == true */\n      iszero\n      iszero\n        /* \"contracts/Gradebook.sol\":870:873  tas */\n      0x00\n        /* \"contracts/Gradebook.sol\":870:885  tas[msg.sender] */\n      dup1\n        /* \"contracts/Gradebook.sol\":874:884  msg.sender */\n      caller\n        /* \"contracts/Gradebook.sol\":870:885  tas[msg.sender] */\n      0xffffffffffffffffffffffffffffffffffffffff\n      and\n      0xffffffffffffffffffffffffffffffffffffffff\n      and\n      dup2\n      mstore\n      0x20\n      add\n      swap1\n      dup2\n      mstore\n      0x20\n      add\n      0x00\n      keccak256\n      0x00\n      swap1\n      sload\n      swap1\n      0x0100\n      exp\n      swap1\n      div\n      0xff\n      and\n        /* \"contracts/Gradebook.sol\":870:893  tas[msg.sender] == true */\n      iszero\n      iszero\n      eq\n        /* \"contracts/Gradebook.sol\":842:893  msg.sender == instructor || tas[msg.sender] == true */\n    tag_72:\n        /* \"contracts/Gradebook.sol\":834:947  require(msg.sender == instructor || tas[msg.sender] == true, \"Only the instructor or a TA can add an assignment\") */\n      tag_73\n      jumpi\n      mload(0x40)\n      0x08c379a000000000000000000000000000000000000000000000000000000000\n      dup2\n      mstore\n      0x04\n      add\n      tag_74\n      swap1\n      tag_75\n      jump\t// in\n    tag_74:\n      mload(0x40)\n      dup1\n      swap2\n      sub\n      swap1\n      revert\n    tag_73:\n        /* \"contracts/Gradebook.sol\":977:978  0 */\n      0x00\n        /* \"contracts/Gradebook.sol\":965:974  max_score */\n      dup3\n        /* \"contracts/Gradebook.sol\":965:978  max_score > 0 */\n      gt\n        /* \"contracts/Gradebook.sol\":957:1015  require(max_score > 0, \"Max score must be greater than 0\") */\n      tag_76\n      jumpi\n      mload(0x40)\n      0x08c379a000000000000000000000000000000000000000000000000000000000\n      dup2\n      mstore\n      0x04\n      add\n      tag_77\n      swap1\n      tag_78\n      jump\t// in\n    tag_77:\n      mload(0x40)\n      dup1\n      swap2\n      sub\n      swap1\n      revert\n    tag_76:\n        /* \"contracts/Gradebook.sol\":1025:1040  num_assignments */\n      0x05\n      0x00\n        /* \"contracts/Gradebook.sol\":1025:1042  num_assignments++ */\n      dup2\n      sload\n      dup1\n      swap3\n      swap2\n      swap1\n      tag_79\n      swap1\n      tag_80\n      jump\t// in\n    tag_79:\n      swap2\n      swap1\n      pop\n      sstore\n      pop\n        /* \"contracts/Gradebook.sol\":1088:1092  name */\n      dup3\n        /* \"contracts/Gradebook.sol\":1052:1068  assignment_names */\n      0x01\n        /* \"contracts/Gradebook.sol\":1052:1085  assignment_names[num_assignments] */\n      0x00\n        /* \"contracts/Gradebook.sol\":1069:1084  num_assignments */\n      sload(0x05)\n        /* \"contracts/Gradebook.sol\":1052:1085  assignment_names[num_assignments] */\n      dup2\n      mstore\n      0x20\n      add\n      swap1\n      dup2\n      mstore\n      0x20\n      add\n      0x00\n      keccak256\n        /* \"contracts/Gradebook.sol\":1052:1092  assignment_names[num_assignments] = name */\n      swap1\n      dup2\n      tag_81\n      swap2\n      swap1\n      tag_82\n      jump\t// in\n    tag_81:\n      pop\n        /* \"contracts/Gradebook.sol\":1132:1141  max_score */\n      dup2\n        /* \"contracts/Gradebook.sol\":1102:1112  max_scores */\n      0x02\n        /* \"contracts/Gradebook.sol\":1102:1129  max_scores[num_assignments] */\n      0x00\n        /* \"contracts/Gradebook.sol\":1113:1128  num_assignments */\n      sload(0x05)\n        /* \"contracts/Gradebook.sol\":1102:1129  max_scores[num_assignments] */\n      dup2\n      mstore\n      0x20\n      add\n      swap1\n      dup2\n      mstore\n      0x20\n      add\n      0x00\n      keccak256\n        /* \"contracts/Gradebook.sol\":1102:1141  max_scores[num_assignments] = max_score */\n      dup2\n      swap1\n      sstore\n      pop\n        /* \"contracts/Gradebook.sol\":1180:1195  num_assignments */\n      sload(0x05)\n        /* \"contracts/Gradebook.sol\":1156:1196  assignmentCreationEvent(num_assignments) */\n      0x1e5500ede7ec81cd4d6537a1a618f3424510f89d03c2252ee7c80e60a1278b67\n      mload(0x40)\n      mload(0x40)\n      dup1\n      swap2\n      sub\n      swap1\n      log2\n        /* \"contracts/Gradebook.sol\":732:1203  function addAssignment(string memory name, uint max_score) external override returns (uint) {... */\n      swap3\n      swap2\n      pop\n      pop\n      jump\t// out\n        /* \"contracts/Gradebook.sol\":191:248  mapping (uint => string) public override assignment_names */\n    tag_31:\n      mstore(0x20, 0x01)\n      dup1\n      0x00\n      mstore\n      keccak256(0x00, 0x40)\n      0x00\n      swap2\n      pop\n      swap1\n      pop\n      dup1\n      sload\n      tag_83\n      swap1\n      tag_84\n      jump\t// in\n    tag_83:\n      dup1\n      0x1f\n      add\n      0x20\n      dup1\n      swap2\n      div\n      mul\n      0x20\n      add\n      mload(0x40)\n      swap1\n      dup2\n      add\n      0x40\n      mstore\n      dup1\n      swap3\n      swap2\n      swap1\n      dup2\n      dup2\n      mstore\n      0x20\n      add\n      dup3\n      dup1\n      sload\n      tag_85\n      swap1\n      tag_84\n      jump\t// in\n    tag_85:\n      dup1\n      iszero\n      tag_86\n      jumpi\n      dup1\n      0x1f\n      lt\n      tag_87\n      jumpi\n      0x0100\n      dup1\n      dup4\n      sload\n      div\n      mul\n      dup4\n      mstore\n      swap2\n      0x20\n      add\n      swap2\n      jump(tag_86)\n    tag_87:\n      dup3\n      add\n      swap2\n      swap1\n      0x00\n      mstore\n      keccak256(0x00, 0x20)\n      swap1\n    tag_88:\n      dup2\n      sload\n      dup2\n      mstore\n      swap1\n      0x01\n      add\n      swap1\n      0x20\n      add\n      dup1\n      dup4\n      gt\n      tag_88\n      jumpi\n      dup3\n      swap1\n      sub\n      0x1f\n      and\n      dup3\n      add\n      swap2\n    tag_86:\n      pop\n      pop\n      pop\n      pop\n      pop\n      dup2\n      jump\t// out\n        /* \"contracts/Gradebook.sol\":1683:2133  function getAverage(string memory student) external override view returns (uint) {... */\n    tag_37:\n        /* \"contracts/Gradebook.sol\":1758:1762  uint */\n      0x00\n        /* \"contracts/Gradebook.sol\":1796:1806  instructor */\n      0x04\n      0x00\n      swap1\n      sload\n      swap1\n      0x0100\n      exp\n      swap1\n      div\n      0xffffffffffffffffffffffffffffffffffffffff\n      and\n        /* \"contracts/Gradebook.sol\":1782:1806  msg.sender == instructor */\n      0xffffffffffffffffffffffffffffffffffffffff\n      and\n        /* \"contracts/Gradebook.sol\":1782:1792  msg.sender */\n      caller\n        /* \"contracts/Gradebook.sol\":1782:1806  msg.sender == instructor */\n      0xffffffffffffffffffffffffffffffffffffffff\n      and\n      eq\n        /* \"contracts/Gradebook.sol\":1782:1833  msg.sender == instructor || tas[msg.sender] == true */\n      dup1\n      tag_90\n      jumpi\n      pop\n        /* \"contracts/Gradebook.sol\":1829:1833  true */\n      0x01\n        /* \"contracts/Gradebook.sol\":1810:1833  tas[msg.sender] == true */\n      iszero\n      iszero\n        /* \"contracts/Gradebook.sol\":1810:1813  tas */\n      0x00\n        /* \"contracts/Gradebook.sol\":1810:1825  tas[msg.sender] */\n      dup1\n        /* \"contracts/Gradebook.sol\":1814:1824  msg.sender */\n      caller\n        /* \"contracts/Gradebook.sol\":1810:1825  tas[msg.sender] */\n      0xffffffffffffffffffffffffffffffffffffffff\n      and\n      0xffffffffffffffffffffffffffffffffffffffff\n      and\n      dup2\n      mstore\n      0x20\n      add\n      swap1\n      dup2\n      mstore\n      0x20\n      add\n      0x00\n      keccak256\n      0x00\n      swap1\n      sload\n      swap1\n      0x0100\n      exp\n      swap1\n      div\n      0xff\n      and\n        /* \"contracts/Gradebook.sol\":1810:1833  tas[msg.sender] == true */\n      iszero\n      iszero\n      eq\n        /* \"contracts/Gradebook.sol\":1782:1833  msg.sender == instructor || tas[msg.sender] == true */\n    tag_90:\n        /* \"contracts/Gradebook.sol\":1774:1885  require(msg.sender == instructor || tas[msg.sender] == true, \"Only the instructor or a TA can get the average\") */\n      tag_91\n      jumpi\n      mload(0x40)\n      0x08c379a000000000000000000000000000000000000000000000000000000000\n      dup2\n      mstore\n      0x04\n      add\n      tag_92\n      swap1\n      tag_93\n      jump\t// in\n    tag_92:\n      mload(0x40)\n      dup1\n      swap2\n      sub\n      swap1\n      revert\n    tag_91:\n        /* \"contracts/Gradebook.sol\":1895:1905  uint total */\n      0x00\n        /* \"contracts/Gradebook.sol\":1919:1933  uint max_total */\n      dup1\n        /* \"contracts/Gradebook.sol\":1952:1958  uint i */\n      0x00\n        /* \"contracts/Gradebook.sol\":1961:1962  1 */\n      0x01\n        /* \"contracts/Gradebook.sol\":1952:1962  uint i = 1 */\n      swap1\n      pop\n        /* \"contracts/Gradebook.sol\":1947:2083  for (uint i = 1; i <= num_assignments; i++) {... */\n    tag_94:\n        /* \"contracts/Gradebook.sol\":1969:1984  num_assignments */\n      sload(0x05)\n        /* \"contracts/Gradebook.sol\":1964:1965  i */\n      dup2\n        /* \"contracts/Gradebook.sol\":1964:1984  i <= num_assignments */\n      gt\n        /* \"contracts/Gradebook.sol\":1947:2083  for (uint i = 1; i <= num_assignments; i++) {... */\n      tag_95\n      jumpi\n        /* \"contracts/Gradebook.sol\":2014:2020  scores */\n      0x03\n        /* \"contracts/Gradebook.sol\":2014:2023  scores[i] */\n      0x00\n        /* \"contracts/Gradebook.sol\":2021:2022  i */\n      dup3\n        /* \"contracts/Gradebook.sol\":2014:2023  scores[i] */\n      dup2\n      mstore\n      0x20\n      add\n      swap1\n      dup2\n      mstore\n      0x20\n      add\n      0x00\n      keccak256\n        /* \"contracts/Gradebook.sol\":2024:2031  student */\n      dup6\n        /* \"contracts/Gradebook.sol\":2014:2032  scores[i][student] */\n      mload(0x40)\n      tag_97\n      swap2\n      swap1\n      tag_98\n      jump\t// in\n    tag_97:\n      swap1\n      dup2\n      mstore\n      0x20\n      add\n      mload(0x40)\n      dup1\n      swap2\n      sub\n      swap1\n      keccak256\n      sload\n        /* \"contracts/Gradebook.sol\":2005:2032  total += scores[i][student] */\n      dup4\n      tag_99\n      swap2\n      swap1\n      tag_100\n      jump\t// in\n    tag_99:\n      swap3\n      pop\n        /* \"contracts/Gradebook.sol\":2059:2069  max_scores */\n      0x02\n        /* \"contracts/Gradebook.sol\":2059:2072  max_scores[i] */\n      0x00\n        /* \"contracts/Gradebook.sol\":2070:2071  i */\n      dup3\n        /* \"contracts/Gradebook.sol\":2059:2072  max_scores[i] */\n      dup2\n      mstore\n      0x20\n      add\n      swap1\n      dup2\n      mstore\n      0x20\n      add\n      0x00\n      keccak256\n      sload\n        /* \"contracts/Gradebook.sol\":2046:2072  max_total += max_scores[i] */\n      dup3\n      tag_101\n      swap2\n      swap1\n      tag_100\n      jump\t// in\n    tag_101:\n      swap2\n      pop\n        /* \"contracts/Gradebook.sol\":1986:1989  i++ */\n      dup1\n      dup1\n      tag_102\n      swap1\n      tag_80\n      jump\t// in\n    tag_102:\n      swap2\n      pop\n      pop\n        /* \"contracts/Gradebook.sol\":1947:2083  for (uint i = 1; i <= num_assignments; i++) {... */\n      jump(tag_94)\n    tag_95:\n      pop\n        /* \"contracts/Gradebook.sol\":2117:2126  max_total */\n      dup1\n        /* \"contracts/Gradebook.sol\":2108:2113  10000 */\n      0x2710\n        /* \"contracts/Gradebook.sol\":2100:2105  total */\n      dup4\n        /* \"contracts/Gradebook.sol\":2100:2113  total * 10000 */\n      tag_103\n      swap2\n      swap1\n      tag_104\n      jump\t// in\n    tag_103:\n        /* \"contracts/Gradebook.sol\":2099:2126  (total * 10000) / max_total */\n      tag_105\n      swap2\n      swap1\n      tag_106\n      jump\t// in\n    tag_105:\n        /* \"contracts/Gradebook.sol\":2092:2126  return (total * 10000) / max_total */\n      swap3\n      pop\n      pop\n      pop\n        /* \"contracts/Gradebook.sol\":1683:2133  function getAverage(string memory student) external override view returns (uint) {... */\n      swap2\n      swap1\n      pop\n      jump\t// out\n        /* \"contracts/Gradebook.sol\":381:415  address public override instructor */\n    tag_40:\n      0x04\n      0x00\n      swap1\n      sload\n      swap1\n      0x0100\n      exp\n      swap1\n      div\n      0xffffffffffffffffffffffffffffffffffffffff\n      and\n      dup2\n      jump\t// out\n        /* \"contracts/Gradebook.sol\":1209:1677  function addGrade(string memory student, uint assignment, uint score) external override {... */\n    tag_46:\n        /* \"contracts/Gradebook.sol\":1329:1339  instructor */\n      0x04\n      0x00\n      swap1\n      sload\n      swap1\n      0x0100\n      exp\n      swap1\n      div\n      0xffffffffffffffffffffffffffffffffffffffff\n      and\n        /* \"contracts/Gradebook.sol\":1315:1339  msg.sender == instructor */\n      0xffffffffffffffffffffffffffffffffffffffff\n      and\n        /* \"contracts/Gradebook.sol\":1315:1325  msg.sender */\n      caller\n        /* \"contracts/Gradebook.sol\":1315:1339  msg.sender == instructor */\n      0xffffffffffffffffffffffffffffffffffffffff\n      and\n      eq\n        /* \"contracts/Gradebook.sol\":1315:1366  msg.sender == instructor || tas[msg.sender] == true */\n      dup1\n      tag_108\n      jumpi\n      pop\n        /* \"contracts/Gradebook.sol\":1362:1366  true */\n      0x01\n        /* \"contracts/Gradebook.sol\":1343:1366  tas[msg.sender] == true */\n      iszero\n      iszero\n        /* \"contracts/Gradebook.sol\":1343:1346  tas */\n      0x00\n        /* \"contracts/Gradebook.sol\":1343:1358  tas[msg.sender] */\n      dup1\n        /* \"contracts/Gradebook.sol\":1347:1357  msg.sender */\n      caller\n        /* \"contracts/Gradebook.sol\":1343:1358  tas[msg.sender] */\n      0xffffffffffffffffffffffffffffffffffffffff\n      and\n      0xffffffffffffffffffffffffffffffffffffffff\n      and\n      dup2\n      mstore\n      0x20\n      add\n      swap1\n      dup2\n      mstore\n      0x20\n      add\n      0x00\n      keccak256\n      0x00\n      swap1\n      sload\n      swap1\n      0x0100\n      exp\n      swap1\n      div\n      0xff\n      and\n        /* \"contracts/Gradebook.sol\":1343:1366  tas[msg.sender] == true */\n      iszero\n      iszero\n      eq\n        /* \"contracts/Gradebook.sol\":1315:1366  msg.sender == instructor || tas[msg.sender] == true */\n    tag_108:\n        /* \"contracts/Gradebook.sol\":1307:1414  require(msg.sender == instructor || tas[msg.sender] == true, \"Only the instructor or a TA can add a grade\") */\n      tag_109\n      jumpi\n      mload(0x40)\n      0x08c379a000000000000000000000000000000000000000000000000000000000\n      dup2\n      mstore\n      0x04\n      add\n      tag_110\n      swap1\n      tag_111\n      jump\t// in\n    tag_110:\n      mload(0x40)\n      dup1\n      swap2\n      sub\n      swap1\n      revert\n    tag_109:\n        /* \"contracts/Gradebook.sol\":1446:1461  num_assignments */\n      sload(0x05)\n        /* \"contracts/Gradebook.sol\":1432:1442  assignment */\n      dup3\n        /* \"contracts/Gradebook.sol\":1432:1461  assignment <= num_assignments */\n      gt\n      iszero\n        /* \"contracts/Gradebook.sol\":1424:1491  require(assignment <= num_assignments, \"Assignment does not exist\") */\n      tag_112\n      jumpi\n      mload(0x40)\n      0x08c379a000000000000000000000000000000000000000000000000000000000\n      dup2\n      mstore\n      0x04\n      add\n      tag_113\n      swap1\n      tag_114\n      jump\t// in\n    tag_113:\n      mload(0x40)\n      dup1\n      swap2\n      sub\n      swap1\n      revert\n    tag_112:\n        /* \"contracts/Gradebook.sol\":1518:1528  max_scores */\n      0x02\n        /* \"contracts/Gradebook.sol\":1518:1540  max_scores[assignment] */\n      0x00\n        /* \"contracts/Gradebook.sol\":1529:1539  assignment */\n      dup4\n        /* \"contracts/Gradebook.sol\":1518:1540  max_scores[assignment] */\n      dup2\n      mstore\n      0x20\n      add\n      swap1\n      dup2\n      mstore\n      0x20\n      add\n      0x00\n      keccak256\n      sload\n        /* \"contracts/Gradebook.sol\":1509:1514  score */\n      dup2\n        /* \"contracts/Gradebook.sol\":1509:1540  score <= max_scores[assignment] */\n      gt\n      iszero\n        /* \"contracts/Gradebook.sol\":1501:1583  require(score <= max_scores[assignment], \"Score cannot be greater than max score\") */\n      tag_115\n      jumpi\n      mload(0x40)\n      0x08c379a000000000000000000000000000000000000000000000000000000000\n      dup2\n      mstore\n      0x04\n      add\n      tag_116\n      swap1\n      tag_117\n      jump\t// in\n    tag_116:\n      mload(0x40)\n      dup1\n      swap2\n      sub\n      swap1\n      revert\n    tag_115:\n        /* \"contracts/Gradebook.sol\":1623:1628  score */\n      dup1\n        /* \"contracts/Gradebook.sol\":1593:1599  scores */\n      0x03\n        /* \"contracts/Gradebook.sol\":1593:1611  scores[assignment] */\n      0x00\n        /* \"contracts/Gradebook.sol\":1600:1610  assignment */\n      dup5\n        /* \"contracts/Gradebook.sol\":1593:1611  scores[assignment] */\n      dup2\n      mstore\n      0x20\n      add\n      swap1\n      dup2\n      mstore\n      0x20\n      add\n      0x00\n      keccak256\n        /* \"contracts/Gradebook.sol\":1612:1619  student */\n      dup5\n        /* \"contracts/Gradebook.sol\":1593:1620  scores[assignment][student] */\n      mload(0x40)\n      tag_118\n      swap2\n      swap1\n      tag_98\n      jump\t// in\n    tag_118:\n      swap1\n      dup2\n      mstore\n      0x20\n      add\n      mload(0x40)\n      dup1\n      swap2\n      sub\n      swap1\n      keccak256\n        /* \"contracts/Gradebook.sol\":1593:1628  scores[assignment][student] = score */\n      dup2\n      swap1\n      sstore\n      pop\n        /* \"contracts/Gradebook.sol\":1659:1669  assignment */\n      dup2\n        /* \"contracts/Gradebook.sol\":1643:1670  gradeEntryEvent(assignment) */\n      0xef2ac44e203202a0e5ecc9974197e85354c58fc899e46eaa72f8aed9aa0b701d\n      mload(0x40)\n      mload(0x40)\n      dup1\n      swap2\n      sub\n      swap1\n      log2\n        /* \"contracts/Gradebook.sol\":1209:1677  function addGrade(string memory student, uint assignment, uint score) external override {... */\n      pop\n      pop\n      pop\n      jump\t// out\n        /* \"contracts/Gradebook.sol\":309:374  mapping (uint => mapping (string => uint)) public override scores */\n    tag_50:\n      mstore(0x20, 0x03)\n      dup2\n      0x00\n      mstore\n      keccak256(0x00, 0x40)\n      dup2\n      dup1\n      mload\n      0x20\n      dup2\n      add\n      dup3\n      add\n      dup1\n      mload\n      dup5\n      dup3\n      mstore\n      0x20\n      dup4\n      add\n      0x20\n      dup6\n      add\n      keccak256\n      dup2\n      dup4\n      mstore\n      dup1\n      swap6\n      pop\n      pop\n      pop\n      pop\n      pop\n      pop\n      0x00\n      swap2\n      pop\n      swap2\n      pop\n      pop\n      sload\n      dup2\n      jump\t// out\n        /* \"contracts/Gradebook.sol\":2139:2309  function requestTAAccess() external override {... */\n    tag_53:\n        /* \"contracts/Gradebook.sol\":2216:2226  instructor */\n      0x04\n      0x00\n      swap1\n      sload\n      swap1\n      0x0100\n      exp\n      swap1\n      div\n      0xffffffffffffffffffffffffffffffffffffffff\n      and\n        /* \"contracts/Gradebook.sol\":2202:2226  msg.sender != instructor */\n      0xffffffffffffffffffffffffffffffffffffffff\n      and\n        /* \"contracts/Gradebook.sol\":2202:2212  msg.sender */\n      caller\n        /* \"contracts/Gradebook.sol\":2202:2226  msg.sender != instructor */\n      0xffffffffffffffffffffffffffffffffffffffff\n      and\n      sub\n        /* \"contracts/Gradebook.sol\":2194:2270  require(msg.sender != instructor, \"The instructor cannot request TA access\") */\n      tag_120\n      jumpi\n      mload(0x40)\n      0x08c379a000000000000000000000000000000000000000000000000000000000\n      dup2\n      mstore\n      0x04\n      add\n      tag_121\n      swap1\n      tag_122\n      jump\t// in\n    tag_121:\n      mload(0x40)\n      dup1\n      swap2\n      sub\n      swap1\n      revert\n    tag_120:\n        /* \"contracts/Gradebook.sol\":2298:2302  true */\n      0x01\n        /* \"contracts/Gradebook.sol\":2280:2283  tas */\n      0x00\n        /* \"contracts/Gradebook.sol\":2280:2295  tas[msg.sender] */\n      dup1\n        /* \"contracts/Gradebook.sol\":2284:2294  msg.sender */\n      caller\n        /* \"contracts/Gradebook.sol\":2280:2295  tas[msg.sender] */\n      0xffffffffffffffffffffffffffffffffffffffff\n      and\n      0xffffffffffffffffffffffffffffffffffffffff\n      and\n      dup2\n      mstore\n      0x20\n      add\n      swap1\n      dup2\n      mstore\n      0x20\n      add\n      0x00\n      keccak256\n      0x00\n        /* \"contracts/Gradebook.sol\":2280:2302  tas[msg.sender] = true */\n      0x0100\n      exp\n      dup2\n      sload\n      dup2\n      0xff\n      mul\n      not\n      and\n      swap1\n      dup4\n      iszero\n      iszero\n      mul\n      or\n      swap1\n      sstore\n      pop\n        /* \"contracts/Gradebook.sol\":2139:2309  function requestTAAccess() external override {... */\n      jump\t// out\n        /* \"contracts/Gradebook.sol\":524:726  function designateTA(address ta) external override {... */\n    tag_57:\n        /* \"contracts/Gradebook.sol\":607:617  instructor */\n      0x04\n      0x00\n      swap1\n      sload\n      swap1\n      0x0100\n      exp\n      swap1\n      div\n      0xffffffffffffffffffffffffffffffffffffffff\n      and\n        /* \"contracts/Gradebook.sol\":593:617  msg.sender == instructor */\n      0xffffffffffffffffffffffffffffffffffffffff\n      and\n        /* \"contracts/Gradebook.sol\":593:603  msg.sender */\n      caller\n        /* \"contracts/Gradebook.sol\":593:617  msg.sender == instructor */\n      0xffffffffffffffffffffffffffffffffffffffff\n      and\n      eq\n        /* \"contracts/Gradebook.sol\":593:644  msg.sender == instructor || tas[msg.sender] == true */\n      dup1\n      tag_124\n      jumpi\n      pop\n        /* \"contracts/Gradebook.sol\":640:644  true */\n      0x01\n        /* \"contracts/Gradebook.sol\":621:644  tas[msg.sender] == true */\n      iszero\n      iszero\n        /* \"contracts/Gradebook.sol\":621:624  tas */\n      0x00\n        /* \"contracts/Gradebook.sol\":621:636  tas[msg.sender] */\n      dup1\n        /* \"contracts/Gradebook.sol\":625:635  msg.sender */\n      caller\n        /* \"contracts/Gradebook.sol\":621:636  tas[msg.sender] */\n      0xffffffffffffffffffffffffffffffffffffffff\n      and\n      0xffffffffffffffffffffffffffffffffffffffff\n      and\n      dup2\n      mstore\n      0x20\n      add\n      swap1\n      dup2\n      mstore\n      0x20\n      add\n      0x00\n      keccak256\n      0x00\n      swap1\n      sload\n      swap1\n      0x0100\n      exp\n      swap1\n      div\n      0xff\n      and\n        /* \"contracts/Gradebook.sol\":621:644  tas[msg.sender] == true */\n      iszero\n      iszero\n      eq\n        /* \"contracts/Gradebook.sol\":593:644  msg.sender == instructor || tas[msg.sender] == true */\n    tag_124:\n        /* \"contracts/Gradebook.sol\":585:695  require(msg.sender == instructor || tas[msg.sender] == true, \"Only the instructor or a TA can designate a TA\") */\n      tag_125\n      jumpi\n      mload(0x40)\n      0x08c379a000000000000000000000000000000000000000000000000000000000\n      dup2\n      mstore\n      0x04\n      add\n      tag_126\n      swap1\n      tag_127\n      jump\t// in\n    tag_126:\n      mload(0x40)\n      dup1\n      swap2\n      sub\n      swap1\n      revert\n    tag_125:\n        /* \"contracts/Gradebook.sol\":715:719  true */\n      0x01\n        /* \"contracts/Gradebook.sol\":705:708  tas */\n      0x00\n        /* \"contracts/Gradebook.sol\":705:712  tas[ta] */\n      dup1\n        /* \"contracts/Gradebook.sol\":709:711  ta */\n      dup4\n        /* \"contracts/Gradebook.sol\":705:712  tas[ta] */\n      0xffffffffffffffffffffffffffffffffffffffff\n      and\n      0xffffffffffffffffffffffffffffffffffffffff\n      and\n      dup2\n      mstore\n      0x20\n      add\n      swap1\n      dup2\n      mstore\n      0x20\n      add\n      0x00\n      keccak256\n      0x00\n        /* \"contracts/Gradebook.sol\":705:719  tas[ta] = true */\n      0x0100\n      exp\n      dup2\n      sload\n      dup2\n      0xff\n      mul\n      not\n      and\n      swap1\n      dup4\n      iszero\n      iszero\n      mul\n      or\n      swap1\n      sstore\n      pop\n        /* \"contracts/Gradebook.sol\":524:726  function designateTA(address ta) external override {... */\n      pop\n      jump\t// out\n        /* \"contracts/Gradebook.sol\":140:185  mapping (address => bool) public override tas */\n    tag_60:\n      mstore(0x20, 0x00)\n      dup1\n      0x00\n      mstore\n      keccak256(0x00, 0x40)\n      0x00\n      swap2\n      pop\n      sload\n      swap1\n      0x0100\n      exp\n      swap1\n      div\n      0xff\n      and\n      dup2\n      jump\t// out\n        /* \"contracts/Gradebook.sol\":421:457  uint public override num_assignments */\n    tag_63:\n      sload(0x05)\n      dup2\n      jump\t// out\n        /* \"contracts/Gradebook.sol\":254:303  mapping (uint => uint) public override max_scores */\n    tag_67:\n      mstore(0x20, 0x02)\n      dup1\n      0x00\n      mstore\n      keccak256(0x00, 0x40)\n      0x00\n      swap2\n      pop\n      swap1\n      pop\n      sload\n      dup2\n      jump\t// out\n        /* \"#utility.yul\":7:82   */\n    tag_128:\n        /* \"#utility.yul\":40:46   */\n      0x00\n        /* \"#utility.yul\":73:75   */\n      0x40\n        /* \"#utility.yul\":67:76   */\n      mload\n        /* \"#utility.yul\":57:76   */\n      swap1\n      pop\n        /* \"#utility.yul\":7:82   */\n      swap1\n      jump\t// out\n        /* \"#utility.yul\":88:205   */\n    tag_129:\n        /* \"#utility.yul\":197:198   */\n      0x00\n        /* \"#utility.yul\":194:195   */\n      dup1\n        /* \"#utility.yul\":187:199   */\n      revert\n        /* \"#utility.yul\":211:328   */\n    tag_130:\n        /* \"#utility.yul\":320:321   */\n      0x00\n        /* \"#utility.yul\":317:318   */\n      dup1\n        /* \"#utility.yul\":310:322   */\n      revert\n        /* \"#utility.yul\":334:483   */\n    tag_131:\n        /* \"#utility.yul\":370:377   */\n      0x00\n        /* \"#utility.yul\":410:476   */\n      0xffffffff00000000000000000000000000000000000000000000000000000000\n        /* \"#utility.yul\":403:408   */\n      dup3\n        /* \"#utility.yul\":399:477   */\n      and\n        /* \"#utility.yul\":388:477   */\n      swap1\n      pop\n        /* \"#utility.yul\":334:483   */\n      swap2\n      swap1\n      pop\n      jump\t// out\n        /* \"#utility.yul\":489:609   */\n    tag_132:\n        /* \"#utility.yul\":561:584   */\n      tag_201\n        /* \"#utility.yul\":578:583   */\n      dup2\n        /* \"#utility.yul\":561:584   */\n      tag_131\n      jump\t// in\n    tag_201:\n        /* \"#utility.yul\":554:559   */\n      dup2\n        /* \"#utility.yul\":551:585   */\n      eq\n        /* \"#utility.yul\":541:603   */\n      tag_202\n      jumpi\n        /* \"#utility.yul\":599:600   */\n      0x00\n        /* \"#utility.yul\":596:597   */\n      dup1\n        /* \"#utility.yul\":589:601   */\n      revert\n        /* \"#utility.yul\":541:603   */\n    tag_202:\n        /* \"#utility.yul\":489:609   */\n      pop\n      jump\t// out\n        /* \"#utility.yul\":615:752   */\n    tag_133:\n        /* \"#utility.yul\":660:665   */\n      0x00\n        /* \"#utility.yul\":698:704   */\n      dup2\n        /* \"#utility.yul\":685:705   */\n      calldataload\n        /* \"#utility.yul\":676:705   */\n      swap1\n      pop\n        /* \"#utility.yul\":714:746   */\n      tag_204\n        /* \"#utility.yul\":740:745   */\n      dup2\n        /* \"#utility.yul\":714:746   */\n      tag_132\n      jump\t// in\n    tag_204:\n        /* \"#utility.yul\":615:752   */\n      swap3\n      swap2\n      pop\n      pop\n      jump\t// out\n        /* \"#utility.yul\":758:1085   */\n    tag_18:\n        /* \"#utility.yul\":816:822   */\n      0x00\n        /* \"#utility.yul\":865:867   */\n      0x20\n        /* \"#utility.yul\":853:862   */\n      dup3\n        /* \"#utility.yul\":844:851   */\n      dup5\n        /* \"#utility.yul\":840:863   */\n      sub\n        /* \"#utility.yul\":836:868   */\n      slt\n        /* \"#utility.yul\":833:952   */\n      iszero\n      tag_206\n      jumpi\n        /* \"#utility.yul\":871:950   */\n      tag_207\n      tag_129\n      jump\t// in\n    tag_207:\n        /* \"#utility.yul\":833:952   */\n    tag_206:\n        /* \"#utility.yul\":991:992   */\n      0x00\n        /* \"#utility.yul\":1016:1068   */\n      tag_208\n        /* \"#utility.yul\":1060:1067   */\n      dup5\n        /* \"#utility.yul\":1051:1057   */\n      dup3\n        /* \"#utility.yul\":1040:1049   */\n      dup6\n        /* \"#utility.yul\":1036:1058   */\n      add\n        /* \"#utility.yul\":1016:1068   */\n      tag_133\n      jump\t// in\n    tag_208:\n        /* \"#utility.yul\":1006:1068   */\n      swap2\n      pop\n        /* \"#utility.yul\":962:1078   */\n      pop\n        /* \"#utility.yul\":758:1085   */\n      swap3\n      swap2\n      pop\n      pop\n      jump\t// out\n        /* \"#utility.yul\":1091:1181   */\n    tag_134:\n        /* \"#utility.yul\":1125:1132   */\n      0x00\n        /* \"#utility.yul\":1168:1173   */\n      dup2\n        /* \"#utility.yul\":1161:1174   */\n      iszero\n        /* \"#utility.yul\":1154:1175   */\n      iszero\n        /* \"#utility.yul\":1143:1175   */\n      swap1\n      pop\n        /* \"#utility.yul\":1091:1181   */\n      swap2\n      swap1\n      pop\n      jump\t// out\n        /* \"#utility.yul\":1187:1296   */\n    tag_135:\n        /* \"#utility.yul\":1268:1289   */\n      tag_211\n        /* \"#utility.yul\":1283:1288   */\n      dup2\n        /* \"#utility.yul\":1268:1289   */\n      tag_134\n      jump\t// in\n    tag_211:\n        /* \"#utility.yul\":1263:1266   */\n      dup3\n        /* \"#utility.yul\":1256:1290   */\n      mstore\n        /* \"#utility.yul\":1187:1296   */\n      pop\n      pop\n      jump\t// out\n        /* \"#utility.yul\":1302:1512   */\n    tag_21:\n        /* \"#utility.yul\":1389:1393   */\n      0x00\n        /* \"#utility.yul\":1427:1429   */\n      0x20\n        /* \"#utility.yul\":1416:1425   */\n      dup3\n        /* \"#utility.yul\":1412:1430   */\n      add\n        /* \"#utility.yul\":1404:1430   */\n      swap1\n      pop\n        /* \"#utility.yul\":1440:1505   */\n      tag_213\n        /* \"#utility.yul\":1502:1503   */\n      0x00\n        /* \"#utility.yul\":1491:1500   */\n      dup4\n        /* \"#utility.yul\":1487:1504   */\n      add\n        /* \"#utility.yul\":1478:1484   */\n      dup5\n        /* \"#utility.yul\":1440:1505   */\n      tag_135\n      jump\t// in\n    tag_213:\n        /* \"#utility.yul\":1302:1512   */\n      swap3\n      swap2\n      pop\n      pop\n      jump\t// out\n        /* \"#utility.yul\":1518:1635   */\n    tag_136:\n        /* \"#utility.yul\":1627:1628   */\n      0x00\n        /* \"#utility.yul\":1624:1625   */\n      dup1\n        /* \"#utility.yul\":1617:1629   */\n      revert\n        /* \"#utility.yul\":1641:1758   */\n    tag_137:\n        /* \"#utility.yul\":1750:1751   */\n      0x00\n        /* \"#utility.yul\":1747:1748   */\n      dup1\n        /* \"#utility.yul\":1740:1752   */\n      revert\n        /* \"#utility.yul\":1764:1866   */\n    tag_138:\n        /* \"#utility.yul\":1805:1811   */\n      0x00\n        /* \"#utility.yul\":1856:1858   */\n      0x1f\n        /* \"#utility.yul\":1852:1859   */\n      not\n        /* \"#utility.yul\":1847:1849   */\n      0x1f\n        /* \"#utility.yul\":1840:1845   */\n      dup4\n        /* \"#utility.yul\":1836:1850   */\n      add\n        /* \"#utility.yul\":1832:1860   */\n      and\n        /* \"#utility.yul\":1822:1860   */\n      swap1\n      pop\n        /* \"#utility.yul\":1764:1866   */\n      swap2\n      swap1\n      pop\n      jump\t// out\n        /* \"#utility.yul\":1872:2052   */\n    tag_139:\n        /* \"#utility.yul\":1920:1997   */\n      0x4e487b7100000000000000000000000000000000000000000000000000000000\n        /* \"#utility.yul\":1917:1918   */\n      0x00\n        /* \"#utility.yul\":1910:1998   */\n      mstore\n        /* \"#utility.yul\":2017:2021   */\n      0x41\n        /* \"#utility.yul\":2014:2015   */\n      0x04\n        /* \"#utility.yul\":2007:2022   */\n      mstore\n        /* \"#utility.yul\":2041:2045   */\n      0x24\n        /* \"#utility.yul\":2038:2039   */\n      0x00\n        /* \"#utility.yul\":2031:2046   */\n      revert\n        /* \"#utility.yul\":2058:2339   */\n    tag_140:\n        /* \"#utility.yul\":2141:2168   */\n      tag_219\n        /* \"#utility.yul\":2163:2167   */\n      dup3\n        /* \"#utility.yul\":2141:2168   */\n      tag_138\n      jump\t// in\n    tag_219:\n        /* \"#utility.yul\":2133:2139   */\n      dup2\n        /* \"#utility.yul\":2129:2169   */\n      add\n        /* \"#utility.yul\":2271:2277   */\n      dup2\n        /* \"#utility.yul\":2259:2269   */\n      dup2\n        /* \"#utility.yul\":2256:2278   */\n      lt\n        /* \"#utility.yul\":2235:2253   */\n      0xffffffffffffffff\n        /* \"#utility.yul\":2223:2233   */\n      dup3\n        /* \"#utility.yul\":2220:2254   */\n      gt\n        /* \"#utility.yul\":2217:2279   */\n      or\n        /* \"#utility.yul\":2214:2302   */\n      iszero\n      tag_220\n      jumpi\n        /* \"#utility.yul\":2282:2300   */\n      tag_221\n      tag_139\n      jump\t// in\n    tag_221:\n        /* \"#utility.yul\":2214:2302   */\n    tag_220:\n        /* \"#utility.yul\":2322:2332   */\n      dup1\n        /* \"#utility.yul\":2318:2320   */\n      0x40\n        /* \"#utility.yul\":2311:2333   */\n      mstore\n        /* \"#utility.yul\":2101:2339   */\n      pop\n        /* \"#utility.yul\":2058:2339   */\n      pop\n      pop\n      jump\t// out\n        /* \"#utility.yul\":2345:2474   */\n    tag_141:\n        /* \"#utility.yul\":2379:2385   */\n      0x00\n        /* \"#utility.yul\":2406:2426   */\n      tag_223\n      tag_128\n      jump\t// in\n    tag_223:\n        /* \"#utility.yul\":2396:2426   */\n      swap1\n      pop\n        /* \"#utility.yul\":2435:2468   */\n      tag_224\n        /* \"#utility.yul\":2463:2467   */\n      dup3\n        /* \"#utility.yul\":2455:2461   */\n      dup3\n        /* \"#utility.yul\":2435:2468   */\n      tag_140\n      jump\t// in\n    tag_224:\n        /* \"#utility.yul\":2345:2474   */\n      swap2\n      swap1\n      pop\n      jump\t// out\n        /* \"#utility.yul\":2480:2788   */\n    tag_142:\n        /* \"#utility.yul\":2542:2546   */\n      0x00\n        /* \"#utility.yul\":2632:2650   */\n      0xffffffffffffffff\n        /* \"#utility.yul\":2624:2630   */\n      dup3\n        /* \"#utility.yul\":2621:2651   */\n      gt\n        /* \"#utility.yul\":2618:2674   */\n      iszero\n      tag_226\n      jumpi\n        /* \"#utility.yul\":2654:2672   */\n      tag_227\n      tag_139\n      jump\t// in\n    tag_227:\n        /* \"#utility.yul\":2618:2674   */\n    tag_226:\n        /* \"#utility.yul\":2692:2721   */\n      tag_228\n        /* \"#utility.yul\":2714:2720   */\n      dup3\n        /* \"#utility.yul\":2692:2721   */\n      tag_138\n      jump\t// in\n    tag_228:\n        /* \"#utility.yul\":2684:2721   */\n      swap1\n      pop\n        /* \"#utility.yul\":2776:2780   */\n      0x20\n        /* \"#utility.yul\":2770:2774   */\n      dup2\n        /* \"#utility.yul\":2766:2781   */\n      add\n        /* \"#utility.yul\":2758:2781   */\n      swap1\n      pop\n        /* \"#utility.yul\":2480:2788   */\n      swap2\n      swap1\n      pop\n      jump\t// out\n        /* \"#utility.yul\":2794:2940   */\n    tag_143:\n        /* \"#utility.yul\":2891:2897   */\n      dup3\n        /* \"#utility.yul\":2886:2889   */\n      dup2\n        /* \"#utility.yul\":2881:2884   */\n      dup4\n        /* \"#utility.yul\":2868:2898   */\n      calldatacopy\n        /* \"#utility.yul\":2932:2933   */\n      0x00\n        /* \"#utility.yul\":2923:2929   */\n      dup4\n        /* \"#utility.yul\":2918:2921   */\n      dup4\n        /* \"#utility.yul\":2914:2930   */\n      add\n        /* \"#utility.yul\":2907:2934   */\n      mstore\n        /* \"#utility.yul\":2794:2940   */\n      pop\n      pop\n      pop\n      jump\t// out\n        /* \"#utility.yul\":2946:3371   */\n    tag_144:\n        /* \"#utility.yul\":3024:3029   */\n      0x00\n        /* \"#utility.yul\":3049:3115   */\n      tag_231\n        /* \"#utility.yul\":3065:3114   */\n      tag_232\n        /* \"#utility.yul\":3107:3113   */\n      dup5\n        /* \"#utility.yul\":3065:3114   */\n      tag_142\n      jump\t// in\n    tag_232:\n        /* \"#utility.yul\":3049:3115   */\n      tag_141\n      jump\t// in\n    tag_231:\n        /* \"#utility.yul\":3040:3115   */\n      swap1\n      pop\n        /* \"#utility.yul\":3138:3144   */\n      dup3\n        /* \"#utility.yul\":3131:3136   */\n      dup2\n        /* \"#utility.yul\":3124:3145   */\n      mstore\n        /* \"#utility.yul\":3176:3180   */\n      0x20\n        /* \"#utility.yul\":3169:3174   */\n      dup2\n        /* \"#utility.yul\":3165:3181   */\n      add\n        /* \"#utility.yul\":3214:3217   */\n      dup5\n        /* \"#utility.yul\":3205:3211   */\n      dup5\n        /* \"#utility.yul\":3200:3203   */\n      dup5\n        /* \"#utility.yul\":3196:3212   */\n      add\n        /* \"#utility.yul\":3193:3218   */\n      gt\n        /* \"#utility.yul\":3190:3302   */\n      iszero\n      tag_233\n      jumpi\n        /* \"#utility.yul\":3221:3300   */\n      tag_234\n      tag_137\n      jump\t// in\n    tag_234:\n        /* \"#utility.yul\":3190:3302   */\n    tag_233:\n        /* \"#utility.yul\":3311:3365   */\n      tag_235\n        /* \"#utility.yul\":3358:3364   */\n      dup5\n        /* \"#utility.yul\":3353:3356   */\n      dup3\n        /* \"#utility.yul\":3348:3351   */\n      dup6\n        /* \"#utility.yul\":3311:3365   */\n      tag_143\n      jump\t// in\n    tag_235:\n        /* \"#utility.yul\":3030:3371   */\n      pop\n        /* \"#utility.yul\":2946:3371   */\n      swap4\n      swap3\n      pop\n      pop\n      pop\n      jump\t// out\n        /* \"#utility.yul\":3391:3731   */\n    tag_145:\n        /* \"#utility.yul\":3447:3452   */\n      0x00\n        /* \"#utility.yul\":3496:3499   */\n      dup3\n        /* \"#utility.yul\":3489:3493   */\n      0x1f\n        /* \"#utility.yul\":3481:3487   */\n      dup4\n        /* \"#utility.yul\":3477:3494   */\n      add\n        /* \"#utility.yul\":3473:3500   */\n      slt\n        /* \"#utility.yul\":3463:3585   */\n      tag_237\n      jumpi\n        /* \"#utility.yul\":3504:3583   */\n      tag_238\n      tag_136\n      jump\t// in\n    tag_238:\n        /* \"#utility.yul\":3463:3585   */\n    tag_237:\n        /* \"#utility.yul\":3621:3627   */\n      dup2\n        /* \"#utility.yul\":3608:3628   */\n      calldataload\n        /* \"#utility.yul\":3646:3725   */\n      tag_239\n        /* \"#utility.yul\":3721:3724   */\n      dup5\n        /* \"#utility.yul\":3713:3719   */\n      dup3\n        /* \"#utility.yul\":3706:3710   */\n      0x20\n        /* \"#utility.yul\":3698:3704   */\n      dup7\n        /* \"#utility.yul\":3694:3711   */\n      add\n        /* \"#utility.yul\":3646:3725   */\n      tag_144\n      jump\t// in\n    tag_239:\n        /* \"#utility.yul\":3637:3725   */\n      swap2\n      pop\n        /* \"#utility.yul\":3453:3731   */\n      pop\n        /* \"#utility.yul\":3391:3731   */\n      swap3\n      swap2\n      pop\n      pop\n      jump\t// out\n        /* \"#utility.yul\":3737:3814   */\n    tag_146:\n        /* \"#utility.yul\":3774:3781   */\n      0x00\n        /* \"#utility.yul\":3803:3808   */\n      dup2\n        /* \"#utility.yul\":3792:3808   */\n      swap1\n      pop\n        /* \"#utility.yul\":3737:3814   */\n      swap2\n      swap1\n      pop\n      jump\t// out\n        /* \"#utility.yul\":3820:3942   */\n    tag_147:\n        /* \"#utility.yul\":3893:3917   */\n      tag_242\n        /* \"#utility.yul\":3911:3916   */\n      dup2\n        /* \"#utility.yul\":3893:3917   */\n      tag_146\n      jump\t// in\n    tag_242:\n        /* \"#utility.yul\":3886:3891   */\n      dup2\n        /* \"#utility.yul\":3883:3918   */\n      eq\n        /* \"#utility.yul\":3873:3936   */\n      tag_243\n      jumpi\n        /* \"#utility.yul\":3932:3933   */\n      0x00\n        /* \"#utility.yul\":3929:3930   */\n      dup1\n        /* \"#utility.yul\":3922:3934   */\n      revert\n        /* \"#utility.yul\":3873:3936   */\n    tag_243:\n        /* \"#utility.yul\":3820:3942   */\n      pop\n      jump\t// out\n        /* \"#utility.yul\":3948:4087   */\n    tag_148:\n        /* \"#utility.yul\":3994:3999   */\n      0x00\n        /* \"#utility.yul\":4032:4038   */\n      dup2\n        /* \"#utility.yul\":4019:4039   */\n      calldataload\n        /* \"#utility.yul\":4010:4039   */\n      swap1\n      pop\n        /* \"#utility.yul\":4048:4081   */\n      tag_245\n        /* \"#utility.yul\":4075:4080   */\n      dup2\n        /* \"#utility.yul\":4048:4081   */\n      tag_147\n      jump\t// in\n    tag_245:\n        /* \"#utility.yul\":3948:4087   */\n      swap3\n      swap2\n      pop\n      pop\n      jump\t// out\n        /* \"#utility.yul\":4093:4747   */\n    tag_24:\n        /* \"#utility.yul\":4171:4177   */\n      0x00\n        /* \"#utility.yul\":4179:4185   */\n      dup1\n        /* \"#utility.yul\":4228:4230   */\n      0x40\n        /* \"#utility.yul\":4216:4225   */\n      dup4\n        /* \"#utility.yul\":4207:4214   */\n      dup6\n        /* \"#utility.yul\":4203:4226   */\n      sub\n        /* \"#utility.yul\":4199:4231   */\n      slt\n        /* \"#utility.yul\":4196:4315   */\n      iszero\n      tag_247\n      jumpi\n        /* \"#utility.yul\":4234:4313   */\n      tag_248\n      tag_129\n      jump\t// in\n    tag_248:\n        /* \"#utility.yul\":4196:4315   */\n    tag_247:\n        /* \"#utility.yul\":4382:4383   */\n      0x00\n        /* \"#utility.yul\":4371:4380   */\n      dup4\n        /* \"#utility.yul\":4367:4384   */\n      add\n        /* \"#utility.yul\":4354:4385   */\n      calldataload\n        /* \"#utility.yul\":4412:4430   */\n      0xffffffffffffffff\n        /* \"#utility.yul\":4404:4410   */\n      dup2\n        /* \"#utility.yul\":4401:4431   */\n      gt\n        /* \"#utility.yul\":4398:4515   */\n      iszero\n      tag_249\n      jumpi\n        /* \"#utility.yul\":4434:4513   */\n      tag_250\n      tag_130\n      jump\t// in\n    tag_250:\n        /* \"#utility.yul\":4398:4515   */\n    tag_249:\n        /* \"#utility.yul\":4539:4602   */\n      tag_251\n        /* \"#utility.yul\":4594:4601   */\n      dup6\n        /* \"#utility.yul\":4585:4591   */\n      dup3\n        /* \"#utility.yul\":4574:4583   */\n      dup7\n        /* \"#utility.yul\":4570:4592   */\n      add\n        /* \"#utility.yul\":4539:4602   */\n      tag_145\n      jump\t// in\n    tag_251:\n        /* \"#utility.yul\":4529:4602   */\n      swap3\n      pop\n        /* \"#utility.yul\":4325:4612   */\n      pop\n        /* \"#utility.yul\":4651:4653   */\n      0x20\n        /* \"#utility.yul\":4677:4730   */\n      tag_252\n        /* \"#utility.yul\":4722:4729   */\n      dup6\n        /* \"#utility.yul\":4713:4719   */\n      dup3\n        /* \"#utility.yul\":4702:4711   */\n      dup7\n        /* \"#utility.yul\":4698:4720   */\n      add\n        /* \"#utility.yul\":4677:4730   */\n      tag_148\n      jump\t// in\n    tag_252:\n        /* \"#utility.yul\":4667:4730   */\n      swap2\n      pop\n        /* \"#utility.yul\":4622:4740   */\n      pop\n        /* \"#utility.yul\":4093:4747   */\n      swap3\n      pop\n      swap3\n      swap1\n      pop\n      jump\t// out\n        /* \"#utility.yul\":4753:4871   */\n    tag_149:\n        /* \"#utility.yul\":4840:4864   */\n      tag_254\n        /* \"#utility.yul\":4858:4863   */\n      dup2\n        /* \"#utility.yul\":4840:4864   */\n      tag_146\n      jump\t// in\n    tag_254:\n        /* \"#utility.yul\":4835:4838   */\n      dup3\n        /* \"#utility.yul\":4828:4865   */\n      mstore\n        /* \"#utility.yul\":4753:4871   */\n      pop\n      pop\n      jump\t// out\n        /* \"#utility.yul\":4877:5099   */\n    tag_27:\n        /* \"#utility.yul\":4970:4974   */\n      0x00\n        /* \"#utility.yul\":5008:5010   */\n      0x20\n        /* \"#utility.yul\":4997:5006   */\n      dup3\n        /* \"#utility.yul\":4993:5011   */\n      add\n        /* \"#utility.yul\":4985:5011   */\n      swap1\n      pop\n        /* \"#utility.yul\":5021:5092   */\n      tag_256\n        /* \"#utility.yul\":5089:5090   */\n      0x00\n        /* \"#utility.yul\":5078:5087   */\n      dup4\n        /* \"#utility.yul\":5074:5091   */\n      add\n        /* \"#utility.yul\":5065:5071   */\n      dup5\n        /* \"#utility.yul\":5021:5092   */\n      tag_149\n      jump\t// in\n    tag_256:\n        /* \"#utility.yul\":4877:5099   */\n      swap3\n      swap2\n      pop\n      pop\n      jump\t// out\n        /* \"#utility.yul\":5105:5434   */\n    tag_30:\n        /* \"#utility.yul\":5164:5170   */\n      0x00\n        /* \"#utility.yul\":5213:5215   */\n      0x20\n        /* \"#utility.yul\":5201:5210   */\n      dup3\n        /* \"#utility.yul\":5192:5199   */\n      dup5\n        /* \"#utility.yul\":5188:5211   */\n      sub\n        /* \"#utility.yul\":5184:5216   */\n      slt\n        /* \"#utility.yul\":5181:5300   */\n      iszero\n      tag_258\n      jumpi\n        /* \"#utility.yul\":5219:5298   */\n      tag_259\n      tag_129\n      jump\t// in\n    tag_259:\n        /* \"#utility.yul\":5181:5300   */\n    tag_258:\n        /* \"#utility.yul\":5339:5340   */\n      0x00\n        /* \"#utility.yul\":5364:5417   */\n      tag_260\n        /* \"#utility.yul\":5409:5416   */\n      dup5\n        /* \"#utility.yul\":5400:5406   */\n      dup3\n        /* \"#utility.yul\":5389:5398   */\n      dup6\n        /* \"#utility.yul\":5385:5407   */\n      add\n        /* \"#utility.yul\":5364:5417   */\n      tag_148\n      jump\t// in\n    tag_260:\n        /* \"#utility.yul\":5354:5417   */\n      swap2\n      pop\n        /* \"#utility.yul\":5310:5427   */\n      pop\n        /* \"#utility.yul\":5105:5434   */\n      swap3\n      swap2\n      pop\n      pop\n      jump\t// out\n        /* \"#utility.yul\":5440:5539   */\n    tag_150:\n        /* \"#utility.yul\":5492:5498   */\n      0x00\n        /* \"#utility.yul\":5526:5531   */\n      dup2\n        /* \"#utility.yul\":5520:5532   */\n      mload\n        /* \"#utility.yul\":5510:5532   */\n      swap1\n      pop\n        /* \"#utility.yul\":5440:5539   */\n      swap2\n      swap1\n      pop\n      jump\t// out\n        /* \"#utility.yul\":5545:5714   */\n    tag_151:\n        /* \"#utility.yul\":5629:5640   */\n      0x00\n        /* \"#utility.yul\":5663:5669   */\n      dup3\n        /* \"#utility.yul\":5658:5661   */\n      dup3\n        /* \"#utility.yul\":5651:5670   */\n      mstore\n        /* \"#utility.yul\":5703:5707   */\n      0x20\n        /* \"#utility.yul\":5698:5701   */\n      dup3\n        /* \"#utility.yul\":5694:5708   */\n      add\n        /* \"#utility.yul\":5679:5708   */\n      swap1\n      pop\n        /* \"#utility.yul\":5545:5714   */\n      swap3\n      swap2\n      pop\n      pop\n      jump\t// out\n        /* \"#utility.yul\":5720:5966   */\n    tag_152:\n        /* \"#utility.yul\":5801:5802   */\n      0x00\n        /* \"#utility.yul\":5811:5924   */\n    tag_264:\n        /* \"#utility.yul\":5825:5831   */\n      dup4\n        /* \"#utility.yul\":5822:5823   */\n      dup2\n        /* \"#utility.yul\":5819:5832   */\n      lt\n        /* \"#utility.yul\":5811:5924   */\n      iszero\n      tag_266\n      jumpi\n        /* \"#utility.yul\":5910:5911   */\n      dup1\n        /* \"#utility.yul\":5905:5908   */\n      dup3\n        /* \"#utility.yul\":5901:5912   */\n      add\n        /* \"#utility.yul\":5895:5913   */\n      mload\n        /* \"#utility.yul\":5891:5892   */\n      dup2\n        /* \"#utility.yul\":5886:5889   */\n      dup5\n        /* \"#utility.yul\":5882:5893   */\n      add\n        /* \"#utility.yul\":5875:5914   */\n      mstore\n        /* \"#utility.yul\":5847:5849   */\n      0x20\n        /* \"#utility.yul\":5844:5845   */\n      dup2\n        /* \"#utility.yul\":5840:5850   */\n      add\n        /* \"#utility.yul\":5835:5850   */\n      swap1\n      pop\n        /* \"#utility.yul\":5811:5924   */\n      jump(tag_264)\n    tag_266:\n        /* \"#utility.yul\":5958:5959   */\n      0x00\n        /* \"#utility.yul\":5949:5955   */\n      dup5\n        /* \"#utility.yul\":5944:5947   */\n      dup5\n        /* \"#utility.yul\":5940:5956   */\n      add\n        /* \"#utility.yul\":5933:5960   */\n      mstore\n        /* \"#utility.yul\":5782:5966   */\n      pop\n        /* \"#utility.yul\":5720:5966   */\n      pop\n      pop\n      pop\n      jump\t// out\n        /* \"#utility.yul\":5972:6349   */\n    tag_153:\n        /* \"#utility.yul\":6060:6063   */\n      0x00\n        /* \"#utility.yul\":6088:6127   */\n      tag_268\n        /* \"#utility.yul\":6121:6126   */\n      dup3\n        /* \"#utility.yul\":6088:6127   */\n      tag_150\n      jump\t// in\n    tag_268:\n        /* \"#utility.yul\":6143:6214   */\n      tag_269\n        /* \"#utility.yul\":6207:6213   */\n      dup2\n        /* \"#utility.yul\":6202:6205   */\n      dup6\n        /* \"#utility.yul\":6143:6214   */\n      tag_151\n      jump\t// in\n    tag_269:\n        /* \"#utility.yul\":6136:6214   */\n      swap4\n      pop\n        /* \"#utility.yul\":6223:6288   */\n      tag_270\n        /* \"#utility.yul\":6281:6287   */\n      dup2\n        /* \"#utility.yul\":6276:6279   */\n      dup6\n        /* \"#utility.yul\":6269:6273   */\n      0x20\n        /* \"#utility.yul\":6262:6267   */\n      dup7\n        /* \"#utility.yul\":6258:6274   */\n      add\n        /* \"#utility.yul\":6223:6288   */\n      tag_152\n      jump\t// in\n    tag_270:\n        /* \"#utility.yul\":6313:6342   */\n      tag_271\n        /* \"#utility.yul\":6335:6341   */\n      dup2\n        /* \"#utility.yul\":6313:6342   */\n      tag_138\n      jump\t// in\n    tag_271:\n        /* \"#utility.yul\":6308:6311   */\n      dup5\n        /* \"#utility.yul\":6304:6343   */\n      add\n        /* \"#utility.yul\":6297:6343   */\n      swap2\n      pop\n        /* \"#utility.yul\":6064:6349   */\n      pop\n        /* \"#utility.yul\":5972:6349   */\n      swap3\n      swap2\n      pop\n      pop\n      jump\t// out\n        /* \"#utility.yul\":6355:6668   */\n    tag_33:\n        /* \"#utility.yul\":6468:6472   */\n      0x00\n        /* \"#utility.yul\":6506:6508   */\n      0x20\n        /* \"#utility.yul\":6495:6504   */\n      dup3\n        /* \"#utility.yul\":6491:6509   */\n      add\n        /* \"#utility.yul\":6483:6509   */\n      swap1\n      pop\n        /* \"#utility.yul\":6555:6564   */\n      dup2\n        /* \"#utility.yul\":6549:6553   */\n      dup2\n        /* \"#utility.yul\":6545:6565   */\n      sub\n        /* \"#utility.yul\":6541:6542   */\n      0x00\n        /* \"#utility.yul\":6530:6539   */\n      dup4\n        /* \"#utility.yul\":6526:6543   */\n      add\n        /* \"#utility.yul\":6519:6566   */\n      mstore\n        /* \"#utility.yul\":6583:6661   */\n      tag_273\n        /* \"#utility.yul\":6656:6660   */\n      dup2\n        /* \"#utility.yul\":6647:6653   */\n      dup5\n        /* \"#utility.yul\":6583:6661   */\n      tag_153\n      jump\t// in\n    tag_273:\n        /* \"#utility.yul\":6575:6661   */\n      swap1\n      pop\n        /* \"#utility.yul\":6355:6668   */\n      swap3\n      swap2\n      pop\n      pop\n      jump\t// out\n        /* \"#utility.yul\":6674:7183   */\n    tag_36:\n        /* \"#utility.yul\":6743:6749   */\n      0x00\n        /* \"#utility.yul\":6792:6794   */\n      0x20\n        /* \"#utility.yul\":6780:6789   */\n      dup3\n        /* \"#utility.yul\":6771:6778   */\n      dup5\n        /* \"#utility.yul\":6767:6790   */\n      sub\n        /* \"#utility.yul\":6763:6795   */\n      slt\n        /* \"#utility.yul\":6760:6879   */\n      iszero\n      tag_275\n      jumpi\n        /* \"#utility.yul\":6798:6877   */\n      tag_276\n      tag_129\n      jump\t// in\n    tag_276:\n        /* \"#utility.yul\":6760:6879   */\n    tag_275:\n        /* \"#utility.yul\":6946:6947   */\n      0x00\n        /* \"#utility.yul\":6935:6944   */\n      dup3\n        /* \"#utility.yul\":6931:6948   */\n      add\n        /* \"#utility.yul\":6918:6949   */\n      calldataload\n        /* \"#utility.yul\":6976:6994   */\n      0xffffffffffffffff\n        /* \"#utility.yul\":6968:6974   */\n      dup2\n        /* \"#utility.yul\":6965:6995   */\n      gt\n        /* \"#utility.yul\":6962:7079   */\n      iszero\n      tag_277\n      jumpi\n        /* \"#utility.yul\":6998:7077   */\n      tag_278\n      tag_130\n      jump\t// in\n    tag_278:\n        /* \"#utility.yul\":6962:7079   */\n    tag_277:\n        /* \"#utility.yul\":7103:7166   */\n      tag_279\n        /* \"#utility.yul\":7158:7165   */\n      dup5\n        /* \"#utility.yul\":7149:7155   */\n      dup3\n        /* \"#utility.yul\":7138:7147   */\n      dup6\n        /* \"#utility.yul\":7134:7156   */\n      add\n        /* \"#utility.yul\":7103:7166   */\n      tag_145\n      jump\t// in\n    tag_279:\n        /* \"#utility.yul\":7093:7166   */\n      swap2\n      pop\n        /* \"#utility.yul\":6889:7176   */\n      pop\n        /* \"#utility.yul\":6674:7183   */\n      swap3\n      swap2\n      pop\n      pop\n      jump\t// out\n        /* \"#utility.yul\":7189:7315   */\n    tag_154:\n        /* \"#utility.yul\":7226:7233   */\n      0x00\n        /* \"#utility.yul\":7266:7308   */\n      0xffffffffffffffffffffffffffffffffffffffff\n        /* \"#utility.yul\":7259:7264   */\n      dup3\n        /* \"#utility.yul\":7255:7309   */\n      and\n        /* \"#utility.yul\":7244:7309   */\n      swap1\n      pop\n        /* \"#utility.yul\":7189:7315   */\n      swap2\n      swap1\n      pop\n      jump\t// out\n        /* \"#utility.yul\":7321:7417   */\n    tag_155:\n        /* \"#utility.yul\":7358:7365   */\n      0x00\n        /* \"#utility.yul\":7387:7411   */\n      tag_282\n        /* \"#utility.yul\":7405:7410   */\n      dup3\n        /* \"#utility.yul\":7387:7411   */\n      tag_154\n      jump\t// in\n    tag_282:\n        /* \"#utility.yul\":7376:7411   */\n      swap1\n      pop\n        /* \"#utility.yul\":7321:7417   */\n      swap2\n      swap1\n      pop\n      jump\t// out\n        /* \"#utility.yul\":7423:7541   */\n    tag_156:\n        /* \"#utility.yul\":7510:7534   */\n      tag_284\n        /* \"#utility.yul\":7528:7533   */\n      dup2\n        /* \"#utility.yul\":7510:7534   */\n      tag_155\n      jump\t// in\n    tag_284:\n        /* \"#utility.yul\":7505:7508   */\n      dup3\n        /* \"#utility.yul\":7498:7535   */\n      mstore\n        /* \"#utility.yul\":7423:7541   */\n      pop\n      pop\n      jump\t// out\n        /* \"#utility.yul\":7547:7769   */\n    tag_42:\n        /* \"#utility.yul\":7640:7644   */\n      0x00\n        /* \"#utility.yul\":7678:7680   */\n      0x20\n        /* \"#utility.yul\":7667:7676   */\n      dup3\n        /* \"#utility.yul\":7663:7681   */\n      add\n        /* \"#utility.yul\":7655:7681   */\n      swap1\n      pop\n        /* \"#utility.yul\":7691:7762   */\n      tag_286\n        /* \"#utility.yul\":7759:7760   */\n      0x00\n        /* \"#utility.yul\":7748:7757   */\n      dup4\n        /* \"#utility.yul\":7744:7761   */\n      add\n        /* \"#utility.yul\":7735:7741   */\n      dup5\n        /* \"#utility.yul\":7691:7762   */\n      tag_156\n      jump\t// in\n    tag_286:\n        /* \"#utility.yul\":7547:7769   */\n      swap3\n      swap2\n      pop\n      pop\n      jump\t// out\n        /* \"#utility.yul\":7775:8574   */\n    tag_45:\n        /* \"#utility.yul\":7862:7868   */\n      0x00\n        /* \"#utility.yul\":7870:7876   */\n      dup1\n        /* \"#utility.yul\":7878:7884   */\n      0x00\n        /* \"#utility.yul\":7927:7929   */\n      0x60\n        /* \"#utility.yul\":7915:7924   */\n      dup5\n        /* \"#utility.yul\":7906:7913   */\n      dup7\n        /* \"#utility.yul\":7902:7925   */\n      sub\n        /* \"#utility.yul\":7898:7930   */\n      slt\n        /* \"#utility.yul\":7895:8014   */\n      iszero\n      tag_288\n      jumpi\n        /* \"#utility.yul\":7933:8012   */\n      tag_289\n      tag_129\n      jump\t// in\n    tag_289:\n        /* \"#utility.yul\":7895:8014   */\n    tag_288:\n        /* \"#utility.yul\":8081:8082   */\n      0x00\n        /* \"#utility.yul\":8070:8079   */\n      dup5\n        /* \"#utility.yul\":8066:8083   */\n      add\n        /* \"#utility.yul\":8053:8084   */\n      calldataload\n        /* \"#utility.yul\":8111:8129   */\n      0xffffffffffffffff\n        /* \"#utility.yul\":8103:8109   */\n      dup2\n        /* \"#utility.yul\":8100:8130   */\n      gt\n        /* \"#utility.yul\":8097:8214   */\n      iszero\n      tag_290\n      jumpi\n        /* \"#utility.yul\":8133:8212   */\n      tag_291\n      tag_130\n      jump\t// in\n    tag_291:\n        /* \"#utility.yul\":8097:8214   */\n    tag_290:\n        /* \"#utility.yul\":8238:8301   */\n      tag_292\n        /* \"#utility.yul\":8293:8300   */\n      dup7\n        /* \"#utility.yul\":8284:8290   */\n      dup3\n        /* \"#utility.yul\":8273:8282   */\n      dup8\n        /* \"#utility.yul\":8269:8291   */\n      add\n        /* \"#utility.yul\":8238:8301   */\n      tag_145\n      jump\t// in\n    tag_292:\n        /* \"#utility.yul\":8228:8301   */\n      swap4\n      pop\n        /* \"#utility.yul\":8024:8311   */\n      pop\n        /* \"#utility.yul\":8350:8352   */\n      0x20\n        /* \"#utility.yul\":8376:8429   */\n      tag_293\n        /* \"#utility.yul\":8421:8428   */\n      dup7\n        /* \"#utility.yul\":8412:8418   */\n      dup3\n        /* \"#utility.yul\":8401:8410   */\n      dup8\n        /* \"#utility.yul\":8397:8419   */\n      add\n        /* \"#utility.yul\":8376:8429   */\n      tag_148\n      jump\t// in\n    tag_293:\n        /* \"#utility.yul\":8366:8429   */\n      swap3\n      pop\n        /* \"#utility.yul\":8321:8439   */\n      pop\n        /* \"#utility.yul\":8478:8480   */\n      0x40\n        /* \"#utility.yul\":8504:8557   */\n      tag_294\n        /* \"#utility.yul\":8549:8556   */\n      dup7\n        /* \"#utility.yul\":8540:8546   */\n      dup3\n        /* \"#utility.yul\":8529:8538   */\n      dup8\n        /* \"#utility.yul\":8525:8547   */\n      add\n        /* \"#utility.yul\":8504:8557   */\n      tag_148\n      jump\t// in\n    tag_294:\n        /* \"#utility.yul\":8494:8557   */\n      swap2\n      pop\n        /* \"#utility.yul\":8449:8567   */\n      pop\n        /* \"#utility.yul\":7775:8574   */\n      swap3\n      pop\n      swap3\n      pop\n      swap3\n      jump\t// out\n        /* \"#utility.yul\":8580:9234   */\n    tag_49:\n        /* \"#utility.yul\":8658:8664   */\n      0x00\n        /* \"#utility.yul\":8666:8672   */\n      dup1\n        /* \"#utility.yul\":8715:8717   */\n      0x40\n        /* \"#utility.yul\":8703:8712   */\n      dup4\n        /* \"#utility.yul\":8694:8701   */\n      dup6\n        /* \"#utility.yul\":8690:8713   */\n      sub\n        /* \"#utility.yul\":8686:8718   */\n      slt\n        /* \"#utility.yul\":8683:8802   */\n      iszero\n      tag_296\n      jumpi\n        /* \"#utility.yul\":8721:8800   */\n      tag_297\n      tag_129\n      jump\t// in\n    tag_297:\n        /* \"#utility.yul\":8683:8802   */\n    tag_296:\n        /* \"#utility.yul\":8841:8842   */\n      0x00\n        /* \"#utility.yul\":8866:8919   */\n      tag_298\n        /* \"#utility.yul\":8911:8918   */\n      dup6\n        /* \"#utility.yul\":8902:8908   */\n      dup3\n        /* \"#utility.yul\":8891:8900   */\n      dup7\n        /* \"#utility.yul\":8887:8909   */\n      add\n        /* \"#utility.yul\":8866:8919   */\n      tag_148\n      jump\t// in\n    tag_298:\n        /* \"#utility.yul\":8856:8919   */\n      swap3\n      pop\n        /* \"#utility.yul\":8812:8929   */\n      pop\n        /* \"#utility.yul\":8996:8998   */\n      0x20\n        /* \"#utility.yul\":8985:8994   */\n      dup4\n        /* \"#utility.yul\":8981:8999   */\n      add\n        /* \"#utility.yul\":8968:9000   */\n      calldataload\n        /* \"#utility.yul\":9027:9045   */\n      0xffffffffffffffff\n        /* \"#utility.yul\":9019:9025   */\n      dup2\n        /* \"#utility.yul\":9016:9046   */\n      gt\n        /* \"#utility.yul\":9013:9130   */\n      iszero\n      tag_299\n      jumpi\n        /* \"#utility.yul\":9049:9128   */\n      tag_300\n      tag_130\n      jump\t// in\n    tag_300:\n        /* \"#utility.yul\":9013:9130   */\n    tag_299:\n        /* \"#utility.yul\":9154:9217   */\n      tag_301\n        /* \"#utility.yul\":9209:9216   */\n      dup6\n        /* \"#utility.yul\":9200:9206   */\n      dup3\n        /* \"#utility.yul\":9189:9198   */\n      dup7\n        /* \"#utility.yul\":9185:9207   */\n      add\n        /* \"#utility.yul\":9154:9217   */\n      tag_145\n      jump\t// in\n    tag_301:\n        /* \"#utility.yul\":9144:9217   */\n      swap2\n      pop\n        /* \"#utility.yul\":8939:9227   */\n      pop\n        /* \"#utility.yul\":8580:9234   */\n      swap3\n      pop\n      swap3\n      swap1\n      pop\n      jump\t// out\n        /* \"#utility.yul\":9240:9362   */\n    tag_157:\n        /* \"#utility.yul\":9313:9337   */\n      tag_303\n        /* \"#utility.yul\":9331:9336   */\n      dup2\n        /* \"#utility.yul\":9313:9337   */\n      tag_155\n      jump\t// in\n    tag_303:\n        /* \"#utility.yul\":9306:9311   */\n      dup2\n        /* \"#utility.yul\":9303:9338   */\n      eq\n        /* \"#utility.yul\":9293:9356   */\n      tag_304\n      jumpi\n        /* \"#utility.yul\":9352:9353   */\n      0x00\n        /* \"#utility.yul\":9349:9350   */\n      dup1\n        /* \"#utility.yul\":9342:9354   */\n      revert\n        /* \"#utility.yul\":9293:9356   */\n    tag_304:\n        /* \"#utility.yul\":9240:9362   */\n      pop\n      jump\t// out\n        /* \"#utility.yul\":9368:9507   */\n    tag_158:\n        /* \"#utility.yul\":9414:9419   */\n      0x00\n        /* \"#utility.yul\":9452:9458   */\n      dup2\n        /* \"#utility.yul\":9439:9459   */\n      calldataload\n        /* \"#utility.yul\":9430:9459   */\n      swap1\n      pop\n        /* \"#utility.yul\":9468:9501   */\n      tag_306\n        /* \"#utility.yul\":9495:9500   */\n      dup2\n        /* \"#utility.yul\":9468:9501   */\n      tag_157\n      jump\t// in\n    tag_306:\n        /* \"#utility.yul\":9368:9507   */\n      swap3\n      swap2\n      pop\n      pop\n      jump\t// out\n        /* \"#utility.yul\":9513:9842   */\n    tag_56:\n        /* \"#utility.yul\":9572:9578   */\n      0x00\n        /* \"#utility.yul\":9621:9623   */\n      0x20\n        /* \"#utility.yul\":9609:9618   */\n      dup3\n        /* \"#utility.yul\":9600:9607   */\n      dup5\n        /* \"#utility.yul\":9596:9619   */\n      sub\n        /* \"#utility.yul\":9592:9624   */\n      slt\n        /* \"#utility.yul\":9589:9708   */\n      iszero\n      tag_308\n      jumpi\n        /* \"#utility.yul\":9627:9706   */\n      tag_309\n      tag_129\n      jump\t// in\n    tag_309:\n        /* \"#utility.yul\":9589:9708   */\n    tag_308:\n        /* \"#utility.yul\":9747:9748   */\n      0x00\n        /* \"#utility.yul\":9772:9825   */\n      tag_310\n        /* \"#utility.yul\":9817:9824   */\n      dup5\n        /* \"#utility.yul\":9808:9814   */\n      dup3\n        /* \"#utility.yul\":9797:9806   */\n      dup6\n        /* \"#utility.yul\":9793:9815   */\n      add\n        /* \"#utility.yul\":9772:9825   */\n      tag_158\n      jump\t// in\n    tag_310:\n        /* \"#utility.yul\":9762:9825   */\n      swap2\n      pop\n        /* \"#utility.yul\":9718:9835   */\n      pop\n        /* \"#utility.yul\":9513:9842   */\n      swap3\n      swap2\n      pop\n      pop\n      jump\t// out\n        /* \"#utility.yul\":9848:10084   */\n    tag_159:\n        /* \"#utility.yul\":9988:10022   */\n      0x4f6e6c792074686520696e7374727563746f72206f7220612054412063616e20\n        /* \"#utility.yul\":9984:9985   */\n      0x00\n        /* \"#utility.yul\":9976:9982   */\n      dup3\n        /* \"#utility.yul\":9972:9986   */\n      add\n        /* \"#utility.yul\":9965:10023   */\n      mstore\n        /* \"#utility.yul\":10057:10076   */\n      0x61646420616e2061737369676e6d656e74000000000000000000000000000000\n        /* \"#utility.yul\":10052:10054   */\n      0x20\n        /* \"#utility.yul\":10044:10050   */\n      dup3\n        /* \"#utility.yul\":10040:10055   */\n      add\n        /* \"#utility.yul\":10033:10077   */\n      mstore\n        /* \"#utility.yul\":9848:10084   */\n      pop\n      jump\t// out\n        /* \"#utility.yul\":10090:10456   */\n    tag_160:\n        /* \"#utility.yul\":10232:10235   */\n      0x00\n        /* \"#utility.yul\":10253:10320   */\n      tag_313\n        /* \"#utility.yul\":10317:10319   */\n      0x31\n        /* \"#utility.yul\":10312:10315   */\n      dup4\n        /* \"#utility.yul\":10253:10320   */\n      tag_151\n      jump\t// in\n    tag_313:\n        /* \"#utility.yul\":10246:10320   */\n      swap2\n      pop\n        /* \"#utility.yul\":10329:10422   */\n      tag_314\n        /* \"#utility.yul\":10418:10421   */\n      dup3\n        /* \"#utility.yul\":10329:10422   */\n      tag_159\n      jump\t// in\n    tag_314:\n        /* \"#utility.yul\":10447:10449   */\n      0x40\n        /* \"#utility.yul\":10442:10445   */\n      dup3\n        /* \"#utility.yul\":10438:10450   */\n      add\n        /* \"#utility.yul\":10431:10450   */\n      swap1\n      pop\n        /* \"#utility.yul\":10090:10456   */\n      swap2\n      swap1\n      pop\n      jump\t// out\n        /* \"#utility.yul\":10462:10881   */\n    tag_75:\n        /* \"#utility.yul\":10628:10632   */\n      0x00\n        /* \"#utility.yul\":10666:10668   */\n      0x20\n        /* \"#utility.yul\":10655:10664   */\n      dup3\n        /* \"#utility.yul\":10651:10669   */\n      add\n        /* \"#utility.yul\":10643:10669   */\n      swap1\n      pop\n        /* \"#utility.yul\":10715:10724   */\n      dup2\n        /* \"#utility.yul\":10709:10713   */\n      dup2\n        /* \"#utility.yul\":10705:10725   */\n      sub\n        /* \"#utility.yul\":10701:10702   */\n      0x00\n        /* \"#utility.yul\":10690:10699   */\n      dup4\n        /* \"#utility.yul\":10686:10703   */\n      add\n        /* \"#utility.yul\":10679:10726   */\n      mstore\n        /* \"#utility.yul\":10743:10874   */\n      tag_316\n        /* \"#utility.yul\":10869:10873   */\n      dup2\n        /* \"#utility.yul\":10743:10874   */\n      tag_160\n      jump\t// in\n    tag_316:\n        /* \"#utility.yul\":10735:10874   */\n      swap1\n      pop\n        /* \"#utility.yul\":10462:10881   */\n      swap2\n      swap1\n      pop\n      jump\t// out\n        /* \"#utility.yul\":10887:11069   */\n    tag_161:\n        /* \"#utility.yul\":11027:11061   */\n      0x4d61782073636f7265206d7573742062652067726561746572207468616e2030\n        /* \"#utility.yul\":11023:11024   */\n      0x00\n        /* \"#utility.yul\":11015:11021   */\n      dup3\n        /* \"#utility.yul\":11011:11025   */\n      add\n        /* \"#utility.yul\":11004:11062   */\n      mstore\n        /* \"#utility.yul\":10887:11069   */\n      pop\n      jump\t// out\n        /* \"#utility.yul\":11075:11441   */\n    tag_162:\n        /* \"#utility.yul\":11217:11220   */\n      0x00\n        /* \"#utility.yul\":11238:11305   */\n      tag_319\n        /* \"#utility.yul\":11302:11304   */\n      0x20\n        /* \"#utility.yul\":11297:11300   */\n      dup4\n        /* \"#utility.yul\":11238:11305   */\n      tag_151\n      jump\t// in\n    tag_319:\n        /* \"#utility.yul\":11231:11305   */\n      swap2\n      pop\n        /* \"#utility.yul\":11314:11407   */\n      tag_320\n        /* \"#utility.yul\":11403:11406   */\n      dup3\n        /* \"#utility.yul\":11314:11407   */\n      tag_161\n      jump\t// in\n    tag_320:\n        /* \"#utility.yul\":11432:11434   */\n      0x20\n        /* \"#utility.yul\":11427:11430   */\n      dup3\n        /* \"#utility.yul\":11423:11435   */\n      add\n        /* \"#utility.yul\":11416:11435   */\n      swap1\n      pop\n        /* \"#utility.yul\":11075:11441   */\n      swap2\n      swap1\n      pop\n      jump\t// out\n        /* \"#utility.yul\":11447:11866   */\n    tag_78:\n        /* \"#utility.yul\":11613:11617   */\n      0x00\n        /* \"#utility.yul\":11651:11653   */\n      0x20\n        /* \"#utility.yul\":11640:11649   */\n      dup3\n        /* \"#utility.yul\":11636:11654   */\n      add\n        /* \"#utility.yul\":11628:11654   */\n      swap1\n      pop\n        /* \"#utility.yul\":11700:11709   */\n      dup2\n        /* \"#utility.yul\":11694:11698   */\n      dup2\n        /* \"#utility.yul\":11690:11710   */\n      sub\n        /* \"#utility.yul\":11686:11687   */\n      0x00\n        /* \"#utility.yul\":11675:11684   */\n      dup4\n        /* \"#utility.yul\":11671:11688   */\n      add\n        /* \"#utility.yul\":11664:11711   */\n      mstore\n        /* \"#utility.yul\":11728:11859   */\n      tag_322\n        /* \"#utility.yul\":11854:11858   */\n      dup2\n        /* \"#utility.yul\":11728:11859   */\n      tag_162\n      jump\t// in\n    tag_322:\n        /* \"#utility.yul\":11720:11859   */\n      swap1\n      pop\n        /* \"#utility.yul\":11447:11866   */\n      swap2\n      swap1\n      pop\n      jump\t// out\n        /* \"#utility.yul\":11872:12052   */\n    tag_163:\n        /* \"#utility.yul\":11920:11997   */\n      0x4e487b7100000000000000000000000000000000000000000000000000000000\n        /* \"#utility.yul\":11917:11918   */\n      0x00\n        /* \"#utility.yul\":11910:11998   */\n      mstore\n        /* \"#utility.yul\":12017:12021   */\n      0x11\n        /* \"#utility.yul\":12014:12015   */\n      0x04\n        /* \"#utility.yul\":12007:12022   */\n      mstore\n        /* \"#utility.yul\":12041:12045   */\n      0x24\n        /* \"#utility.yul\":12038:12039   */\n      0x00\n        /* \"#utility.yul\":12031:12046   */\n      revert\n        /* \"#utility.yul\":12058:12291   */\n    tag_80:\n        /* \"#utility.yul\":12097:12100   */\n      0x00\n        /* \"#utility.yul\":12120:12144   */\n      tag_325\n        /* \"#utility.yul\":12138:12143   */\n      dup3\n        /* \"#utility.yul\":12120:12144   */\n      tag_146\n      jump\t// in\n    tag_325:\n        /* \"#utility.yul\":12111:12144   */\n      swap2\n      pop\n        /* \"#utility.yul\":12166:12232   */\n      0xffffffffffffffffffffffffffffffffffffffffffffffffffffffffffffffff\n        /* \"#utility.yul\":12159:12164   */\n      dup3\n        /* \"#utility.yul\":12156:12233   */\n      sub\n        /* \"#utility.yul\":12153:12256   */\n      tag_326\n      jumpi\n        /* \"#utility.yul\":12236:12254   */\n      tag_327\n      tag_163\n      jump\t// in\n    tag_327:\n        /* \"#utility.yul\":12153:12256   */\n    tag_326:\n        /* \"#utility.yul\":12283:12284   */\n      0x01\n        /* \"#utility.yul\":12276:12281   */\n      dup3\n        /* \"#utility.yul\":12272:12285   */\n      add\n        /* \"#utility.yul\":12265:12285   */\n      swap1\n      pop\n        /* \"#utility.yul\":12058:12291   */\n      swap2\n      swap1\n      pop\n      jump\t// out\n        /* \"#utility.yul\":12297:12477   */\n    tag_164:\n        /* \"#utility.yul\":12345:12422   */\n      0x4e487b7100000000000000000000000000000000000000000000000000000000\n        /* \"#utility.yul\":12342:12343   */\n      0x00\n        /* \"#utility.yul\":12335:12423   */\n      mstore\n        /* \"#utility.yul\":12442:12446   */\n      0x22\n        /* \"#utility.yul\":12439:12440   */\n      0x04\n        /* \"#utility.yul\":12432:12447   */\n      mstore\n        /* \"#utility.yul\":12466:12470   */\n      0x24\n        /* \"#utility.yul\":12463:12464   */\n      0x00\n        /* \"#utility.yul\":12456:12471   */\n      revert\n        /* \"#utility.yul\":12483:12803   */\n    tag_84:\n        /* \"#utility.yul\":12527:12533   */\n      0x00\n        /* \"#utility.yul\":12564:12565   */\n      0x02\n        /* \"#utility.yul\":12558:12562   */\n      dup3\n        /* \"#utility.yul\":12554:12566   */\n      div\n        /* \"#utility.yul\":12544:12566   */\n      swap1\n      pop\n        /* \"#utility.yul\":12611:12612   */\n      0x01\n        /* \"#utility.yul\":12605:12609   */\n      dup3\n        /* \"#utility.yul\":12601:12613   */\n      and\n        /* \"#utility.yul\":12632:12650   */\n      dup1\n        /* \"#utility.yul\":12622:12703   */\n      tag_330\n      jumpi\n        /* \"#utility.yul\":12688:12692   */\n      0x7f\n        /* \"#utility.yul\":12680:12686   */\n      dup3\n        /* \"#utility.yul\":12676:12693   */\n      and\n        /* \"#utility.yul\":12666:12693   */\n      swap2\n      pop\n        /* \"#utility.yul\":12622:12703   */\n    tag_330:\n        /* \"#utility.yul\":12750:12752   */\n      0x20\n        /* \"#utility.yul\":12742:12748   */\n      dup3\n        /* \"#utility.yul\":12739:12753   */\n      lt\n        /* \"#utility.yul\":12719:12737   */\n      dup2\n        /* \"#utility.yul\":12716:12754   */\n      sub\n        /* \"#utility.yul\":12713:12797   */\n      tag_331\n      jumpi\n        /* \"#utility.yul\":12769:12787   */\n      tag_332\n      tag_164\n      jump\t// in\n    tag_332:\n        /* \"#utility.yul\":12713:12797   */\n    tag_331:\n        /* \"#utility.yul\":12534:12803   */\n      pop\n        /* \"#utility.yul\":12483:12803   */\n      swap2\n      swap1\n      pop\n      jump\t// out\n        /* \"#utility.yul\":12809:12950   */\n    tag_165:\n        /* \"#utility.yul\":12858:12862   */\n      0x00\n        /* \"#utility.yul\":12881:12884   */\n      dup2\n        /* \"#utility.yul\":12873:12884   */\n      swap1\n      pop\n        /* \"#utility.yul\":12904:12907   */\n      dup2\n        /* \"#utility.yul\":12901:12902   */\n      0x00\n        /* \"#utility.yul\":12894:12908   */\n      mstore\n        /* \"#utility.yul\":12938:12942   */\n      0x20\n        /* \"#utility.yul\":12935:12936   */\n      0x00\n        /* \"#utility.yul\":12925:12943   */\n      keccak256\n        /* \"#utility.yul\":12917:12943   */\n      swap1\n      pop\n        /* \"#utility.yul\":12809:12950   */\n      swap2\n      swap1\n      pop\n      jump\t// out\n        /* \"#utility.yul\":12956:13049   */\n    tag_166:\n        /* \"#utility.yul\":12993:12999   */\n      0x00\n        /* \"#utility.yul\":13040:13042   */\n      0x20\n        /* \"#utility.yul\":13035:13037   */\n      0x1f\n        /* \"#utility.yul\":13028:13033   */\n      dup4\n        /* \"#utility.yul\":13024:13038   */\n      add\n        /* \"#utility.yul\":13020:13043   */\n      div\n        /* \"#utility.yul\":13010:13043   */\n      swap1\n      pop\n        /* \"#utility.yul\":12956:13049   */\n      swap2\n      swap1\n      pop\n      jump\t// out\n        /* \"#utility.yul\":13055:13162   */\n    tag_167:\n        /* \"#utility.yul\":13099:13107   */\n      0x00\n        /* \"#utility.yul\":13149:13154   */\n      dup3\n        /* \"#utility.yul\":13143:13147   */\n      dup3\n        /* \"#utility.yul\":13139:13155   */\n      shl\n        /* \"#utility.yul\":13118:13155   */\n      swap1\n      pop\n        /* \"#utility.yul\":13055:13162   */\n      swap3\n      swap2\n      pop\n      pop\n      jump\t// out\n        /* \"#utility.yul\":13168:13561   */\n    tag_168:\n        /* \"#utility.yul\":13237:13243   */\n      0x00\n        /* \"#utility.yul\":13287:13288   */\n      0x08\n        /* \"#utility.yul\":13275:13285   */\n      dup4\n        /* \"#utility.yul\":13271:13289   */\n      mul\n        /* \"#utility.yul\":13310:13407   */\n      tag_337\n        /* \"#utility.yul\":13340:13406   */\n      0xffffffffffffffffffffffffffffffffffffffffffffffffffffffffffffffff\n        /* \"#utility.yul\":13329:13338   */\n      dup3\n        /* \"#utility.yul\":13310:13407   */\n      tag_167\n      jump\t// in\n    tag_337:\n        /* \"#utility.yul\":13428:13467   */\n      tag_338\n        /* \"#utility.yul\":13458:13466   */\n      dup7\n        /* \"#utility.yul\":13447:13456   */\n      dup4\n        /* \"#utility.yul\":13428:13467   */\n      tag_167\n      jump\t// in\n    tag_338:\n        /* \"#utility.yul\":13416:13467   */\n      swap6\n      pop\n        /* \"#utility.yul\":13500:13504   */\n      dup1\n        /* \"#utility.yul\":13496:13505   */\n      not\n        /* \"#utility.yul\":13489:13494   */\n      dup5\n        /* \"#utility.yul\":13485:13506   */\n      and\n        /* \"#utility.yul\":13476:13506   */\n      swap4\n      pop\n        /* \"#utility.yul\":13549:13553   */\n      dup1\n        /* \"#utility.yul\":13539:13547   */\n      dup7\n        /* \"#utility.yul\":13535:13554   */\n      and\n        /* \"#utility.yul\":13528:13533   */\n      dup5\n        /* \"#utility.yul\":13525:13555   */\n      or\n        /* \"#utility.yul\":13515:13555   */\n      swap3\n      pop\n        /* \"#utility.yul\":13244:13561   */\n      pop\n      pop\n        /* \"#utility.yul\":13168:13561   */\n      swap4\n      swap3\n      pop\n      pop\n      pop\n      jump\t// out\n        /* \"#utility.yul\":13567:13627   */\n    tag_169:\n        /* \"#utility.yul\":13595:13598   */\n      0x00\n        /* \"#utility.yul\":13616:13621   */\n      dup2\n        /* \"#utility.yul\":13609:13621   */\n      swap1\n      pop\n        /* \"#utility.yul\":13567:13627   */\n      swap2\n      swap1\n      pop\n      jump\t// out\n        /* \"#utility.yul\":13633:13775   */\n    tag_170:\n        /* \"#utility.yul\":13683:13692   */\n      0x00\n        /* \"#utility.yul\":13716:13769   */\n      tag_341\n        /* \"#utility.yul\":13734:13768   */\n      tag_342\n        /* \"#utility.yul\":13743:13767   */\n      tag_343\n        /* \"#utility.yul\":13761:13766   */\n      dup5\n        /* \"#utility.yul\":13743:13767   */\n      tag_146\n      jump\t// in\n    tag_343:\n        /* \"#utility.yul\":13734:13768   */\n      tag_169\n      jump\t// in\n    tag_342:\n        /* \"#utility.yul\":13716:13769   */\n      tag_146\n      jump\t// in\n    tag_341:\n        /* \"#utility.yul\":13703:13769   */\n      swap1\n      pop\n        /* \"#utility.yul\":13633:13775   */\n      swap2\n      swap1\n      pop\n      jump\t// out\n        /* \"#utility.yul\":13781:13856   */\n    tag_171:\n        /* \"#utility.yul\":13824:13827   */\n      0x00\n        /* \"#utility.yul\":13845:13850   */\n      dup2\n        /* \"#utility.yul\":13838:13850   */\n      swap1\n      pop\n        /* \"#utility.yul\":13781:13856   */\n      swap2\n      swap1\n      pop\n      jump\t// out\n        /* \"#utility.yul\":13862:14131   */\n    tag_172:\n        /* \"#utility.yul\":13972:14011   */\n      tag_346\n        /* \"#utility.yul\":14003:14010   */\n      dup4\n        /* \"#utility.yul\":13972:14011   */\n      tag_170\n      jump\t// in\n    tag_346:\n        /* \"#utility.yul\":14033:14124   */\n      tag_347\n        /* \"#utility.yul\":14082:14123   */\n      tag_348\n        /* \"#utility.yul\":14106:14122   */\n      dup3\n        /* \"#utility.yul\":14082:14123   */\n      tag_171\n      jump\t// in\n    tag_348:\n        /* \"#utility.yul\":14074:14080   */\n      dup5\n        /* \"#utility.yul\":14067:14071   */\n      dup5\n        /* \"#utility.yul\":14061:14072   */\n      sload\n        /* \"#utility.yul\":14033:14124   */\n      tag_168\n      jump\t// in\n    tag_347:\n        /* \"#utility.yul\":14027:14031   */\n      dup3\n        /* \"#utility.yul\":14020:14125   */\n      sstore\n        /* \"#utility.yul\":13938:14131   */\n      pop\n        /* \"#utility.yul\":13862:14131   */\n      pop\n      pop\n      pop\n      jump\t// out\n        /* \"#utility.yul\":14137:14210   */\n    tag_173:\n        /* \"#utility.yul\":14182:14185   */\n      0x00\n        /* \"#utility.yul\":14137:14210   */\n      swap1\n      jump\t// out\n        /* \"#utility.yul\":14216:14405   */\n    tag_174:\n        /* \"#utility.yul\":14293:14325   */\n      tag_351\n      tag_173\n      jump\t// in\n    tag_351:\n        /* \"#utility.yul\":14334:14399   */\n      tag_352\n        /* \"#utility.yul\":14392:14398   */\n      dup2\n        /* \"#utility.yul\":14384:14390   */\n      dup5\n        /* \"#utility.yul\":14378:14382   */\n      dup5\n        /* \"#utility.yul\":14334:14399   */\n      tag_172\n      jump\t// in\n    tag_352:\n        /* \"#utility.yul\":14269:14405   */\n      pop\n        /* \"#utility.yul\":14216:14405   */\n      pop\n      pop\n      jump\t// out\n        /* \"#utility.yul\":14411:14597   */\n    tag_175:\n        /* \"#utility.yul\":14471:14591   */\n    tag_354:\n        /* \"#utility.yul\":14488:14491   */\n      dup2\n        /* \"#utility.yul\":14481:14486   */\n      dup2\n        /* \"#utility.yul\":14478:14492   */\n      lt\n        /* \"#utility.yul\":14471:14591   */\n      iszero\n      tag_356\n      jumpi\n        /* \"#utility.yul\":14542:14581   */\n      tag_357\n        /* \"#utility.yul\":14579:14580   */\n      0x00\n        /* \"#utility.yul\":14572:14577   */\n      dup3\n        /* \"#utility.yul\":14542:14581   */\n      tag_174\n      jump\t// in\n    tag_357:\n        /* \"#utility.yul\":14515:14516   */\n      0x01\n        /* \"#utility.yul\":14508:14513   */\n      dup2\n        /* \"#utility.yul\":14504:14517   */\n      add\n        /* \"#utility.yul\":14495:14517   */\n      swap1\n      pop\n        /* \"#utility.yul\":14471:14591   */\n      jump(tag_354)\n    tag_356:\n        /* \"#utility.yul\":14411:14597   */\n      pop\n      pop\n      jump\t// out\n        /* \"#utility.yul\":14603:15146   */\n    tag_176:\n        /* \"#utility.yul\":14704:14706   */\n      0x1f\n        /* \"#utility.yul\":14699:14702   */\n      dup3\n        /* \"#utility.yul\":14696:14707   */\n      gt\n        /* \"#utility.yul\":14693:15139   */\n      iszero\n      tag_359\n      jumpi\n        /* \"#utility.yul\":14738:14776   */\n      tag_360\n        /* \"#utility.yul\":14770:14775   */\n      dup2\n        /* \"#utility.yul\":14738:14776   */\n      tag_165\n      jump\t// in\n    tag_360:\n        /* \"#utility.yul\":14822:14851   */\n      tag_361\n        /* \"#utility.yul\":14840:14850   */\n      dup5\n        /* \"#utility.yul\":14822:14851   */\n      tag_166\n      jump\t// in\n    tag_361:\n        /* \"#utility.yul\":14812:14820   */\n      dup2\n        /* \"#utility.yul\":14808:14852   */\n      add\n        /* \"#utility.yul\":15005:15007   */\n      0x20\n        /* \"#utility.yul\":14993:15003   */\n      dup6\n        /* \"#utility.yul\":14990:15008   */\n      lt\n        /* \"#utility.yul\":14987:15036   */\n      iszero\n      tag_362\n      jumpi\n        /* \"#utility.yul\":15026:15034   */\n      dup2\n        /* \"#utility.yul\":15011:15034   */\n      swap1\n      pop\n        /* \"#utility.yul\":14987:15036   */\n    tag_362:\n        /* \"#utility.yul\":15049:15129   */\n      tag_363\n        /* \"#utility.yul\":15105:15127   */\n      tag_364\n        /* \"#utility.yul\":15123:15126   */\n      dup6\n        /* \"#utility.yul\":15105:15127   */\n      tag_166\n      jump\t// in\n    tag_364:\n        /* \"#utility.yul\":15095:15103   */\n      dup4\n        /* \"#utility.yul\":15091:15128   */\n      add\n        /* \"#utility.yul\":15078:15089   */\n      dup3\n        /* \"#utility.yul\":15049:15129   */\n      tag_175\n      jump\t// in\n    tag_363:\n        /* \"#utility.yul\":14708:15139   */\n      pop\n      pop\n        /* \"#utility.yul\":14693:15139   */\n    tag_359:\n        /* \"#utility.yul\":14603:15146   */\n      pop\n      pop\n      pop\n      jump\t// out\n        /* \"#utility.yul\":15152:15269   */\n    tag_177:\n        /* \"#utility.yul\":15206:15214   */\n      0x00\n        /* \"#utility.yul\":15256:15261   */\n      dup3\n        /* \"#utility.yul\":15250:15254   */\n      dup3\n        /* \"#utility.yul\":15246:15262   */\n      shr\n        /* \"#utility.yul\":15225:15262   */\n      swap1\n      pop\n        /* \"#utility.yul\":15152:15269   */\n      swap3\n      swap2\n      pop\n      pop\n      jump\t// out\n        /* \"#utility.yul\":15275:15444   */\n    tag_178:\n        /* \"#utility.yul\":15319:15325   */\n      0x00\n        /* \"#utility.yul\":15352:15403   */\n      tag_367\n        /* \"#utility.yul\":15400:15401   */\n      0x00\n        /* \"#utility.yul\":15396:15402   */\n      not\n        /* \"#utility.yul\":15388:15393   */\n      dup5\n        /* \"#utility.yul\":15385:15386   */\n      0x08\n        /* \"#utility.yul\":15381:15394   */\n      mul\n        /* \"#utility.yul\":15352:15403   */\n      tag_177\n      jump\t// in\n    tag_367:\n        /* \"#utility.yul\":15348:15404   */\n      not\n        /* \"#utility.yul\":15433:15437   */\n      dup1\n        /* \"#utility.yul\":15427:15431   */\n      dup4\n        /* \"#utility.yul\":15423:15438   */\n      and\n        /* \"#utility.yul\":15413:15438   */\n      swap2\n      pop\n        /* \"#utility.yul\":15326:15444   */\n      pop\n        /* \"#utility.yul\":15275:15444   */\n      swap3\n      swap2\n      pop\n      pop\n      jump\t// out\n        /* \"#utility.yul\":15449:15744   */\n    tag_179:\n        /* \"#utility.yul\":15525:15529   */\n      0x00\n        /* \"#utility.yul\":15671:15700   */\n      tag_369\n        /* \"#utility.yul\":15696:15699   */\n      dup4\n        /* \"#utility.yul\":15690:15694   */\n      dup4\n        /* \"#utility.yul\":15671:15700   */\n      tag_178\n      jump\t// in\n    tag_369:\n        /* \"#utility.yul\":15663:15700   */\n      swap2\n      pop\n        /* \"#utility.yul\":15733:15736   */\n      dup3\n        /* \"#utility.yul\":15730:15731   */\n      0x02\n        /* \"#utility.yul\":15726:15737   */\n      mul\n        /* \"#utility.yul\":15720:15724   */\n      dup3\n        /* \"#utility.yul\":15717:15738   */\n      or\n        /* \"#utility.yul\":15709:15738   */\n      swap1\n      pop\n        /* \"#utility.yul\":15449:15744   */\n      swap3\n      swap2\n      pop\n      pop\n      jump\t// out\n        /* \"#utility.yul\":15749:17144   */\n    tag_82:\n        /* \"#utility.yul\":15866:15903   */\n      tag_371\n        /* \"#utility.yul\":15899:15902   */\n      dup3\n        /* \"#utility.yul\":15866:15903   */\n      tag_150\n      jump\t// in\n    tag_371:\n        /* \"#utility.yul\":15968:15986   */\n      0xffffffffffffffff\n        /* \"#utility.yul\":15960:15966   */\n      dup2\n        /* \"#utility.yul\":15957:15987   */\n      gt\n        /* \"#utility.yul\":15954:16010   */\n      iszero\n      tag_372\n      jumpi\n        /* \"#utility.yul\":15990:16008   */\n      tag_373\n      tag_139\n      jump\t// in\n    tag_373:\n        /* \"#utility.yul\":15954:16010   */\n    tag_372:\n        /* \"#utility.yul\":16034:16072   */\n      tag_374\n        /* \"#utility.yul\":16066:16070   */\n      dup3\n        /* \"#utility.yul\":16060:16071   */\n      sload\n        /* \"#utility.yul\":16034:16072   */\n      tag_84\n      jump\t// in\n    tag_374:\n        /* \"#utility.yul\":16119:16186   */\n      tag_375\n        /* \"#utility.yul\":16179:16185   */\n      dup3\n        /* \"#utility.yul\":16171:16177   */\n      dup3\n        /* \"#utility.yul\":16165:16169   */\n      dup6\n        /* \"#utility.yul\":16119:16186   */\n      tag_176\n      jump\t// in\n    tag_375:\n        /* \"#utility.yul\":16213:16214   */\n      0x00\n        /* \"#utility.yul\":16237:16241   */\n      0x20\n        /* \"#utility.yul\":16224:16241   */\n      swap1\n      pop\n        /* \"#utility.yul\":16269:16271   */\n      0x1f\n        /* \"#utility.yul\":16261:16267   */\n      dup4\n        /* \"#utility.yul\":16258:16272   */\n      gt\n        /* \"#utility.yul\":16286:16287   */\n      0x01\n        /* \"#utility.yul\":16281:16899   */\n      dup2\n      eq\n      tag_377\n      jumpi\n        /* \"#utility.yul\":16943:16944   */\n      0x00\n        /* \"#utility.yul\":16960:16966   */\n      dup5\n        /* \"#utility.yul\":16957:17034   */\n      iszero\n      tag_378\n      jumpi\n        /* \"#utility.yul\":17009:17018   */\n      dup3\n        /* \"#utility.yul\":17004:17007   */\n      dup8\n        /* \"#utility.yul\":17000:17019   */\n      add\n        /* \"#utility.yul\":16994:17020   */\n      mload\n        /* \"#utility.yul\":16985:17020   */\n      swap1\n      pop\n        /* \"#utility.yul\":16957:17034   */\n    tag_378:\n        /* \"#utility.yul\":17060:17127   */\n      tag_379\n        /* \"#utility.yul\":17120:17126   */\n      dup6\n        /* \"#utility.yul\":17113:17118   */\n      dup3\n        /* \"#utility.yul\":17060:17127   */\n      tag_179\n      jump\t// in\n    tag_379:\n        /* \"#utility.yul\":17054:17058   */\n      dup7\n        /* \"#utility.yul\":17047:17128   */\n      sstore\n        /* \"#utility.yul\":16916:17138   */\n      pop\n        /* \"#utility.yul\":16251:17138   */\n      jump(tag_376)\n        /* \"#utility.yul\":16281:16899   */\n    tag_377:\n        /* \"#utility.yul\":16333:16337   */\n      0x1f\n        /* \"#utility.yul\":16329:16338   */\n      not\n        /* \"#utility.yul\":16321:16327   */\n      dup5\n        /* \"#utility.yul\":16317:16339   */\n      and\n        /* \"#utility.yul\":16367:16404   */\n      tag_380\n        /* \"#utility.yul\":16399:16403   */\n      dup7\n        /* \"#utility.yul\":16367:16404   */\n      tag_165\n      jump\t// in\n    tag_380:\n        /* \"#utility.yul\":16426:16427   */\n      0x00\n        /* \"#utility.yul\":16440:16648   */\n    tag_381:\n        /* \"#utility.yul\":16454:16461   */\n      dup3\n        /* \"#utility.yul\":16451:16452   */\n      dup2\n        /* \"#utility.yul\":16448:16462   */\n      lt\n        /* \"#utility.yul\":16440:16648   */\n      iszero\n      tag_383\n      jumpi\n        /* \"#utility.yul\":16533:16542   */\n      dup5\n        /* \"#utility.yul\":16528:16531   */\n      dup10\n        /* \"#utility.yul\":16524:16543   */\n      add\n        /* \"#utility.yul\":16518:16544   */\n      mload\n        /* \"#utility.yul\":16510:16516   */\n      dup3\n        /* \"#utility.yul\":16503:16545   */\n      sstore\n        /* \"#utility.yul\":16584:16585   */\n      0x01\n        /* \"#utility.yul\":16576:16582   */\n      dup3\n        /* \"#utility.yul\":16572:16586   */\n      add\n        /* \"#utility.yul\":16562:16586   */\n      swap2\n      pop\n        /* \"#utility.yul\":16631:16633   */\n      0x20\n        /* \"#utility.yul\":16620:16629   */\n      dup6\n        /* \"#utility.yul\":16616:16634   */\n      add\n        /* \"#utility.yul\":16603:16634   */\n      swap5\n      pop\n        /* \"#utility.yul\":16477:16481   */\n      0x20\n        /* \"#utility.yul\":16474:16475   */\n      dup2\n        /* \"#utility.yul\":16470:16482   */\n      add\n        /* \"#utility.yul\":16465:16482   */\n      swap1\n      pop\n        /* \"#utility.yul\":16440:16648   */\n      jump(tag_381)\n    tag_383:\n        /* \"#utility.yul\":16676:16682   */\n      dup7\n        /* \"#utility.yul\":16667:16674   */\n      dup4\n        /* \"#utility.yul\":16664:16683   */\n      lt\n        /* \"#utility.yul\":16661:16840   */\n      iszero\n      tag_384\n      jumpi\n        /* \"#utility.yul\":16734:16743   */\n      dup5\n        /* \"#utility.yul\":16729:16732   */\n      dup10\n        /* \"#utility.yul\":16725:16744   */\n      add\n        /* \"#utility.yul\":16719:16745   */\n      mload\n        /* \"#utility.yul\":16777:16825   */\n      tag_385\n        /* \"#utility.yul\":16819:16823   */\n      0x1f\n        /* \"#utility.yul\":16811:16817   */\n      dup10\n        /* \"#utility.yul\":16807:16824   */\n      and\n        /* \"#utility.yul\":16796:16805   */\n      dup3\n        /* \"#utility.yul\":16777:16825   */\n      tag_178\n      jump\t// in\n    tag_385:\n        /* \"#utility.yul\":16769:16775   */\n      dup4\n        /* \"#utility.yul\":16762:16826   */\n      sstore\n        /* \"#utility.yul\":16684:16840   */\n      pop\n        /* \"#utility.yul\":16661:16840   */\n    tag_384:\n        /* \"#utility.yul\":16886:16887   */\n      0x01\n        /* \"#utility.yul\":16882:16883   */\n      0x02\n        /* \"#utility.yul\":16874:16880   */\n      dup9\n        /* \"#utility.yul\":16870:16884   */\n      mul\n        /* \"#utility.yul\":16866:16888   */\n      add\n        /* \"#utility.yul\":16860:16864   */\n      dup9\n        /* \"#utility.yul\":16853:16889   */\n      sstore\n        /* \"#utility.yul\":16288:16899   */\n      pop\n      pop\n      pop\n        /* \"#utility.yul\":16251:17138   */\n    tag_376:\n      pop\n        /* \"#utility.yul\":15841:17144   */\n      pop\n      pop\n      pop\n        /* \"#utility.yul\":15749:17144   */\n      pop\n      pop\n      jump\t// out\n        /* \"#utility.yul\":17150:17384   */\n    tag_180:\n        /* \"#utility.yul\":17290:17324   */\n      0x4f6e6c792074686520696e7374727563746f72206f7220612054412063616e20\n        /* \"#utility.yul\":17286:17287   */\n      0x00\n        /* \"#utility.yul\":17278:17284   */\n      dup3\n        /* \"#utility.yul\":17274:17288   */\n      add\n        /* \"#utility.yul\":17267:17325   */\n      mstore\n        /* \"#utility.yul\":17359:17376   */\n      0x6765742074686520617665726167650000000000000000000000000000000000\n        /* \"#utility.yul\":17354:17356   */\n      0x20\n        /* \"#utility.yul\":17346:17352   */\n      dup3\n        /* \"#utility.yul\":17342:17357   */\n      add\n        /* \"#utility.yul\":17335:17377   */\n      mstore\n        /* \"#utility.yul\":17150:17384   */\n      pop\n      jump\t// out\n        /* \"#utility.yul\":17390:17756   */\n    tag_181:\n        /* \"#utility.yul\":17532:17535   */\n      0x00\n        /* \"#utility.yul\":17553:17620   */\n      tag_388\n        /* \"#utility.yul\":17617:17619   */\n      0x2f\n        /* \"#utility.yul\":17612:17615   */\n      dup4\n        /* \"#utility.yul\":17553:17620   */\n      tag_151\n      jump\t// in\n    tag_388:\n        /* \"#utility.yul\":17546:17620   */\n      swap2\n      pop\n        /* \"#utility.yul\":17629:17722   */\n      tag_389\n        /* \"#utility.yul\":17718:17721   */\n      dup3\n        /* \"#utility.yul\":17629:17722   */\n      tag_180\n      jump\t// in\n    tag_389:\n        /* \"#utility.yul\":17747:17749   */\n      0x40\n        /* \"#utility.yul\":17742:17745   */\n      dup3\n        /* \"#utility.yul\":17738:17750   */\n      add\n        /* \"#utility.yul\":17731:17750   */\n      swap1\n      pop\n        /* \"#utility.yul\":17390:17756   */\n      swap2\n      swap1\n      pop\n      jump\t// out\n        /* \"#utility.yul\":17762:18181   */\n    tag_93:\n        /* \"#utility.yul\":17928:17932   */\n      0x00\n        /* \"#utility.yul\":17966:17968   */\n      0x20\n        /* \"#utility.yul\":17955:17964   */\n      dup3\n        /* \"#utility.yul\":17951:17969   */\n      add\n        /* \"#utility.yul\":17943:17969   */\n      swap1\n      pop\n        /* \"#utility.yul\":18015:18024   */\n      dup2\n        /* \"#utility.yul\":18009:18013   */\n      dup2\n        /* \"#utility.yul\":18005:18025   */\n      sub\n        /* \"#utility.yul\":18001:18002   */\n      0x00\n        /* \"#utility.yul\":17990:17999   */\n      dup4\n        /* \"#utility.yul\":17986:18003   */\n      add\n        /* \"#utility.yul\":17979:18026   */\n      mstore\n        /* \"#utility.yul\":18043:18174   */\n      tag_391\n        /* \"#utility.yul\":18169:18173   */\n      dup2\n        /* \"#utility.yul\":18043:18174   */\n      tag_181\n      jump\t// in\n    tag_391:\n        /* \"#utility.yul\":18035:18174   */\n      swap1\n      pop\n        /* \"#utility.yul\":17762:18181   */\n      swap2\n      swap1\n      pop\n      jump\t// out\n        /* \"#utility.yul\":18187:18335   */\n    tag_182:\n        /* \"#utility.yul\":18289:18300   */\n      0x00\n        /* \"#utility.yul\":18326:18329   */\n      dup2\n        /* \"#utility.yul\":18311:18329   */\n      swap1\n      pop\n        /* \"#utility.yul\":18187:18335   */\n      swap3\n      swap2\n      pop\n      pop\n      jump\t// out\n        /* \"#utility.yul\":18341:18731   */\n    tag_183:\n        /* \"#utility.yul\":18447:18450   */\n      0x00\n        /* \"#utility.yul\":18475:18514   */\n      tag_394\n        /* \"#utility.yul\":18508:18513   */\n      dup3\n        /* \"#utility.yul\":18475:18514   */\n      tag_150\n      jump\t// in\n    tag_394:\n        /* \"#utility.yul\":18530:18619   */\n      tag_395\n        /* \"#utility.yul\":18612:18618   */\n      dup2\n        /* \"#utility.yul\":18607:18610   */\n      dup6\n        /* \"#utility.yul\":18530:18619   */\n      tag_182\n      jump\t// in\n    tag_395:\n        /* \"#utility.yul\":18523:18619   */\n      swap4\n      pop\n        /* \"#utility.yul\":18628:18693   */\n      tag_396\n        /* \"#utility.yul\":18686:18692   */\n      dup2\n        /* \"#utility.yul\":18681:18684   */\n      dup6\n        /* \"#utility.yul\":18674:18678   */\n      0x20\n        /* \"#utility.yul\":18667:18672   */\n      dup7\n        /* \"#utility.yul\":18663:18679   */\n      add\n        /* \"#utility.yul\":18628:18693   */\n      tag_152\n      jump\t// in\n    tag_396:\n        /* \"#utility.yul\":18718:18724   */\n      dup1\n        /* \"#utility.yul\":18713:18716   */\n      dup5\n        /* \"#utility.yul\":18709:18725   */\n      add\n        /* \"#utility.yul\":18702:18725   */\n      swap2\n      pop\n        /* \"#utility.yul\":18451:18731   */\n      pop\n        /* \"#utility.yul\":18341:18731   */\n      swap3\n      swap2\n      pop\n      pop\n      jump\t// out\n        /* \"#utility.yul\":18737:19012   */\n    tag_98:\n        /* \"#utility.yul\":18869:18872   */\n      0x00\n        /* \"#utility.yul\":18891:18986   */\n      tag_398\n        /* \"#utility.yul\":18982:18985   */\n      dup3\n        /* \"#utility.yul\":18973:18979   */\n      dup5\n        /* \"#utility.yul\":18891:18986   */\n      tag_183\n      jump\t// in\n    tag_398:\n        /* \"#utility.yul\":18884:18986   */\n      swap2\n      pop\n        /* \"#utility.yul\":19003:19006   */\n      dup2\n        /* \"#utility.yul\":18996:19006   */\n      swap1\n      pop\n        /* \"#utility.yul\":18737:19012   */\n      swap3\n      swap2\n      pop\n      pop\n      jump\t// out\n        /* \"#utility.yul\":19018:19209   */\n    tag_100:\n        /* \"#utility.yul\":19058:19061   */\n      0x00\n        /* \"#utility.yul\":19077:19097   */\n      tag_400\n        /* \"#utility.yul\":19095:19096   */\n      dup3\n        /* \"#utility.yul\":19077:19097   */\n      tag_146\n      jump\t// in\n    tag_400:\n        /* \"#utility.yul\":19072:19097   */\n      swap2\n      pop\n        /* \"#utility.yul\":19111:19131   */\n      tag_401\n        /* \"#utility.yul\":19129:19130   */\n      dup4\n        /* \"#utility.yul\":19111:19131   */\n      tag_146\n      jump\t// in\n    tag_401:\n        /* \"#utility.yul\":19106:19131   */\n      swap3\n      pop\n        /* \"#utility.yul\":19154:19155   */\n      dup3\n        /* \"#utility.yul\":19151:19152   */\n      dup3\n        /* \"#utility.yul\":19147:19156   */\n      add\n        /* \"#utility.yul\":19140:19156   */\n      swap1\n      pop\n        /* \"#utility.yul\":19175:19178   */\n      dup1\n        /* \"#utility.yul\":19172:19173   */\n      dup3\n        /* \"#utility.yul\":19169:19179   */\n      gt\n        /* \"#utility.yul\":19166:19202   */\n      iszero\n      tag_402\n      jumpi\n        /* \"#utility.yul\":19182:19200   */\n      tag_403\n      tag_163\n      jump\t// in\n    tag_403:\n        /* \"#utility.yul\":19166:19202   */\n    tag_402:\n        /* \"#utility.yul\":19018:19209   */\n      swap3\n      swap2\n      pop\n      pop\n      jump\t// out\n        /* \"#utility.yul\":19215:19625   */\n    tag_104:\n        /* \"#utility.yul\":19255:19262   */\n      0x00\n        /* \"#utility.yul\":19278:19298   */\n      tag_405\n        /* \"#utility.yul\":19296:19297   */\n      dup3\n        /* \"#utility.yul\":19278:19298   */\n      tag_146\n      jump\t// in\n    tag_405:\n        /* \"#utility.yul\":19273:19298   */\n      swap2\n      pop\n        /* \"#utility.yul\":19312:19332   */\n      tag_406\n        /* \"#utility.yul\":19330:19331   */\n      dup4\n        /* \"#utility.yul\":19312:19332   */\n      tag_146\n      jump\t// in\n    tag_406:\n        /* \"#utility.yul\":19307:19332   */\n      swap3\n      pop\n        /* \"#utility.yul\":19367:19368   */\n      dup3\n        /* \"#utility.yul\":19364:19365   */\n      dup3\n        /* \"#utility.yul\":19360:19369   */\n      mul\n        /* \"#utility.yul\":19389:19419   */\n      tag_407\n        /* \"#utility.yul\":19407:19418   */\n      dup2\n        /* \"#utility.yul\":19389:19419   */\n      tag_146\n      jump\t// in\n    tag_407:\n        /* \"#utility.yul\":19378:19419   */\n      swap2\n      pop\n        /* \"#utility.yul\":19568:19569   */\n      dup3\n        /* \"#utility.yul\":19559:19566   */\n      dup3\n        /* \"#utility.yul\":19555:19570   */\n      div\n        /* \"#utility.yul\":19552:19553   */\n      dup5\n        /* \"#utility.yul\":19549:19571   */\n      eq\n        /* \"#utility.yul\":19529:19530   */\n      dup4\n        /* \"#utility.yul\":19522:19531   */\n      iszero\n        /* \"#utility.yul\":19502:19585   */\n      or\n        /* \"#utility.yul\":19479:19618   */\n      tag_408\n      jumpi\n        /* \"#utility.yul\":19598:19616   */\n      tag_409\n      tag_163\n      jump\t// in\n    tag_409:\n        /* \"#utility.yul\":19479:19618   */\n    tag_408:\n        /* \"#utility.yul\":19263:19625   */\n      pop\n        /* \"#utility.yul\":19215:19625   */\n      swap3\n      swap2\n      pop\n      pop\n      jump\t// out\n        /* \"#utility.yul\":19631:19811   */\n    tag_184:\n        /* \"#utility.yul\":19679:19756   */\n      0x4e487b7100000000000000000000000000000000000000000000000000000000\n        /* \"#utility.yul\":19676:19677   */\n      0x00\n        /* \"#utility.yul\":19669:19757   */\n      mstore\n        /* \"#utility.yul\":19776:19780   */\n      0x12\n        /* \"#utility.yul\":19773:19774   */\n      0x04\n        /* \"#utility.yul\":19766:19781   */\n      mstore\n        /* \"#utility.yul\":19800:19804   */\n      0x24\n        /* \"#utility.yul\":19797:19798   */\n      0x00\n        /* \"#utility.yul\":19790:19805   */\n      revert\n        /* \"#utility.yul\":19817:20002   */\n    tag_106:\n        /* \"#utility.yul\":19857:19858   */\n      0x00\n        /* \"#utility.yul\":19874:19894   */\n      tag_412\n        /* \"#utility.yul\":19892:19893   */\n      dup3\n        /* \"#utility.yul\":19874:19894   */\n      tag_146\n      jump\t// in\n    tag_412:\n        /* \"#utility.yul\":19869:19894   */\n      swap2\n      pop\n        /* \"#utility.yul\":19908:19928   */\n      tag_413\n        /* \"#utility.yul\":19926:19927   */\n      dup4\n        /* \"#utility.yul\":19908:19928   */\n      tag_146\n      jump\t// in\n    tag_413:\n        /* \"#utility.yul\":19903:19928   */\n      swap3\n      pop\n        /* \"#utility.yul\":19947:19948   */\n      dup3\n        /* \"#utility.yul\":19937:19972   */\n      tag_414\n      jumpi\n        /* \"#utility.yul\":19952:19970   */\n      tag_415\n      tag_184\n      jump\t// in\n    tag_415:\n        /* \"#utility.yul\":19937:19972   */\n    tag_414:\n        /* \"#utility.yul\":19994:19995   */\n      dup3\n        /* \"#utility.yul\":19991:19992   */\n      dup3\n        /* \"#utility.yul\":19987:19996   */\n      div\n        /* \"#utility.yul\":19982:19996   */\n      swap1\n      pop\n        /* \"#utility.yul\":19817:20002   */\n      swap3\n      swap2\n      pop\n      pop\n      jump\t// out\n        /* \"#utility.yul\":20008:20238   */\n    tag_185:\n        /* \"#utility.yul\":20148:20182   */\n      0x4f6e6c792074686520696e7374727563746f72206f7220612054412063616e20\n        /* \"#utility.yul\":20144:20145   */\n      0x00\n        /* \"#utility.yul\":20136:20142   */\n      dup3\n        /* \"#utility.yul\":20132:20146   */\n      add\n        /* \"#utility.yul\":20125:20183   */\n      mstore\n        /* \"#utility.yul\":20217:20230   */\n      0x6164642061206772616465000000000000000000000000000000000000000000\n        /* \"#utility.yul\":20212:20214   */\n      0x20\n        /* \"#utility.yul\":20204:20210   */\n      dup3\n        /* \"#utility.yul\":20200:20215   */\n      add\n        /* \"#utility.yul\":20193:20231   */\n      mstore\n        /* \"#utility.yul\":20008:20238   */\n      pop\n      jump\t// out\n        /* \"#utility.yul\":20244:20610   */\n    tag_186:\n        /* \"#utility.yul\":20386:20389   */\n      0x00\n        /* \"#utility.yul\":20407:20474   */\n      tag_418\n        /* \"#utility.yul\":20471:20473   */\n      0x2b\n        /* \"#utility.yul\":20466:20469   */\n      dup4\n        /* \"#utility.yul\":20407:20474   */\n      tag_151\n      jump\t// in\n    tag_418:\n        /* \"#utility.yul\":20400:20474   */\n      swap2\n      pop\n        /* \"#utility.yul\":20483:20576   */\n      tag_419\n        /* \"#utility.yul\":20572:20575   */\n      dup3\n        /* \"#utility.yul\":20483:20576   */\n      tag_185\n      jump\t// in\n    tag_419:\n        /* \"#utility.yul\":20601:20603   */\n      0x40\n        /* \"#utility.yul\":20596:20599   */\n      dup3\n        /* \"#utility.yul\":20592:20604   */\n      add\n        /* \"#utility.yul\":20585:20604   */\n      swap1\n      pop\n        /* \"#utility.yul\":20244:20610   */\n      swap2\n      swap1\n      pop\n      jump\t// out\n        /* \"#utility.yul\":20616:21035   */\n    tag_111:\n        /* \"#utility.yul\":20782:20786   */\n      0x00\n        /* \"#utility.yul\":20820:20822   */\n      0x20\n        /* \"#utility.yul\":20809:20818   */\n      dup3\n        /* \"#utility.yul\":20805:20823   */\n      add\n        /* \"#utility.yul\":20797:20823   */\n      swap1\n      pop\n        /* \"#utility.yul\":20869:20878   */\n      dup2\n        /* \"#utility.yul\":20863:20867   */\n      dup2\n        /* \"#utility.yul\":20859:20879   */\n      sub\n        /* \"#utility.yul\":20855:20856   */\n      0x00\n        /* \"#utility.yul\":20844:20853   */\n      dup4\n        /* \"#utility.yul\":20840:20857   */\n      add\n        /* \"#utility.yul\":20833:20880   */\n      mstore\n        /* \"#utility.yul\":20897:21028   */\n      tag_421\n        /* \"#utility.yul\":21023:21027   */\n      dup2\n        /* \"#utility.yul\":20897:21028   */\n      tag_186\n      jump\t// in\n    tag_421:\n        /* \"#utility.yul\":20889:21028   */\n      swap1\n      pop\n        /* \"#utility.yul\":20616:21035   */\n      swap2\n      swap1\n      pop\n      jump\t// out\n        /* \"#utility.yul\":21041:21216   */\n    tag_187:\n        /* \"#utility.yul\":21181:21208   */\n      0x41737369676e6d656e7420646f6573206e6f7420657869737400000000000000\n        /* \"#utility.yul\":21177:21178   */\n      0x00\n        /* \"#utility.yul\":21169:21175   */\n      dup3\n        /* \"#utility.yul\":21165:21179   */\n      add\n        /* \"#utility.yul\":21158:21209   */\n      mstore\n        /* \"#utility.yul\":21041:21216   */\n      pop\n      jump\t// out\n        /* \"#utility.yul\":21222:21588   */\n    tag_188:\n        /* \"#utility.yul\":21364:21367   */\n      0x00\n        /* \"#utility.yul\":21385:21452   */\n      tag_424\n        /* \"#utility.yul\":21449:21451   */\n      0x19\n        /* \"#utility.yul\":21444:21447   */\n      dup4\n        /* \"#utility.yul\":21385:21452   */\n      tag_151\n      jump\t// in\n    tag_424:\n        /* \"#utility.yul\":21378:21452   */\n      swap2\n      pop\n        /* \"#utility.yul\":21461:21554   */\n      tag_425\n        /* \"#utility.yul\":21550:21553   */\n      dup3\n        /* \"#utility.yul\":21461:21554   */\n      tag_187\n      jump\t// in\n    tag_425:\n        /* \"#utility.yul\":21579:21581   */\n      0x20\n        /* \"#utility.yul\":21574:21577   */\n      dup3\n        /* \"#utility.yul\":21570:21582   */\n      add\n        /* \"#utility.yul\":21563:21582   */\n      swap1\n      pop\n        /* \"#utility.yul\":21222:21588   */\n      swap2\n      swap1\n      pop\n      jump\t// out\n        /* \"#utility.yul\":21594:22013   */\n    tag_114:\n        /* \"#utility.yul\":21760:21764   */\n      0x00\n        /* \"#utility.yul\":21798:21800   */\n      0x20\n        /* \"#utility.yul\":21787:21796   */\n      dup3\n        /* \"#utility.yul\":21783:21801   */\n      add\n        /* \"#utility.yul\":21775:21801   */\n      swap1\n      pop\n        /* \"#utility.yul\":21847:21856   */\n      dup2\n        /* \"#utility.yul\":21841:21845   */\n      dup2\n        /* \"#utility.yul\":21837:21857   */\n      sub\n        /* \"#utility.yul\":21833:21834   */\n      0x00\n        /* \"#utility.yul\":21822:21831   */\n      dup4\n        /* \"#utility.yul\":21818:21835   */\n      add\n        /* \"#utility.yul\":21811:21858   */\n      mstore\n        /* \"#utility.yul\":21875:22006   */\n      tag_427\n        /* \"#utility.yul\":22001:22005   */\n      dup2\n        /* \"#utility.yul\":21875:22006   */\n      tag_188\n      jump\t// in\n    tag_427:\n        /* \"#utility.yul\":21867:22006   */\n      swap1\n      pop\n        /* \"#utility.yul\":21594:22013   */\n      swap2\n      swap1\n      pop\n      jump\t// out\n        /* \"#utility.yul\":22019:22244   */\n    tag_189:\n        /* \"#utility.yul\":22159:22193   */\n      0x53636f72652063616e6e6f742062652067726561746572207468616e206d6178\n        /* \"#utility.yul\":22155:22156   */\n      0x00\n        /* \"#utility.yul\":22147:22153   */\n      dup3\n        /* \"#utility.yul\":22143:22157   */\n      add\n        /* \"#utility.yul\":22136:22194   */\n      mstore\n        /* \"#utility.yul\":22228:22236   */\n      0x2073636f72650000000000000000000000000000000000000000000000000000\n        /* \"#utility.yul\":22223:22225   */\n      0x20\n        /* \"#utility.yul\":22215:22221   */\n      dup3\n        /* \"#utility.yul\":22211:22226   */\n      add\n        /* \"#utility.yul\":22204:22237   */\n      mstore\n        /* \"#utility.yul\":22019:22244   */\n      pop\n      jump\t// out\n        /* \"#utility.yul\":22250:22616   */\n    tag_190:\n        /* \"#utility.yul\":22392:22395   */\n      0x00\n        /* \"#utility.yul\":22413:22480   */\n      tag_430\n        /* \"#utility.yul\":22477:22479   */\n      0x26\n        /* \"#utility.yul\":22472:22475   */\n      dup4\n        /* \"#utility.yul\":22413:22480   */\n      tag_151\n      jump\t// in\n    tag_430:\n        /* \"#utility.yul\":22406:22480   */\n      swap2\n      pop\n        /* \"#utility.yul\":22489:22582   */\n      tag_431\n        /* \"#utility.yul\":22578:22581   */\n      dup3\n        /* \"#utility.yul\":22489:22582   */\n      tag_189\n      jump\t// in\n    tag_431:\n        /* \"#utility.yul\":22607:22609   */\n      0x40\n        /* \"#utility.yul\":22602:22605   */\n      dup3\n        /* \"#utility.yul\":22598:22610   */\n      add\n        /* \"#utility.yul\":22591:22610   */\n      swap1\n      pop\n        /* \"#utility.yul\":22250:22616   */\n      swap2\n      swap1\n      pop\n      jump\t// out\n        /* \"#utility.yul\":22622:23041   */\n    tag_117:\n        /* \"#utility.yul\":22788:22792   */\n      0x00\n        /* \"#utility.yul\":22826:22828   */\n      0x20\n        /* \"#utility.yul\":22815:22824   */\n      dup3\n        /* \"#utility.yul\":22811:22829   */\n      add\n        /* \"#utility.yul\":22803:22829   */\n      swap1\n      pop\n        /* \"#utility.yul\":22875:22884   */\n      dup2\n        /* \"#utility.yul\":22869:22873   */\n      dup2\n        /* \"#utility.yul\":22865:22885   */\n      sub\n        /* \"#utility.yul\":22861:22862   */\n      0x00\n        /* \"#utility.yul\":22850:22859   */\n      dup4\n        /* \"#utility.yul\":22846:22863   */\n      add\n        /* \"#utility.yul\":22839:22886   */\n      mstore\n        /* \"#utility.yul\":22903:23034   */\n      tag_433\n        /* \"#utility.yul\":23029:23033   */\n      dup2\n        /* \"#utility.yul\":22903:23034   */\n      tag_190\n      jump\t// in\n    tag_433:\n        /* \"#utility.yul\":22895:23034   */\n      swap1\n      pop\n        /* \"#utility.yul\":22622:23041   */\n      swap2\n      swap1\n      pop\n      jump\t// out\n        /* \"#utility.yul\":23047:23273   */\n    tag_191:\n        /* \"#utility.yul\":23187:23221   */\n      0x54686520696e7374727563746f722063616e6e6f742072657175657374205441\n        /* \"#utility.yul\":23183:23184   */\n      0x00\n        /* \"#utility.yul\":23175:23181   */\n      dup3\n        /* \"#utility.yul\":23171:23185   */\n      add\n        /* \"#utility.yul\":23164:23222   */\n      mstore\n        /* \"#utility.yul\":23256:23265   */\n      0x2061636365737300000000000000000000000000000000000000000000000000\n        /* \"#utility.yul\":23251:23253   */\n      0x20\n        /* \"#utility.yul\":23243:23249   */\n      dup3\n        /* \"#utility.yul\":23239:23254   */\n      add\n        /* \"#utility.yul\":23232:23266   */\n      mstore\n        /* \"#utility.yul\":23047:23273   */\n      pop\n      jump\t// out\n        /* \"#utility.yul\":23279:23645   */\n    tag_192:\n        /* \"#utility.yul\":23421:23424   */\n      0x00\n        /* \"#utility.yul\":23442:23509   */\n      tag_436\n        /* \"#utility.yul\":23506:23508   */\n      0x27\n        /* \"#utility.yul\":23501:23504   */\n      dup4\n        /* \"#utility.yul\":23442:23509   */\n      tag_151\n      jump\t// in\n    tag_436:\n        /* \"#utility.yul\":23435:23509   */\n      swap2\n      pop\n        /* \"#utility.yul\":23518:23611   */\n      tag_437\n        /* \"#utility.yul\":23607:23610   */\n      dup3\n        /* \"#utility.yul\":23518:23611   */\n      tag_191\n      jump\t// in\n    tag_437:\n        /* \"#utility.yul\":23636:23638   */\n      0x40\n        /* \"#utility.yul\":23631:23634   */\n      dup3\n        /* \"#utility.yul\":23627:23639   */\n      add\n        /* \"#utility.yul\":23620:23639   */\n      swap1\n      pop\n        /* \"#utility.yul\":23279:23645   */\n      swap2\n      swap1\n      pop\n      jump\t// out\n        /* \"#utility.yul\":23651:24070   */\n    tag_122:\n        /* \"#utility.yul\":23817:23821   */\n      0x00\n        /* \"#utility.yul\":23855:23857   */\n      0x20\n        /* \"#utility.yul\":23844:23853   */\n      dup3\n        /* \"#utility.yul\":23840:23858   */\n      add\n        /* \"#utility.yul\":23832:23858   */\n      swap1\n      pop\n        /* \"#utility.yul\":23904:23913   */\n      dup2\n        /* \"#utility.yul\":23898:23902   */\n      dup2\n        /* \"#utility.yul\":23894:23914   */\n      sub\n        /* \"#utility.yul\":23890:23891   */\n      0x00\n        /* \"#utility.yul\":23879:23888   */\n      dup4\n        /* \"#utility.yul\":23875:23892   */\n      add\n        /* \"#utility.yul\":23868:23915   */\n      mstore\n        /* \"#utility.yul\":23932:24063   */\n      tag_439\n        /* \"#utility.yul\":24058:24062   */\n      dup2\n        /* \"#utility.yul\":23932:24063   */\n      tag_192\n      jump\t// in\n    tag_439:\n        /* \"#utility.yul\":23924:24063   */\n      swap1\n      pop\n        /* \"#utility.yul\":23651:24070   */\n      swap2\n      swap1\n      pop\n      jump\t// out\n        /* \"#utility.yul\":24076:24309   */\n    tag_193:\n        /* \"#utility.yul\":24216:24250   */\n      0x4f6e6c792074686520696e7374727563746f72206f7220612054412063616e20\n        /* \"#utility.yul\":24212:24213   */\n      0x00\n        /* \"#utility.yul\":24204:24210   */\n      dup3\n        /* \"#utility.yul\":24200:24214   */\n      add\n        /* \"#utility.yul\":24193:24251   */\n      mstore\n        /* \"#utility.yul\":24285:24301   */\n      0x64657369676e6174652061205441000000000000000000000000000000000000\n        /* \"#utility.yul\":24280:24282   */\n      0x20\n        /* \"#utility.yul\":24272:24278   */\n      dup3\n        /* \"#utility.yul\":24268:24283   */\n      add\n        /* \"#utility.yul\":24261:24302   */\n      mstore\n        /* \"#utility.yul\":24076:24309   */\n      pop\n      jump\t// out\n        /* \"#utility.yul\":24315:24681   */\n    tag_194:\n        /* \"#utility.yul\":24457:24460   */\n      0x00\n        /* \"#utility.yul\":24478:24545   */\n      tag_442\n        /* \"#utility.yul\":24542:24544   */\n      0x2e\n        /* \"#utility.yul\":24537:24540   */\n      dup4\n        /* \"#utility.yul\":24478:24545   */\n      tag_151\n      jump\t// in\n    tag_442:\n        /* \"#utility.yul\":24471:24545   */\n      swap2\n      pop\n        /* \"#utility.yul\":24554:24647   */\n      tag_443\n        /* \"#utility.yul\":24643:24646   */\n      dup3\n        /* \"#utility.yul\":24554:24647   */\n      tag_193\n      jump\t// in\n    tag_443:\n        /* \"#utility.yul\":24672:24674   */\n      0x40\n        /* \"#utility.yul\":24667:24670   */\n      dup3\n        /* \"#utility.yul\":24663:24675   */\n      add\n        /* \"#utility.yul\":24656:24675   */\n      swap1\n      pop\n        /* \"#utility.yul\":24315:24681   */\n      swap2\n      swap1\n      pop\n      jump\t// out\n        /* \"#utility.yul\":24687:25106   */\n    tag_127:\n        /* \"#utility.yul\":24853:24857   */\n      0x00\n        /* \"#utility.yul\":24891:24893   */\n      0x20\n        /* \"#utility.yul\":24880:24889   */\n      dup3\n        /* \"#utility.yul\":24876:24894   */\n      add\n        /* \"#utility.yul\":24868:24894   */\n      swap1\n      pop\n        /* \"#utility.yul\":24940:24949   */\n      dup2\n        /* \"#utility.yul\":24934:24938   */\n      dup2\n        /* \"#utility.yul\":24930:24950   */\n      sub\n        /* \"#utility.yul\":24926:24927   */\n      0x00\n        /* \"#utility.yul\":24915:24924   */\n      dup4\n        /* \"#utility.yul\":24911:24928   */\n      add\n        /* \"#utility.yul\":24904:24951   */\n      mstore\n        /* \"#utility.yul\":24968:25099   */\n      tag_445\n        /* \"#utility.yul\":25094:25098   */\n      dup2\n        /* \"#utility.yul\":24968:25099   */\n      tag_194\n      jump\t// in\n    tag_445:\n        /* \"#utility.yul\":24960:25099   */\n      swap1\n      pop\n        /* \"#utility.yul\":24687:25106   */\n      swap2\n      swap1\n      pop\n      jump\t// out\n\n    auxdata: 0xa264697066735822122080e581be8c852d5a2bfbf76b8ca80fc940fe0953bca1f70e7a7a7caa2b1d485064736f6c63430008110033\n}\n",
				"bytecode": {
					"linkReferences": {},
					"object": "608060405234801561001057600080fd5b5033600460006101000a81548173ffffffffffffffffffffffffffffffffffffffff021916908373ffffffffffffffffffffffffffffffffffffffff160217905550611a24806100616000396000f3fe608060405234801561001057600080fd5b50600436106100b45760003560e01c806377ca29471161007157806377ca2947146101b35780637fc29673146101e35780639cfeb679146101ed578063a30254e714610209578063c7a9f77b14610239578063dfd68b9114610257576100b4565b806301ffc9a7146100b9578063077f3b02146100e957806353acf8831461011957806365dd2f691461014957806371ae413d146101795780637241d75f14610197575b600080fd5b6100d360048036038101906100ce9190610c30565b610287565b6040516100e09190610c78565b60405180910390f35b61010360048036038101906100fe9190610e0f565b610321565b6040516101109190610e7a565b60405180910390f35b610133600480360381019061012e9190610e95565b6104da565b6040516101409190610f41565b60405180910390f35b610163600480360381019061015e9190610f63565b61057a565b6040516101709190610e7a565b60405180910390f35b61018161070d565b60405161018e9190610fed565b60405180910390f35b6101b160048036038101906101ac9190611008565b610733565b005b6101cd60048036038101906101c89190611077565b61091e565b6040516101da9190610e7a565b60405180910390f35b6101eb610959565b005b610207600480360381019061020291906110ff565b610a42565b005b610223600480360381019061021e91906110ff565b610b86565b6040516102309190610c78565b60405180910390f35b610241610ba6565b60405161024e9190610e7a565b60405180910390f35b610271600480360381019061026c9190610e95565b610bac565b60405161027e9190610e7a565b60405180910390f35b60007f1c95926d000000000000000000000000000000000000000000000000000000007bffffffffffffffffffffffffffffffffffffffffffffffffffffffff1916827bffffffffffffffffffffffffffffffffffffffffffffffffffffffff1916148061031a57506301ffc9a760e01b827bffffffffffffffffffffffffffffffffffffffffffffffffffffffff1916145b9050919050565b6000600460009054906101000a900473ffffffffffffffffffffffffffffffffffffffff1673ffffffffffffffffffffffffffffffffffffffff163373ffffffffffffffffffffffffffffffffffffffff1614806103ce5750600115156000803373ffffffffffffffffffffffffffffffffffffffff1673ffffffffffffffffffffffffffffffffffffffff16815260200190815260200160002060009054906101000a900460ff161515145b61040d576040517f08c379a00000000000000000000000000000000000000000000000000000000081526004016104049061119e565b60405180910390fd5b60008211610450576040517f08c379a00000000000000000000000000000000000000000000000000000000081526004016104479061120a565b60405180910390fd5b6005600081548092919061046390611259565b919050555082600160006005548152602001908152602001600020908161048a91906114ad565b5081600260006005548152602001908152602001600020819055506005547f1e5500ede7ec81cd4d6537a1a618f3424510f89d03c2252ee7c80e60a1278b6760405160405180910390a292915050565b600160205280600052604060002060009150905080546104f9906112d0565b80601f0160208091040260200160405190810160405280929190818152602001828054610525906112d0565b80156105725780601f1061054757610100808354040283529160200191610572565b820191906000526020600020905b81548152906001019060200180831161055557829003601f168201915b505050505081565b6000600460009054906101000a900473ffffffffffffffffffffffffffffffffffffffff1673ffffffffffffffffffffffffffffffffffffffff163373ffffffffffffffffffffffffffffffffffffffff1614806106275750600115156000803373ffffffffffffffffffffffffffffffffffffffff1673ffffffffffffffffffffffffffffffffffffffff16815260200190815260200160002060009054906101000a900460ff161515145b610666576040517f08c379a000000000000000000000000000000000000000000000000000000000815260040161065d906115f1565b60405180910390fd5b6000806000600190505b60055481116106ea57600360008281526020019081526020016000208560405161069a919061164d565b908152602001604051809103902054836106b49190611664565b92506002600082815260200190815260200160002054826106d59190611664565b915080806106e290611259565b915050610670565b5080612710836106fa9190611698565b6107049190611709565b92505050919050565b600460009054906101000a900473ffffffffffffffffffffffffffffffffffffffff1681565b600460009054906101000a900473ffffffffffffffffffffffffffffffffffffffff1673ffffffffffffffffffffffffffffffffffffffff163373ffffffffffffffffffffffffffffffffffffffff1614806107de5750600115156000803373ffffffffffffffffffffffffffffffffffffffff1673ffffffffffffffffffffffffffffffffffffffff16815260200190815260200160002060009054906101000a900460ff161515145b61081d576040517f08c379a0000000000000000000000000000000000000000000000000000000008152600401610814906117ac565b60405180910390fd5b600554821115610862576040517f08c379a000000000000000000000000000000000000000000000000000000000815260040161085990611818565b60405180910390fd5b60026000838152602001908152602001600020548111156108b8576040517f08c379a00000000000000000000000000000000000000000000000000000000081526004016108af906118aa565b60405180910390fd5b8060036000848152602001908152602001600020846040516108da919061164d565b908152602001604051809103902081905550817fef2ac44e203202a0e5ecc9974197e85354c58fc899e46eaa72f8aed9aa0b701d60405160405180910390a2505050565b600360205281600052604060002081805160208101820180518482526020830160208501208183528095505050505050600091509150505481565b600460009054906101000a900473ffffffffffffffffffffffffffffffffffffffff1673ffffffffffffffffffffffffffffffffffffffff163373ffffffffffffffffffffffffffffffffffffffff16036109e9576040517f08c379a00000000000000000000000000000000000000000000000000000000081526004016109e09061193c565b60405180910390fd5b60016000803373ffffffffffffffffffffffffffffffffffffffff1673ffffffffffffffffffffffffffffffffffffffff16815260200190815260200160002060006101000a81548160ff021916908315150217905550565b600460009054906101000a900473ffffffffffffffffffffffffffffffffffffffff1673ffffffffffffffffffffffffffffffffffffffff163373ffffffffffffffffffffffffffffffffffffffff161480610aed5750600115156000803373ffffffffffffffffffffffffffffffffffffffff1673ffffffffffffffffffffffffffffffffffffffff16815260200190815260200160002060009054906101000a900460ff161515145b610b2c576040517f08c379a0000000000000000000000000000000000000000000000000000000008152600401610b23906119ce565b60405180910390fd5b60016000808373ffffffffffffffffffffffffffffffffffffffff1673ffffffffffffffffffffffffffffffffffffffff16815260200190815260200160002060006101000a81548160ff02191690831515021790555050565b60006020528060005260406000206000915054906101000a900460ff1681565b60055481565b60026020528060005260406000206000915090505481565b6000604051905090565b600080fd5b600080fd5b60007fffffffff0000000000000000000000000000000000000000000000000000000082169050919050565b610c0d81610bd8565b8114610c1857600080fd5b50565b600081359050610c2a81610c04565b92915050565b600060208284031215610c4657610c45610bce565b5b6000610c5484828501610c1b565b91505092915050565b60008115159050919050565b610c7281610c5d565b82525050565b6000602082019050610c8d6000830184610c69565b92915050565b600080fd5b600080fd5b6000601f19601f8301169050919050565b7f4e487b7100000000000000000000000000000000000000000000000000000000600052604160045260246000fd5b610ce682610c9d565b810181811067ffffffffffffffff82111715610d0557610d04610cae565b5b80604052505050565b6000610d18610bc4565b9050610d248282610cdd565b919050565b600067ffffffffffffffff821115610d4457610d43610cae565b5b610d4d82610c9d565b9050602081019050919050565b82818337600083830152505050565b6000610d7c610d7784610d29565b610d0e565b905082815260208101848484011115610d9857610d97610c98565b5b610da3848285610d5a565b509392505050565b600082601f830112610dc057610dbf610c93565b5b8135610dd0848260208601610d69565b91505092915050565b6000819050919050565b610dec81610dd9565b8114610df757600080fd5b50565b600081359050610e0981610de3565b92915050565b60008060408385031215610e2657610e25610bce565b5b600083013567ffffffffffffffff811115610e4457610e43610bd3565b5b610e5085828601610dab565b9250506020610e6185828601610dfa565b9150509250929050565b610e7481610dd9565b82525050565b6000602082019050610e8f6000830184610e6b565b92915050565b600060208284031215610eab57610eaa610bce565b5b6000610eb984828501610dfa565b91505092915050565b600081519050919050565b600082825260208201905092915050565b60005b83811015610efc578082015181840152602081019050610ee1565b60008484015250505050565b6000610f1382610ec2565b610f1d8185610ecd565b9350610f2d818560208601610ede565b610f3681610c9d565b840191505092915050565b60006020820190508181036000830152610f5b8184610f08565b905092915050565b600060208284031215610f7957610f78610bce565b5b600082013567ffffffffffffffff811115610f9757610f96610bd3565b5b610fa384828501610dab565b91505092915050565b600073ffffffffffffffffffffffffffffffffffffffff82169050919050565b6000610fd782610fac565b9050919050565b610fe781610fcc565b82525050565b60006020820190506110026000830184610fde565b92915050565b60008060006060848603121561102157611020610bce565b5b600084013567ffffffffffffffff81111561103f5761103e610bd3565b5b61104b86828701610dab565b935050602061105c86828701610dfa565b925050604061106d86828701610dfa565b9150509250925092565b6000806040838503121561108e5761108d610bce565b5b600061109c85828601610dfa565b925050602083013567ffffffffffffffff8111156110bd576110bc610bd3565b5b6110c985828601610dab565b9150509250929050565b6110dc81610fcc565b81146110e757600080fd5b50565b6000813590506110f9816110d3565b92915050565b60006020828403121561111557611114610bce565b5b6000611123848285016110ea565b91505092915050565b7f4f6e6c792074686520696e7374727563746f72206f7220612054412063616e2060008201527f61646420616e2061737369676e6d656e74000000000000000000000000000000602082015250565b6000611188603183610ecd565b91506111938261112c565b604082019050919050565b600060208201905081810360008301526111b78161117b565b9050919050565b7f4d61782073636f7265206d7573742062652067726561746572207468616e2030600082015250565b60006111f4602083610ecd565b91506111ff826111be565b602082019050919050565b60006020820190508181036000830152611223816111e7565b9050919050565b7f4e487b7100000000000000000000000000000000000000000000000000000000600052601160045260246000fd5b600061126482610dd9565b91507fffffffffffffffffffffffffffffffffffffffffffffffffffffffffffffffff82036112965761129561122a565b5b600182019050919050565b7f4e487b7100000000000000000000000000000000000000000000000000000000600052602260045260246000fd5b600060028204905060018216806112e857607f821691505b6020821081036112fb576112fa6112a1565b5b50919050565b60008190508160005260206000209050919050565b60006020601f8301049050919050565b600082821b905092915050565b6000600883026113637fffffffffffffffffffffffffffffffffffffffffffffffffffffffffffffffff82611326565b61136d8683611326565b95508019841693508086168417925050509392505050565b6000819050919050565b60006113aa6113a56113a084610dd9565b611385565b610dd9565b9050919050565b6000819050919050565b6113c48361138f565b6113d86113d0826113b1565b848454611333565b825550505050565b600090565b6113ed6113e0565b6113f88184846113bb565b505050565b5b8181101561141c576114116000826113e5565b6001810190506113fe565b5050565b601f8211156114615761143281611301565b61143b84611316565b8101602085101561144a578190505b61145e61145685611316565b8301826113fd565b50505b505050565b600082821c905092915050565b600061148460001984600802611466565b1980831691505092915050565b600061149d8383611473565b9150826002028217905092915050565b6114b682610ec2565b67ffffffffffffffff8111156114cf576114ce610cae565b5b6114d982546112d0565b6114e4828285611420565b600060209050601f8311600181146115175760008415611505578287015190505b61150f8582611491565b865550611577565b601f19841661152586611301565b60005b8281101561154d57848901518255600182019150602085019450602081019050611528565b8683101561156a5784890151611566601f891682611473565b8355505b6001600288020188555050505b505050505050565b7f4f6e6c792074686520696e7374727563746f72206f7220612054412063616e2060008201527f6765742074686520617665726167650000000000000000000000000000000000602082015250565b60006115db602f83610ecd565b91506115e68261157f565b604082019050919050565b6000602082019050818103600083015261160a816115ce565b9050919050565b600081905092915050565b600061162782610ec2565b6116318185611611565b9350611641818560208601610ede565b80840191505092915050565b6000611659828461161c565b915081905092915050565b600061166f82610dd9565b915061167a83610dd9565b92508282019050808211156116925761169161122a565b5b92915050565b60006116a382610dd9565b91506116ae83610dd9565b92508282026116bc81610dd9565b915082820484148315176116d3576116d261122a565b5b5092915050565b7f4e487b7100000000000000000000000000000000000000000000000000000000600052601260045260246000fd5b600061171482610dd9565b915061171f83610dd9565b92508261172f5761172e6116da565b5b828204905092915050565b7f4f6e6c792074686520696e7374727563746f72206f7220612054412063616e2060008201527f6164642061206772616465000000000000000000000000000000000000000000602082015250565b6000611796602b83610ecd565b91506117a18261173a565b604082019050919050565b600060208201905081810360008301526117c581611789565b9050919050565b7f41737369676e6d656e7420646f6573206e6f7420657869737400000000000000600082015250565b6000611802601983610ecd565b915061180d826117cc565b602082019050919050565b60006020820190508181036000830152611831816117f5565b9050919050565b7f53636f72652063616e6e6f742062652067726561746572207468616e206d617860008201527f2073636f72650000000000000000000000000000000000000000000000000000602082015250565b6000611894602683610ecd565b915061189f82611838565b604082019050919050565b600060208201905081810360008301526118c381611887565b9050919050565b7f54686520696e7374727563746f722063616e6e6f74207265717565737420544160008201527f2061636365737300000000000000000000000000000000000000000000000000602082015250565b6000611926602783610ecd565b9150611931826118ca565b604082019050919050565b6000602082019050818103600083015261195581611919565b9050919050565b7f4f6e6c792074686520696e7374727563746f72206f7220612054412063616e2060008201527f64657369676e6174652061205441000000000000000000000000000000000000602082015250565b60006119b8602e83610ecd565b91506119c38261195c565b604082019050919050565b600060208201905081810360008301526119e7816119ab565b905091905056fea264697066735822122080e581be8c852d5a2bfbf76b8ca80fc940fe0953bca1f70e7a7a7caa2b1d485064736f6c63430008110033",
					"opcodes": "PUSH1 0x80 PUSH1 0x40 MSTORE CALLVALUE DUP1 ISZERO PUSH2 0x10 JUMPI PUSH1 0x0 DUP1 REVERT JUMPDEST POP CALLER PUSH1 0x4 PUSH1 0x0 PUSH2 0x100 EXP DUP2 SLOAD DUP2 PUSH20 0xFFFFFFFFFFFFFFFFFFFFFFFFFFFFFFFFFFFFFFFF MUL NOT AND SWAP1 DUP4 PUSH20 0xFFFFFFFFFFFFFFFFFFFFFFFFFFFFFFFFFFFFFFFF AND MUL OR SWAP1 SSTORE POP PUSH2 0x1A24 DUP1 PUSH2 0x61 PUSH1 0x0 CODECOPY PUSH1 0x0 RETURN INVALID PUSH1 0x80 PUSH1 0x40 MSTORE CALLVALUE DUP1 ISZERO PUSH2 0x10 JUMPI PUSH1 0x0 DUP1 REVERT JUMPDEST POP PUSH1 0x4 CALLDATASIZE LT PUSH2 0xB4 JUMPI PUSH1 0x0 CALLDATALOAD PUSH1 0xE0 SHR DUP1 PUSH4 0x77CA2947 GT PUSH2 0x71 JUMPI DUP1 PUSH4 0x77CA2947 EQ PUSH2 0x1B3 JUMPI DUP1 PUSH4 0x7FC29673 EQ PUSH2 0x1E3 JUMPI DUP1 PUSH4 0x9CFEB679 EQ PUSH2 0x1ED JUMPI DUP1 PUSH4 0xA30254E7 EQ PUSH2 0x209 JUMPI DUP1 PUSH4 0xC7A9F77B EQ PUSH2 0x239 JUMPI DUP1 PUSH4 0xDFD68B91 EQ PUSH2 0x257 JUMPI PUSH2 0xB4 JUMP JUMPDEST DUP1 PUSH4 0x1FFC9A7 EQ PUSH2 0xB9 JUMPI DUP1 PUSH4 0x77F3B02 EQ PUSH2 0xE9 JUMPI DUP1 PUSH4 0x53ACF883 EQ PUSH2 0x119 JUMPI DUP1 PUSH4 0x65DD2F69 EQ PUSH2 0x149 JUMPI DUP1 PUSH4 0x71AE413D EQ PUSH2 0x179 JUMPI DUP1 PUSH4 0x7241D75F EQ PUSH2 0x197 JUMPI JUMPDEST PUSH1 0x0 DUP1 REVERT JUMPDEST PUSH2 0xD3 PUSH1 0x4 DUP1 CALLDATASIZE SUB DUP2 ADD SWAP1 PUSH2 0xCE SWAP2 SWAP1 PUSH2 0xC30 JUMP JUMPDEST PUSH2 0x287 JUMP JUMPDEST PUSH1 0x40 MLOAD PUSH2 0xE0 SWAP2 SWAP1 PUSH2 0xC78 JUMP JUMPDEST PUSH1 0x40 MLOAD DUP1 SWAP2 SUB SWAP1 RETURN JUMPDEST PUSH2 0x103 PUSH1 0x4 DUP1 CALLDATASIZE SUB DUP2 ADD SWAP1 PUSH2 0xFE SWAP2 SWAP1 PUSH2 0xE0F JUMP JUMPDEST PUSH2 0x321 JUMP JUMPDEST PUSH1 0x40 MLOAD PUSH2 0x110 SWAP2 SWAP1 PUSH2 0xE7A JUMP JUMPDEST PUSH1 0x40 MLOAD DUP1 SWAP2 SUB SWAP1 RETURN JUMPDEST PUSH2 0x133 PUSH1 0x4 DUP1 CALLDATASIZE SUB DUP2 ADD SWAP1 PUSH2 0x12E SWAP2 SWAP1 PUSH2 0xE95 JUMP JUMPDEST PUSH2 0x4DA JUMP JUMPDEST PUSH1 0x40 MLOAD PUSH2 0x140 SWAP2 SWAP1 PUSH2 0xF41 JUMP JUMPDEST PUSH1 0x40 MLOAD DUP1 SWAP2 SUB SWAP1 RETURN JUMPDEST PUSH2 0x163 PUSH1 0x4 DUP1 CALLDATASIZE SUB DUP2 ADD SWAP1 PUSH2 0x15E SWAP2 SWAP1 PUSH2 0xF63 JUMP JUMPDEST PUSH2 0x57A JUMP JUMPDEST PUSH1 0x40 MLOAD PUSH2 0x170 SWAP2 SWAP1 PUSH2 0xE7A JUMP JUMPDEST PUSH1 0x40 MLOAD DUP1 SWAP2 SUB SWAP1 RETURN JUMPDEST PUSH2 0x181 PUSH2 0x70D JUMP JUMPDEST PUSH1 0x40 MLOAD PUSH2 0x18E SWAP2 SWAP1 PUSH2 0xFED JUMP JUMPDEST PUSH1 0x40 MLOAD DUP1 SWAP2 SUB SWAP1 RETURN JUMPDEST PUSH2 0x1B1 PUSH1 0x4 DUP1 CALLDATASIZE SUB DUP2 ADD SWAP1 PUSH2 0x1AC SWAP2 SWAP1 PUSH2 0x1008 JUMP JUMPDEST PUSH2 0x733 JUMP JUMPDEST STOP JUMPDEST PUSH2 0x1CD PUSH1 0x4 DUP1 CALLDATASIZE SUB DUP2 ADD SWAP1 PUSH2 0x1C8 SWAP2 SWAP1 PUSH2 0x1077 JUMP JUMPDEST PUSH2 0x91E JUMP JUMPDEST PUSH1 0x40 MLOAD PUSH2 0x1DA SWAP2 SWAP1 PUSH2 0xE7A JUMP JUMPDEST PUSH1 0x40 MLOAD DUP1 SWAP2 SUB SWAP1 RETURN JUMPDEST PUSH2 0x1EB PUSH2 0x959 JUMP JUMPDEST STOP JUMPDEST PUSH2 0x207 PUSH1 0x4 DUP1 CALLDATASIZE SUB DUP2 ADD SWAP1 PUSH2 0x202 SWAP2 SWAP1 PUSH2 0x10FF JUMP JUMPDEST PUSH2 0xA42 JUMP JUMPDEST STOP JUMPDEST PUSH2 0x223 PUSH1 0x4 DUP1 CALLDATASIZE SUB DUP2 ADD SWAP1 PUSH2 0x21E SWAP2 SWAP1 PUSH2 0x10FF JUMP JUMPDEST PUSH2 0xB86 JUMP JUMPDEST PUSH1 0x40 MLOAD PUSH2 0x230 SWAP2 SWAP1 PUSH2 0xC78 JUMP JUMPDEST PUSH1 0x40 MLOAD DUP1 SWAP2 SUB SWAP1 RETURN JUMPDEST PUSH2 0x241 PUSH2 0xBA6 JUMP JUMPDEST PUSH1 0x40 MLOAD PUSH2 0x24E SWAP2 SWAP1 PUSH2 0xE7A JUMP JUMPDEST PUSH1 0x40 MLOAD DUP1 SWAP2 SUB SWAP1 RETURN JUMPDEST PUSH2 0x271 PUSH1 0x4 DUP1 CALLDATASIZE SUB DUP2 ADD SWAP1 PUSH2 0x26C SWAP2 SWAP1 PUSH2 0xE95 JUMP JUMPDEST PUSH2 0xBAC JUMP JUMPDEST PUSH1 0x40 MLOAD PUSH2 0x27E SWAP2 SWAP1 PUSH2 0xE7A JUMP JUMPDEST PUSH1 0x40 MLOAD DUP1 SWAP2 SUB SWAP1 RETURN JUMPDEST PUSH1 0x0 PUSH32 0x1C95926D00000000000000000000000000000000000000000000000000000000 PUSH28 0xFFFFFFFFFFFFFFFFFFFFFFFFFFFFFFFFFFFFFFFFFFFFFFFFFFFFFFFF NOT AND DUP3 PUSH28 0xFFFFFFFFFFFFFFFFFFFFFFFFFFFFFFFFFFFFFFFFFFFFFFFFFFFFFFFF NOT AND EQ DUP1 PUSH2 0x31A JUMPI POP PUSH4 0x1FFC9A7 PUSH1 0xE0 SHL DUP3 PUSH28 0xFFFFFFFFFFFFFFFFFFFFFFFFFFFFFFFFFFFFFFFFFFFFFFFFFFFFFFFF NOT AND EQ JUMPDEST SWAP1 POP SWAP2 SWAP1 POP JUMP JUMPDEST PUSH1 0x0 PUSH1 0x4 PUSH1 0x0 SWAP1 SLOAD SWAP1 PUSH2 0x100 EXP SWAP1 DIV PUSH20 0xFFFFFFFFFFFFFFFFFFFFFFFFFFFFFFFFFFFFFFFF AND PUSH20 0xFFFFFFFFFFFFFFFFFFFFFFFFFFFFFFFFFFFFFFFF AND CALLER PUSH20 0xFFFFFFFFFFFFFFFFFFFFFFFFFFFFFFFFFFFFFFFF AND EQ DUP1 PUSH2 0x3CE JUMPI POP PUSH1 0x1 ISZERO ISZERO PUSH1 0x0 DUP1 CALLER PUSH20 0xFFFFFFFFFFFFFFFFFFFFFFFFFFFFFFFFFFFFFFFF AND PUSH20 0xFFFFFFFFFFFFFFFFFFFFFFFFFFFFFFFFFFFFFFFF AND DUP2 MSTORE PUSH1 0x20 ADD SWAP1 DUP2 MSTORE PUSH1 0x20 ADD PUSH1 0x0 KECCAK256 PUSH1 0x0 SWAP1 SLOAD SWAP1 PUSH2 0x100 EXP SWAP1 DIV PUSH1 0xFF AND ISZERO ISZERO EQ JUMPDEST PUSH2 0x40D JUMPI PUSH1 0x40 MLOAD PUSH32 0x8C379A000000000000000000000000000000000000000000000000000000000 DUP2 MSTORE PUSH1 0x4 ADD PUSH2 0x404 SWAP1 PUSH2 0x119E JUMP JUMPDEST PUSH1 0x40 MLOAD DUP1 SWAP2 SUB SWAP1 REVERT JUMPDEST PUSH1 0x0 DUP3 GT PUSH2 0x450 JUMPI PUSH1 0x40 MLOAD PUSH32 0x8C379A000000000000000000000000000000000000000000000000000000000 DUP2 MSTORE PUSH1 0x4 ADD PUSH2 0x447 SWAP1 PUSH2 0x120A JUMP JUMPDEST PUSH1 0x40 MLOAD DUP1 SWAP2 SUB SWAP1 REVERT JUMPDEST PUSH1 0x5 PUSH1 0x0 DUP2 SLOAD DUP1 SWAP3 SWAP2 SWAP1 PUSH2 0x463 SWAP1 PUSH2 0x1259 JUMP JUMPDEST SWAP2 SWAP1 POP SSTORE POP DUP3 PUSH1 0x1 PUSH1 0x0 PUSH1 0x5 SLOAD DUP2 MSTORE PUSH1 0x20 ADD SWAP1 DUP2 MSTORE PUSH1 0x20 ADD PUSH1 0x0 KECCAK256 SWAP1 DUP2 PUSH2 0x48A SWAP2 SWAP1 PUSH2 0x14AD JUMP JUMPDEST POP DUP2 PUSH1 0x2 PUSH1 0x0 PUSH1 0x5 SLOAD DUP2 MSTORE PUSH1 0x20 ADD SWAP1 DUP2 MSTORE PUSH1 0x20 ADD PUSH1 0x0 KECCAK256 DUP2 SWAP1 SSTORE POP PUSH1 0x5 SLOAD PUSH32 0x1E5500EDE7EC81CD4D6537A1A618F3424510F89D03C2252EE7C80E60A1278B67 PUSH1 0x40 MLOAD PUSH1 0x40 MLOAD DUP1 SWAP2 SUB SWAP1 LOG2 SWAP3 SWAP2 POP POP JUMP JUMPDEST PUSH1 0x1 PUSH1 0x20 MSTORE DUP1 PUSH1 0x0 MSTORE PUSH1 0x40 PUSH1 0x0 KECCAK256 PUSH1 0x0 SWAP2 POP SWAP1 POP DUP1 SLOAD PUSH2 0x4F9 SWAP1 PUSH2 0x12D0 JUMP JUMPDEST DUP1 PUSH1 0x1F ADD PUSH1 0x20 DUP1 SWAP2 DIV MUL PUSH1 0x20 ADD PUSH1 0x40 MLOAD SWAP1 DUP2 ADD PUSH1 0x40 MSTORE DUP1 SWAP3 SWAP2 SWAP1 DUP2 DUP2 MSTORE PUSH1 0x20 ADD DUP3 DUP1 SLOAD PUSH2 0x525 SWAP1 PUSH2 0x12D0 JUMP JUMPDEST DUP1 ISZERO PUSH2 0x572 JUMPI DUP1 PUSH1 0x1F LT PUSH2 0x547 JUMPI PUSH2 0x100 DUP1 DUP4 SLOAD DIV MUL DUP4 MSTORE SWAP2 PUSH1 0x20 ADD SWAP2 PUSH2 0x572 JUMP JUMPDEST DUP3 ADD SWAP2 SWAP1 PUSH1 0x0 MSTORE PUSH1 0x20 PUSH1 0x0 KECCAK256 SWAP1 JUMPDEST DUP2 SLOAD DUP2 MSTORE SWAP1 PUSH1 0x1 ADD SWAP1 PUSH1 0x20 ADD DUP1 DUP4 GT PUSH2 0x555 JUMPI DUP3 SWAP1 SUB PUSH1 0x1F AND DUP3 ADD SWAP2 JUMPDEST POP POP POP POP POP DUP2 JUMP JUMPDEST PUSH1 0x0 PUSH1 0x4 PUSH1 0x0 SWAP1 SLOAD SWAP1 PUSH2 0x100 EXP SWAP1 DIV PUSH20 0xFFFFFFFFFFFFFFFFFFFFFFFFFFFFFFFFFFFFFFFF AND PUSH20 0xFFFFFFFFFFFFFFFFFFFFFFFFFFFFFFFFFFFFFFFF AND CALLER PUSH20 0xFFFFFFFFFFFFFFFFFFFFFFFFFFFFFFFFFFFFFFFF AND EQ DUP1 PUSH2 0x627 JUMPI POP PUSH1 0x1 ISZERO ISZERO PUSH1 0x0 DUP1 CALLER PUSH20 0xFFFFFFFFFFFFFFFFFFFFFFFFFFFFFFFFFFFFFFFF AND PUSH20 0xFFFFFFFFFFFFFFFFFFFFFFFFFFFFFFFFFFFFFFFF AND DUP2 MSTORE PUSH1 0x20 ADD SWAP1 DUP2 MSTORE PUSH1 0x20 ADD PUSH1 0x0 KECCAK256 PUSH1 0x0 SWAP1 SLOAD SWAP1 PUSH2 0x100 EXP SWAP1 DIV PUSH1 0xFF AND ISZERO ISZERO EQ JUMPDEST PUSH2 0x666 JUMPI PUSH1 0x40 MLOAD PUSH32 0x8C379A000000000000000000000000000000000000000000000000000000000 DUP2 MSTORE PUSH1 0x4 ADD PUSH2 0x65D SWAP1 PUSH2 0x15F1 JUMP JUMPDEST PUSH1 0x40 MLOAD DUP1 SWAP2 SUB SWAP1 REVERT JUMPDEST PUSH1 0x0 DUP1 PUSH1 0x0 PUSH1 0x1 SWAP1 POP JUMPDEST PUSH1 0x5 SLOAD DUP2 GT PUSH2 0x6EA JUMPI PUSH1 0x3 PUSH1 0x0 DUP3 DUP2 MSTORE PUSH1 0x20 ADD SWAP1 DUP2 MSTORE PUSH1 0x20 ADD PUSH1 0x0 KECCAK256 DUP6 PUSH1 0x40 MLOAD PUSH2 0x69A SWAP2 SWAP1 PUSH2 0x164D JUMP JUMPDEST SWAP1 DUP2 MSTORE PUSH1 0x20 ADD PUSH1 0x40 MLOAD DUP1 SWAP2 SUB SWAP1 KECCAK256 SLOAD DUP4 PUSH2 0x6B4 SWAP2 SWAP1 PUSH2 0x1664 JUMP JUMPDEST SWAP3 POP PUSH1 0x2 PUSH1 0x0 DUP3 DUP2 MSTORE PUSH1 0x20 ADD SWAP1 DUP2 MSTORE PUSH1 0x20 ADD PUSH1 0x0 KECCAK256 SLOAD DUP3 PUSH2 0x6D5 SWAP2 SWAP1 PUSH2 0x1664 JUMP JUMPDEST SWAP2 POP DUP1 DUP1 PUSH2 0x6E2 SWAP1 PUSH2 0x1259 JUMP JUMPDEST SWAP2 POP POP PUSH2 0x670 JUMP JUMPDEST POP DUP1 PUSH2 0x2710 DUP4 PUSH2 0x6FA SWAP2 SWAP1 PUSH2 0x1698 JUMP JUMPDEST PUSH2 0x704 SWAP2 SWAP1 PUSH2 0x1709 JUMP JUMPDEST SWAP3 POP POP POP SWAP2 SWAP1 POP JUMP JUMPDEST PUSH1 0x4 PUSH1 0x0 SWAP1 SLOAD SWAP1 PUSH2 0x100 EXP SWAP1 DIV PUSH20 0xFFFFFFFFFFFFFFFFFFFFFFFFFFFFFFFFFFFFFFFF AND DUP2 JUMP JUMPDEST PUSH1 0x4 PUSH1 0x0 SWAP1 SLOAD SWAP1 PUSH2 0x100 EXP SWAP1 DIV PUSH20 0xFFFFFFFFFFFFFFFFFFFFFFFFFFFFFFFFFFFFFFFF AND PUSH20 0xFFFFFFFFFFFFFFFFFFFFFFFFFFFFFFFFFFFFFFFF AND CALLER PUSH20 0xFFFFFFFFFFFFFFFFFFFFFFFFFFFFFFFFFFFFFFFF AND EQ DUP1 PUSH2 0x7DE JUMPI POP PUSH1 0x1 ISZERO ISZERO PUSH1 0x0 DUP1 CALLER PUSH20 0xFFFFFFFFFFFFFFFFFFFFFFFFFFFFFFFFFFFFFFFF AND PUSH20 0xFFFFFFFFFFFFFFFFFFFFFFFFFFFFFFFFFFFFFFFF AND DUP2 MSTORE PUSH1 0x20 ADD SWAP1 DUP2 MSTORE PUSH1 0x20 ADD PUSH1 0x0 KECCAK256 PUSH1 0x0 SWAP1 SLOAD SWAP1 PUSH2 0x100 EXP SWAP1 DIV PUSH1 0xFF AND ISZERO ISZERO EQ JUMPDEST PUSH2 0x81D JUMPI PUSH1 0x40 MLOAD PUSH32 0x8C379A000000000000000000000000000000000000000000000000000000000 DUP2 MSTORE PUSH1 0x4 ADD PUSH2 0x814 SWAP1 PUSH2 0x17AC JUMP JUMPDEST PUSH1 0x40 MLOAD DUP1 SWAP2 SUB SWAP1 REVERT JUMPDEST PUSH1 0x5 SLOAD DUP3 GT ISZERO PUSH2 0x862 JUMPI PUSH1 0x40 MLOAD PUSH32 0x8C379A000000000000000000000000000000000000000000000000000000000 DUP2 MSTORE PUSH1 0x4 ADD PUSH2 0x859 SWAP1 PUSH2 0x1818 JUMP JUMPDEST PUSH1 0x40 MLOAD DUP1 SWAP2 SUB SWAP1 REVERT JUMPDEST PUSH1 0x2 PUSH1 0x0 DUP4 DUP2 MSTORE PUSH1 0x20 ADD SWAP1 DUP2 MSTORE PUSH1 0x20 ADD PUSH1 0x0 KECCAK256 SLOAD DUP2 GT ISZERO PUSH2 0x8B8 JUMPI PUSH1 0x40 MLOAD PUSH32 0x8C379A000000000000000000000000000000000000000000000000000000000 DUP2 MSTORE PUSH1 0x4 ADD PUSH2 0x8AF SWAP1 PUSH2 0x18AA JUMP JUMPDEST PUSH1 0x40 MLOAD DUP1 SWAP2 SUB SWAP1 REVERT JUMPDEST DUP1 PUSH1 0x3 PUSH1 0x0 DUP5 DUP2 MSTORE PUSH1 0x20 ADD SWAP1 DUP2 MSTORE PUSH1 0x20 ADD PUSH1 0x0 KECCAK256 DUP5 PUSH1 0x40 MLOAD PUSH2 0x8DA SWAP2 SWAP1 PUSH2 0x164D JUMP JUMPDEST SWAP1 DUP2 MSTORE PUSH1 0x20 ADD PUSH1 0x40 MLOAD DUP1 SWAP2 SUB SWAP1 KECCAK256 DUP2 SWAP1 SSTORE POP DUP2 PUSH32 0xEF2AC44E203202A0E5ECC9974197E85354C58FC899E46EAA72F8AED9AA0B701D PUSH1 0x40 MLOAD PUSH1 0x40 MLOAD DUP1 SWAP2 SUB SWAP1 LOG2 POP POP POP JUMP JUMPDEST PUSH1 0x3 PUSH1 0x20 MSTORE DUP2 PUSH1 0x0 MSTORE PUSH1 0x40 PUSH1 0x0 KECCAK256 DUP2 DUP1 MLOAD PUSH1 0x20 DUP2 ADD DUP3 ADD DUP1 MLOAD DUP5 DUP3 MSTORE PUSH1 0x20 DUP4 ADD PUSH1 0x20 DUP6 ADD KECCAK256 DUP2 DUP4 MSTORE DUP1 SWAP6 POP POP POP POP POP POP PUSH1 0x0 SWAP2 POP SWAP2 POP POP SLOAD DUP2 JUMP JUMPDEST PUSH1 0x4 PUSH1 0x0 SWAP1 SLOAD SWAP1 PUSH2 0x100 EXP SWAP1 DIV PUSH20 0xFFFFFFFFFFFFFFFFFFFFFFFFFFFFFFFFFFFFFFFF AND PUSH20 0xFFFFFFFFFFFFFFFFFFFFFFFFFFFFFFFFFFFFFFFF AND CALLER PUSH20 0xFFFFFFFFFFFFFFFFFFFFFFFFFFFFFFFFFFFFFFFF AND SUB PUSH2 0x9E9 JUMPI PUSH1 0x40 MLOAD PUSH32 0x8C379A000000000000000000000000000000000000000000000000000000000 DUP2 MSTORE PUSH1 0x4 ADD PUSH2 0x9E0 SWAP1 PUSH2 0x193C JUMP JUMPDEST PUSH1 0x40 MLOAD DUP1 SWAP2 SUB SWAP1 REVERT JUMPDEST PUSH1 0x1 PUSH1 0x0 DUP1 CALLER PUSH20 0xFFFFFFFFFFFFFFFFFFFFFFFFFFFFFFFFFFFFFFFF AND PUSH20 0xFFFFFFFFFFFFFFFFFFFFFFFFFFFFFFFFFFFFFFFF AND DUP2 MSTORE PUSH1 0x20 ADD SWAP1 DUP2 MSTORE PUSH1 0x20 ADD PUSH1 0x0 KECCAK256 PUSH1 0x0 PUSH2 0x100 EXP DUP2 SLOAD DUP2 PUSH1 0xFF MUL NOT AND SWAP1 DUP4 ISZERO ISZERO MUL OR SWAP1 SSTORE POP JUMP JUMPDEST PUSH1 0x4 PUSH1 0x0 SWAP1 SLOAD SWAP1 PUSH2 0x100 EXP SWAP1 DIV PUSH20 0xFFFFFFFFFFFFFFFFFFFFFFFFFFFFFFFFFFFFFFFF AND PUSH20 0xFFFFFFFFFFFFFFFFFFFFFFFFFFFFFFFFFFFFFFFF AND CALLER PUSH20 0xFFFFFFFFFFFFFFFFFFFFFFFFFFFFFFFFFFFFFFFF AND EQ DUP1 PUSH2 0xAED JUMPI POP PUSH1 0x1 ISZERO ISZERO PUSH1 0x0 DUP1 CALLER PUSH20 0xFFFFFFFFFFFFFFFFFFFFFFFFFFFFFFFFFFFFFFFF AND PUSH20 0xFFFFFFFFFFFFFFFFFFFFFFFFFFFFFFFFFFFFFFFF AND DUP2 MSTORE PUSH1 0x20 ADD SWAP1 DUP2 MSTORE PUSH1 0x20 ADD PUSH1 0x0 KECCAK256 PUSH1 0x0 SWAP1 SLOAD SWAP1 PUSH2 0x100 EXP SWAP1 DIV PUSH1 0xFF AND ISZERO ISZERO EQ JUMPDEST PUSH2 0xB2C JUMPI PUSH1 0x40 MLOAD PUSH32 0x8C379A000000000000000000000000000000000000000000000000000000000 DUP2 MSTORE PUSH1 0x4 ADD PUSH2 0xB23 SWAP1 PUSH2 0x19CE JUMP JUMPDEST PUSH1 0x40 MLOAD DUP1 SWAP2 SUB SWAP1 REVERT JUMPDEST PUSH1 0x1 PUSH1 0x0 DUP1 DUP4 PUSH20 0xFFFFFFFFFFFFFFFFFFFFFFFFFFFFFFFFFFFFFFFF AND PUSH20 0xFFFFFFFFFFFFFFFFFFFFFFFFFFFFFFFFFFFFFFFF AND DUP2 MSTORE PUSH1 0x20 ADD SWAP1 DUP2 MSTORE PUSH1 0x20 ADD PUSH1 0x0 KECCAK256 PUSH1 0x0 PUSH2 0x100 EXP DUP2 SLOAD DUP2 PUSH1 0xFF MUL NOT AND SWAP1 DUP4 ISZERO ISZERO MUL OR SWAP1 SSTORE POP POP JUMP JUMPDEST PUSH1 0x0 PUSH1 0x20 MSTORE DUP1 PUSH1 0x0 MSTORE PUSH1 0x40 PUSH1 0x0 KECCAK256 PUSH1 0x0 SWAP2 POP SLOAD SWAP1 PUSH2 0x100 EXP SWAP1 DIV PUSH1 0xFF AND DUP2 JUMP JUMPDEST PUSH1 0x5 SLOAD DUP2 JUMP JUMPDEST PUSH1 0x2 PUSH1 0x20 MSTORE DUP1 PUSH1 0x0 MSTORE PUSH1 0x40 PUSH1 0x0 KECCAK256 PUSH1 0x0 SWAP2 POP SWAP1 POP SLOAD DUP2 JUMP JUMPDEST PUSH1 0x0 PUSH1 0x40 MLOAD SWAP1 POP SWAP1 JUMP JUMPDEST PUSH1 0x0 DUP1 REVERT JUMPDEST PUSH1 0x0 DUP1 REVERT JUMPDEST PUSH1 0x0 PUSH32 0xFFFFFFFF00000000000000000000000000000000000000000000000000000000 DUP3 AND SWAP1 POP SWAP2 SWAP1 POP JUMP JUMPDEST PUSH2 0xC0D DUP2 PUSH2 0xBD8 JUMP JUMPDEST DUP2 EQ PUSH2 0xC18 JUMPI PUSH1 0x0 DUP1 REVERT JUMPDEST POP JUMP JUMPDEST PUSH1 0x0 DUP2 CALLDATALOAD SWAP1 POP PUSH2 0xC2A DUP2 PUSH2 0xC04 JUMP JUMPDEST SWAP3 SWAP2 POP POP JUMP JUMPDEST PUSH1 0x0 PUSH1 0x20 DUP3 DUP5 SUB SLT ISZERO PUSH2 0xC46 JUMPI PUSH2 0xC45 PUSH2 0xBCE JUMP JUMPDEST JUMPDEST PUSH1 0x0 PUSH2 0xC54 DUP5 DUP3 DUP6 ADD PUSH2 0xC1B JUMP JUMPDEST SWAP2 POP POP SWAP3 SWAP2 POP POP JUMP JUMPDEST PUSH1 0x0 DUP2 ISZERO ISZERO SWAP1 POP SWAP2 SWAP1 POP JUMP JUMPDEST PUSH2 0xC72 DUP2 PUSH2 0xC5D JUMP JUMPDEST DUP3 MSTORE POP POP JUMP JUMPDEST PUSH1 0x0 PUSH1 0x20 DUP3 ADD SWAP1 POP PUSH2 0xC8D PUSH1 0x0 DUP4 ADD DUP5 PUSH2 0xC69 JUMP JUMPDEST SWAP3 SWAP2 POP POP JUMP JUMPDEST PUSH1 0x0 DUP1 REVERT JUMPDEST PUSH1 0x0 DUP1 REVERT JUMPDEST PUSH1 0x0 PUSH1 0x1F NOT PUSH1 0x1F DUP4 ADD AND SWAP1 POP SWAP2 SWAP1 POP JUMP JUMPDEST PUSH32 0x4E487B7100000000000000000000000000000000000000000000000000000000 PUSH1 0x0 MSTORE PUSH1 0x41 PUSH1 0x4 MSTORE PUSH1 0x24 PUSH1 0x0 REVERT JUMPDEST PUSH2 0xCE6 DUP3 PUSH2 0xC9D JUMP JUMPDEST DUP2 ADD DUP2 DUP2 LT PUSH8 0xFFFFFFFFFFFFFFFF DUP3 GT OR ISZERO PUSH2 0xD05 JUMPI PUSH2 0xD04 PUSH2 0xCAE JUMP JUMPDEST JUMPDEST DUP1 PUSH1 0x40 MSTORE POP POP POP JUMP JUMPDEST PUSH1 0x0 PUSH2 0xD18 PUSH2 0xBC4 JUMP JUMPDEST SWAP1 POP PUSH2 0xD24 DUP3 DUP3 PUSH2 0xCDD JUMP JUMPDEST SWAP2 SWAP1 POP JUMP JUMPDEST PUSH1 0x0 PUSH8 0xFFFFFFFFFFFFFFFF DUP3 GT ISZERO PUSH2 0xD44 JUMPI PUSH2 0xD43 PUSH2 0xCAE JUMP JUMPDEST JUMPDEST PUSH2 0xD4D DUP3 PUSH2 0xC9D JUMP JUMPDEST SWAP1 POP PUSH1 0x20 DUP2 ADD SWAP1 POP SWAP2 SWAP1 POP JUMP JUMPDEST DUP3 DUP2 DUP4 CALLDATACOPY PUSH1 0x0 DUP4 DUP4 ADD MSTORE POP POP POP JUMP JUMPDEST PUSH1 0x0 PUSH2 0xD7C PUSH2 0xD77 DUP5 PUSH2 0xD29 JUMP JUMPDEST PUSH2 0xD0E JUMP JUMPDEST SWAP1 POP DUP3 DUP2 MSTORE PUSH1 0x20 DUP2 ADD DUP5 DUP5 DUP5 ADD GT ISZERO PUSH2 0xD98 JUMPI PUSH2 0xD97 PUSH2 0xC98 JUMP JUMPDEST JUMPDEST PUSH2 0xDA3 DUP5 DUP3 DUP6 PUSH2 0xD5A JUMP JUMPDEST POP SWAP4 SWAP3 POP POP POP JUMP JUMPDEST PUSH1 0x0 DUP3 PUSH1 0x1F DUP4 ADD SLT PUSH2 0xDC0 JUMPI PUSH2 0xDBF PUSH2 0xC93 JUMP JUMPDEST JUMPDEST DUP2 CALLDATALOAD PUSH2 0xDD0 DUP5 DUP3 PUSH1 0x20 DUP7 ADD PUSH2 0xD69 JUMP JUMPDEST SWAP2 POP POP SWAP3 SWAP2 POP POP JUMP JUMPDEST PUSH1 0x0 DUP2 SWAP1 POP SWAP2 SWAP1 POP JUMP JUMPDEST PUSH2 0xDEC DUP2 PUSH2 0xDD9 JUMP JUMPDEST DUP2 EQ PUSH2 0xDF7 JUMPI PUSH1 0x0 DUP1 REVERT JUMPDEST POP JUMP JUMPDEST PUSH1 0x0 DUP2 CALLDATALOAD SWAP1 POP PUSH2 0xE09 DUP2 PUSH2 0xDE3 JUMP JUMPDEST SWAP3 SWAP2 POP POP JUMP JUMPDEST PUSH1 0x0 DUP1 PUSH1 0x40 DUP4 DUP6 SUB SLT ISZERO PUSH2 0xE26 JUMPI PUSH2 0xE25 PUSH2 0xBCE JUMP JUMPDEST JUMPDEST PUSH1 0x0 DUP4 ADD CALLDATALOAD PUSH8 0xFFFFFFFFFFFFFFFF DUP2 GT ISZERO PUSH2 0xE44 JUMPI PUSH2 0xE43 PUSH2 0xBD3 JUMP JUMPDEST JUMPDEST PUSH2 0xE50 DUP6 DUP3 DUP7 ADD PUSH2 0xDAB JUMP JUMPDEST SWAP3 POP POP PUSH1 0x20 PUSH2 0xE61 DUP6 DUP3 DUP7 ADD PUSH2 0xDFA JUMP JUMPDEST SWAP2 POP POP SWAP3 POP SWAP3 SWAP1 POP JUMP JUMPDEST PUSH2 0xE74 DUP2 PUSH2 0xDD9 JUMP JUMPDEST DUP3 MSTORE POP POP JUMP JUMPDEST PUSH1 0x0 PUSH1 0x20 DUP3 ADD SWAP1 POP PUSH2 0xE8F PUSH1 0x0 DUP4 ADD DUP5 PUSH2 0xE6B JUMP JUMPDEST SWAP3 SWAP2 POP POP JUMP JUMPDEST PUSH1 0x0 PUSH1 0x20 DUP3 DUP5 SUB SLT ISZERO PUSH2 0xEAB JUMPI PUSH2 0xEAA PUSH2 0xBCE JUMP JUMPDEST JUMPDEST PUSH1 0x0 PUSH2 0xEB9 DUP5 DUP3 DUP6 ADD PUSH2 0xDFA JUMP JUMPDEST SWAP2 POP POP SWAP3 SWAP2 POP POP JUMP JUMPDEST PUSH1 0x0 DUP2 MLOAD SWAP1 POP SWAP2 SWAP1 POP JUMP JUMPDEST PUSH1 0x0 DUP3 DUP3 MSTORE PUSH1 0x20 DUP3 ADD SWAP1 POP SWAP3 SWAP2 POP POP JUMP JUMPDEST PUSH1 0x0 JUMPDEST DUP4 DUP2 LT ISZERO PUSH2 0xEFC JUMPI DUP1 DUP3 ADD MLOAD DUP2 DUP5 ADD MSTORE PUSH1 0x20 DUP2 ADD SWAP1 POP PUSH2 0xEE1 JUMP JUMPDEST PUSH1 0x0 DUP5 DUP5 ADD MSTORE POP POP POP POP JUMP JUMPDEST PUSH1 0x0 PUSH2 0xF13 DUP3 PUSH2 0xEC2 JUMP JUMPDEST PUSH2 0xF1D DUP2 DUP6 PUSH2 0xECD JUMP JUMPDEST SWAP4 POP PUSH2 0xF2D DUP2 DUP6 PUSH1 0x20 DUP7 ADD PUSH2 0xEDE JUMP JUMPDEST PUSH2 0xF36 DUP2 PUSH2 0xC9D JUMP JUMPDEST DUP5 ADD SWAP2 POP POP SWAP3 SWAP2 POP POP JUMP JUMPDEST PUSH1 0x0 PUSH1 0x20 DUP3 ADD SWAP1 POP DUP2 DUP2 SUB PUSH1 0x0 DUP4 ADD MSTORE PUSH2 0xF5B DUP2 DUP5 PUSH2 0xF08 JUMP JUMPDEST SWAP1 POP SWAP3 SWAP2 POP POP JUMP JUMPDEST PUSH1 0x0 PUSH1 0x20 DUP3 DUP5 SUB SLT ISZERO PUSH2 0xF79 JUMPI PUSH2 0xF78 PUSH2 0xBCE JUMP JUMPDEST JUMPDEST PUSH1 0x0 DUP3 ADD CALLDATALOAD PUSH8 0xFFFFFFFFFFFFFFFF DUP2 GT ISZERO PUSH2 0xF97 JUMPI PUSH2 0xF96 PUSH2 0xBD3 JUMP JUMPDEST JUMPDEST PUSH2 0xFA3 DUP5 DUP3 DUP6 ADD PUSH2 0xDAB JUMP JUMPDEST SWAP2 POP POP SWAP3 SWAP2 POP POP JUMP JUMPDEST PUSH1 0x0 PUSH20 0xFFFFFFFFFFFFFFFFFFFFFFFFFFFFFFFFFFFFFFFF DUP3 AND SWAP1 POP SWAP2 SWAP1 POP JUMP JUMPDEST PUSH1 0x0 PUSH2 0xFD7 DUP3 PUSH2 0xFAC JUMP JUMPDEST SWAP1 POP SWAP2 SWAP1 POP JUMP JUMPDEST PUSH2 0xFE7 DUP2 PUSH2 0xFCC JUMP JUMPDEST DUP3 MSTORE POP POP JUMP JUMPDEST PUSH1 0x0 PUSH1 0x20 DUP3 ADD SWAP1 POP PUSH2 0x1002 PUSH1 0x0 DUP4 ADD DUP5 PUSH2 0xFDE JUMP JUMPDEST SWAP3 SWAP2 POP POP JUMP JUMPDEST PUSH1 0x0 DUP1 PUSH1 0x0 PUSH1 0x60 DUP5 DUP7 SUB SLT ISZERO PUSH2 0x1021 JUMPI PUSH2 0x1020 PUSH2 0xBCE JUMP JUMPDEST JUMPDEST PUSH1 0x0 DUP5 ADD CALLDATALOAD PUSH8 0xFFFFFFFFFFFFFFFF DUP2 GT ISZERO PUSH2 0x103F JUMPI PUSH2 0x103E PUSH2 0xBD3 JUMP JUMPDEST JUMPDEST PUSH2 0x104B DUP7 DUP3 DUP8 ADD PUSH2 0xDAB JUMP JUMPDEST SWAP4 POP POP PUSH1 0x20 PUSH2 0x105C DUP7 DUP3 DUP8 ADD PUSH2 0xDFA JUMP JUMPDEST SWAP3 POP POP PUSH1 0x40 PUSH2 0x106D DUP7 DUP3 DUP8 ADD PUSH2 0xDFA JUMP JUMPDEST SWAP2 POP POP SWAP3 POP SWAP3 POP SWAP3 JUMP JUMPDEST PUSH1 0x0 DUP1 PUSH1 0x40 DUP4 DUP6 SUB SLT ISZERO PUSH2 0x108E JUMPI PUSH2 0x108D PUSH2 0xBCE JUMP JUMPDEST JUMPDEST PUSH1 0x0 PUSH2 0x109C DUP6 DUP3 DUP7 ADD PUSH2 0xDFA JUMP JUMPDEST SWAP3 POP POP PUSH1 0x20 DUP4 ADD CALLDATALOAD PUSH8 0xFFFFFFFFFFFFFFFF DUP2 GT ISZERO PUSH2 0x10BD JUMPI PUSH2 0x10BC PUSH2 0xBD3 JUMP JUMPDEST JUMPDEST PUSH2 0x10C9 DUP6 DUP3 DUP7 ADD PUSH2 0xDAB JUMP JUMPDEST SWAP2 POP POP SWAP3 POP SWAP3 SWAP1 POP JUMP JUMPDEST PUSH2 0x10DC DUP2 PUSH2 0xFCC JUMP JUMPDEST DUP2 EQ PUSH2 0x10E7 JUMPI PUSH1 0x0 DUP1 REVERT JUMPDEST POP JUMP JUMPDEST PUSH1 0x0 DUP2 CALLDATALOAD SWAP1 POP PUSH2 0x10F9 DUP2 PUSH2 0x10D3 JUMP JUMPDEST SWAP3 SWAP2 POP POP JUMP JUMPDEST PUSH1 0x0 PUSH1 0x20 DUP3 DUP5 SUB SLT ISZERO PUSH2 0x1115 JUMPI PUSH2 0x1114 PUSH2 0xBCE JUMP JUMPDEST JUMPDEST PUSH1 0x0 PUSH2 0x1123 DUP5 DUP3 DUP6 ADD PUSH2 0x10EA JUMP JUMPDEST SWAP2 POP POP SWAP3 SWAP2 POP POP JUMP JUMPDEST PUSH32 0x4F6E6C792074686520696E7374727563746F72206F7220612054412063616E20 PUSH1 0x0 DUP3 ADD MSTORE PUSH32 0x61646420616E2061737369676E6D656E74000000000000000000000000000000 PUSH1 0x20 DUP3 ADD MSTORE POP JUMP JUMPDEST PUSH1 0x0 PUSH2 0x1188 PUSH1 0x31 DUP4 PUSH2 0xECD JUMP JUMPDEST SWAP2 POP PUSH2 0x1193 DUP3 PUSH2 0x112C JUMP JUMPDEST PUSH1 0x40 DUP3 ADD SWAP1 POP SWAP2 SWAP1 POP JUMP JUMPDEST PUSH1 0x0 PUSH1 0x20 DUP3 ADD SWAP1 POP DUP2 DUP2 SUB PUSH1 0x0 DUP4 ADD MSTORE PUSH2 0x11B7 DUP2 PUSH2 0x117B JUMP JUMPDEST SWAP1 POP SWAP2 SWAP1 POP JUMP JUMPDEST PUSH32 0x4D61782073636F7265206D7573742062652067726561746572207468616E2030 PUSH1 0x0 DUP3 ADD MSTORE POP JUMP JUMPDEST PUSH1 0x0 PUSH2 0x11F4 PUSH1 0x20 DUP4 PUSH2 0xECD JUMP JUMPDEST SWAP2 POP PUSH2 0x11FF DUP3 PUSH2 0x11BE JUMP JUMPDEST PUSH1 0x20 DUP3 ADD SWAP1 POP SWAP2 SWAP1 POP JUMP JUMPDEST PUSH1 0x0 PUSH1 0x20 DUP3 ADD SWAP1 POP DUP2 DUP2 SUB PUSH1 0x0 DUP4 ADD MSTORE PUSH2 0x1223 DUP2 PUSH2 0x11E7 JUMP JUMPDEST SWAP1 POP SWAP2 SWAP1 POP JUMP JUMPDEST PUSH32 0x4E487B7100000000000000000000000000000000000000000000000000000000 PUSH1 0x0 MSTORE PUSH1 0x11 PUSH1 0x4 MSTORE PUSH1 0x24 PUSH1 0x0 REVERT JUMPDEST PUSH1 0x0 PUSH2 0x1264 DUP3 PUSH2 0xDD9 JUMP JUMPDEST SWAP2 POP PUSH32 0xFFFFFFFFFFFFFFFFFFFFFFFFFFFFFFFFFFFFFFFFFFFFFFFFFFFFFFFFFFFFFFFF DUP3 SUB PUSH2 0x1296 JUMPI PUSH2 0x1295 PUSH2 0x122A JUMP JUMPDEST JUMPDEST PUSH1 0x1 DUP3 ADD SWAP1 POP SWAP2 SWAP1 POP JUMP JUMPDEST PUSH32 0x4E487B7100000000000000000000000000000000000000000000000000000000 PUSH1 0x0 MSTORE PUSH1 0x22 PUSH1 0x4 MSTORE PUSH1 0x24 PUSH1 0x0 REVERT JUMPDEST PUSH1 0x0 PUSH1 0x2 DUP3 DIV SWAP1 POP PUSH1 0x1 DUP3 AND DUP1 PUSH2 0x12E8 JUMPI PUSH1 0x7F DUP3 AND SWAP2 POP JUMPDEST PUSH1 0x20 DUP3 LT DUP2 SUB PUSH2 0x12FB JUMPI PUSH2 0x12FA PUSH2 0x12A1 JUMP JUMPDEST JUMPDEST POP SWAP2 SWAP1 POP JUMP JUMPDEST PUSH1 0x0 DUP2 SWAP1 POP DUP2 PUSH1 0x0 MSTORE PUSH1 0x20 PUSH1 0x0 KECCAK256 SWAP1 POP SWAP2 SWAP1 POP JUMP JUMPDEST PUSH1 0x0 PUSH1 0x20 PUSH1 0x1F DUP4 ADD DIV SWAP1 POP SWAP2 SWAP1 POP JUMP JUMPDEST PUSH1 0x0 DUP3 DUP3 SHL SWAP1 POP SWAP3 SWAP2 POP POP JUMP JUMPDEST PUSH1 0x0 PUSH1 0x8 DUP4 MUL PUSH2 0x1363 PUSH32 0xFFFFFFFFFFFFFFFFFFFFFFFFFFFFFFFFFFFFFFFFFFFFFFFFFFFFFFFFFFFFFFFF DUP3 PUSH2 0x1326 JUMP JUMPDEST PUSH2 0x136D DUP7 DUP4 PUSH2 0x1326 JUMP JUMPDEST SWAP6 POP DUP1 NOT DUP5 AND SWAP4 POP DUP1 DUP7 AND DUP5 OR SWAP3 POP POP POP SWAP4 SWAP3 POP POP POP JUMP JUMPDEST PUSH1 0x0 DUP2 SWAP1 POP SWAP2 SWAP1 POP JUMP JUMPDEST PUSH1 0x0 PUSH2 0x13AA PUSH2 0x13A5 PUSH2 0x13A0 DUP5 PUSH2 0xDD9 JUMP JUMPDEST PUSH2 0x1385 JUMP JUMPDEST PUSH2 0xDD9 JUMP JUMPDEST SWAP1 POP SWAP2 SWAP1 POP JUMP JUMPDEST PUSH1 0x0 DUP2 SWAP1 POP SWAP2 SWAP1 POP JUMP JUMPDEST PUSH2 0x13C4 DUP4 PUSH2 0x138F JUMP JUMPDEST PUSH2 0x13D8 PUSH2 0x13D0 DUP3 PUSH2 0x13B1 JUMP JUMPDEST DUP5 DUP5 SLOAD PUSH2 0x1333 JUMP JUMPDEST DUP3 SSTORE POP POP POP POP JUMP JUMPDEST PUSH1 0x0 SWAP1 JUMP JUMPDEST PUSH2 0x13ED PUSH2 0x13E0 JUMP JUMPDEST PUSH2 0x13F8 DUP2 DUP5 DUP5 PUSH2 0x13BB JUMP JUMPDEST POP POP POP JUMP JUMPDEST JUMPDEST DUP2 DUP2 LT ISZERO PUSH2 0x141C JUMPI PUSH2 0x1411 PUSH1 0x0 DUP3 PUSH2 0x13E5 JUMP JUMPDEST PUSH1 0x1 DUP2 ADD SWAP1 POP PUSH2 0x13FE JUMP JUMPDEST POP POP JUMP JUMPDEST PUSH1 0x1F DUP3 GT ISZERO PUSH2 0x1461 JUMPI PUSH2 0x1432 DUP2 PUSH2 0x1301 JUMP JUMPDEST PUSH2 0x143B DUP5 PUSH2 0x1316 JUMP JUMPDEST DUP2 ADD PUSH1 0x20 DUP6 LT ISZERO PUSH2 0x144A JUMPI DUP2 SWAP1 POP JUMPDEST PUSH2 0x145E PUSH2 0x1456 DUP6 PUSH2 0x1316 JUMP JUMPDEST DUP4 ADD DUP3 PUSH2 0x13FD JUMP JUMPDEST POP POP JUMPDEST POP POP POP JUMP JUMPDEST PUSH1 0x0 DUP3 DUP3 SHR SWAP1 POP SWAP3 SWAP2 POP POP JUMP JUMPDEST PUSH1 0x0 PUSH2 0x1484 PUSH1 0x0 NOT DUP5 PUSH1 0x8 MUL PUSH2 0x1466 JUMP JUMPDEST NOT DUP1 DUP4 AND SWAP2 POP POP SWAP3 SWAP2 POP POP JUMP JUMPDEST PUSH1 0x0 PUSH2 0x149D DUP4 DUP4 PUSH2 0x1473 JUMP JUMPDEST SWAP2 POP DUP3 PUSH1 0x2 MUL DUP3 OR SWAP1 POP SWAP3 SWAP2 POP POP JUMP JUMPDEST PUSH2 0x14B6 DUP3 PUSH2 0xEC2 JUMP JUMPDEST PUSH8 0xFFFFFFFFFFFFFFFF DUP2 GT ISZERO PUSH2 0x14CF JUMPI PUSH2 0x14CE PUSH2 0xCAE JUMP JUMPDEST JUMPDEST PUSH2 0x14D9 DUP3 SLOAD PUSH2 0x12D0 JUMP JUMPDEST PUSH2 0x14E4 DUP3 DUP3 DUP6 PUSH2 0x1420 JUMP JUMPDEST PUSH1 0x0 PUSH1 0x20 SWAP1 POP PUSH1 0x1F DUP4 GT PUSH1 0x1 DUP2 EQ PUSH2 0x1517 JUMPI PUSH1 0x0 DUP5 ISZERO PUSH2 0x1505 JUMPI DUP3 DUP8 ADD MLOAD SWAP1 POP JUMPDEST PUSH2 0x150F DUP6 DUP3 PUSH2 0x1491 JUMP JUMPDEST DUP7 SSTORE POP PUSH2 0x1577 JUMP JUMPDEST PUSH1 0x1F NOT DUP5 AND PUSH2 0x1525 DUP7 PUSH2 0x1301 JUMP JUMPDEST PUSH1 0x0 JUMPDEST DUP3 DUP2 LT ISZERO PUSH2 0x154D JUMPI DUP5 DUP10 ADD MLOAD DUP3 SSTORE PUSH1 0x1 DUP3 ADD SWAP2 POP PUSH1 0x20 DUP6 ADD SWAP5 POP PUSH1 0x20 DUP2 ADD SWAP1 POP PUSH2 0x1528 JUMP JUMPDEST DUP7 DUP4 LT ISZERO PUSH2 0x156A JUMPI DUP5 DUP10 ADD MLOAD PUSH2 0x1566 PUSH1 0x1F DUP10 AND DUP3 PUSH2 0x1473 JUMP JUMPDEST DUP4 SSTORE POP JUMPDEST PUSH1 0x1 PUSH1 0x2 DUP9 MUL ADD DUP9 SSTORE POP POP POP JUMPDEST POP POP POP POP POP POP JUMP JUMPDEST PUSH32 0x4F6E6C792074686520696E7374727563746F72206F7220612054412063616E20 PUSH1 0x0 DUP3 ADD MSTORE PUSH32 0x6765742074686520617665726167650000000000000000000000000000000000 PUSH1 0x20 DUP3 ADD MSTORE POP JUMP JUMPDEST PUSH1 0x0 PUSH2 0x15DB PUSH1 0x2F DUP4 PUSH2 0xECD JUMP JUMPDEST SWAP2 POP PUSH2 0x15E6 DUP3 PUSH2 0x157F JUMP JUMPDEST PUSH1 0x40 DUP3 ADD SWAP1 POP SWAP2 SWAP1 POP JUMP JUMPDEST PUSH1 0x0 PUSH1 0x20 DUP3 ADD SWAP1 POP DUP2 DUP2 SUB PUSH1 0x0 DUP4 ADD MSTORE PUSH2 0x160A DUP2 PUSH2 0x15CE JUMP JUMPDEST SWAP1 POP SWAP2 SWAP1 POP JUMP JUMPDEST PUSH1 0x0 DUP2 SWAP1 POP SWAP3 SWAP2 POP POP JUMP JUMPDEST PUSH1 0x0 PUSH2 0x1627 DUP3 PUSH2 0xEC2 JUMP JUMPDEST PUSH2 0x1631 DUP2 DUP6 PUSH2 0x1611 JUMP JUMPDEST SWAP4 POP PUSH2 0x1641 DUP2 DUP6 PUSH1 0x20 DUP7 ADD PUSH2 0xEDE JUMP JUMPDEST DUP1 DUP5 ADD SWAP2 POP POP SWAP3 SWAP2 POP POP JUMP JUMPDEST PUSH1 0x0 PUSH2 0x1659 DUP3 DUP5 PUSH2 0x161C JUMP JUMPDEST SWAP2 POP DUP2 SWAP1 POP SWAP3 SWAP2 POP POP JUMP JUMPDEST PUSH1 0x0 PUSH2 0x166F DUP3 PUSH2 0xDD9 JUMP JUMPDEST SWAP2 POP PUSH2 0x167A DUP4 PUSH2 0xDD9 JUMP JUMPDEST SWAP3 POP DUP3 DUP3 ADD SWAP1 POP DUP1 DUP3 GT ISZERO PUSH2 0x1692 JUMPI PUSH2 0x1691 PUSH2 0x122A JUMP JUMPDEST JUMPDEST SWAP3 SWAP2 POP POP JUMP JUMPDEST PUSH1 0x0 PUSH2 0x16A3 DUP3 PUSH2 0xDD9 JUMP JUMPDEST SWAP2 POP PUSH2 0x16AE DUP4 PUSH2 0xDD9 JUMP JUMPDEST SWAP3 POP DUP3 DUP3 MUL PUSH2 0x16BC DUP2 PUSH2 0xDD9 JUMP JUMPDEST SWAP2 POP DUP3 DUP3 DIV DUP5 EQ DUP4 ISZERO OR PUSH2 0x16D3 JUMPI PUSH2 0x16D2 PUSH2 0x122A JUMP JUMPDEST JUMPDEST POP SWAP3 SWAP2 POP POP JUMP JUMPDEST PUSH32 0x4E487B7100000000000000000000000000000000000000000000000000000000 PUSH1 0x0 MSTORE PUSH1 0x12 PUSH1 0x4 MSTORE PUSH1 0x24 PUSH1 0x0 REVERT JUMPDEST PUSH1 0x0 PUSH2 0x1714 DUP3 PUSH2 0xDD9 JUMP JUMPDEST SWAP2 POP PUSH2 0x171F DUP4 PUSH2 0xDD9 JUMP JUMPDEST SWAP3 POP DUP3 PUSH2 0x172F JUMPI PUSH2 0x172E PUSH2 0x16DA JUMP JUMPDEST JUMPDEST DUP3 DUP3 DIV SWAP1 POP SWAP3 SWAP2 POP POP JUMP JUMPDEST PUSH32 0x4F6E6C792074686520696E7374727563746F72206F7220612054412063616E20 PUSH1 0x0 DUP3 ADD MSTORE PUSH32 0x6164642061206772616465000000000000000000000000000000000000000000 PUSH1 0x20 DUP3 ADD MSTORE POP JUMP JUMPDEST PUSH1 0x0 PUSH2 0x1796 PUSH1 0x2B DUP4 PUSH2 0xECD JUMP JUMPDEST SWAP2 POP PUSH2 0x17A1 DUP3 PUSH2 0x173A JUMP JUMPDEST PUSH1 0x40 DUP3 ADD SWAP1 POP SWAP2 SWAP1 POP JUMP JUMPDEST PUSH1 0x0 PUSH1 0x20 DUP3 ADD SWAP1 POP DUP2 DUP2 SUB PUSH1 0x0 DUP4 ADD MSTORE PUSH2 0x17C5 DUP2 PUSH2 0x1789 JUMP JUMPDEST SWAP1 POP SWAP2 SWAP1 POP JUMP JUMPDEST PUSH32 0x41737369676E6D656E7420646F6573206E6F7420657869737400000000000000 PUSH1 0x0 DUP3 ADD MSTORE POP JUMP JUMPDEST PUSH1 0x0 PUSH2 0x1802 PUSH1 0x19 DUP4 PUSH2 0xECD JUMP JUMPDEST SWAP2 POP PUSH2 0x180D DUP3 PUSH2 0x17CC JUMP JUMPDEST PUSH1 0x20 DUP3 ADD SWAP1 POP SWAP2 SWAP1 POP JUMP JUMPDEST PUSH1 0x0 PUSH1 0x20 DUP3 ADD SWAP1 POP DUP2 DUP2 SUB PUSH1 0x0 DUP4 ADD MSTORE PUSH2 0x1831 DUP2 PUSH2 0x17F5 JUMP JUMPDEST SWAP1 POP SWAP2 SWAP1 POP JUMP JUMPDEST PUSH32 0x53636F72652063616E6E6F742062652067726561746572207468616E206D6178 PUSH1 0x0 DUP3 ADD MSTORE PUSH32 0x2073636F72650000000000000000000000000000000000000000000000000000 PUSH1 0x20 DUP3 ADD MSTORE POP JUMP JUMPDEST PUSH1 0x0 PUSH2 0x1894 PUSH1 0x26 DUP4 PUSH2 0xECD JUMP JUMPDEST SWAP2 POP PUSH2 0x189F DUP3 PUSH2 0x1838 JUMP JUMPDEST PUSH1 0x40 DUP3 ADD SWAP1 POP SWAP2 SWAP1 POP JUMP JUMPDEST PUSH1 0x0 PUSH1 0x20 DUP3 ADD SWAP1 POP DUP2 DUP2 SUB PUSH1 0x0 DUP4 ADD MSTORE PUSH2 0x18C3 DUP2 PUSH2 0x1887 JUMP JUMPDEST SWAP1 POP SWAP2 SWAP1 POP JUMP JUMPDEST PUSH32 0x54686520696E7374727563746F722063616E6E6F742072657175657374205441 PUSH1 0x0 DUP3 ADD MSTORE PUSH32 0x2061636365737300000000000000000000000000000000000000000000000000 PUSH1 0x20 DUP3 ADD MSTORE POP JUMP JUMPDEST PUSH1 0x0 PUSH2 0x1926 PUSH1 0x27 DUP4 PUSH2 0xECD JUMP JUMPDEST SWAP2 POP PUSH2 0x1931 DUP3 PUSH2 0x18CA JUMP JUMPDEST PUSH1 0x40 DUP3 ADD SWAP1 POP SWAP2 SWAP1 POP JUMP JUMPDEST PUSH1 0x0 PUSH1 0x20 DUP3 ADD SWAP1 POP DUP2 DUP2 SUB PUSH1 0x0 DUP4 ADD MSTORE PUSH2 0x1955 DUP2 PUSH2 0x1919 JUMP JUMPDEST SWAP1 POP SWAP2 SWAP1 POP JUMP JUMPDEST PUSH32 0x4F6E6C792074686520696E7374727563746F72206F7220612054412063616E20 PUSH1 0x0 DUP3 ADD MSTORE PUSH32 0x64657369676E6174652061205441000000000000000000000000000000000000 PUSH1 0x20 DUP3 ADD MSTORE POP JUMP JUMPDEST PUSH1 0x0 PUSH2 0x19B8 PUSH1 0x2E DUP4 PUSH2 0xECD JUMP JUMPDEST SWAP2 POP PUSH2 0x19C3 DUP3 PUSH2 0x195C JUMP JUMPDEST PUSH1 0x40 DUP3 ADD SWAP1 POP SWAP2 SWAP1 POP JUMP JUMPDEST PUSH1 0x0 PUSH1 0x20 DUP3 ADD SWAP1 POP DUP2 DUP2 SUB PUSH1 0x0 DUP4 ADD MSTORE PUSH2 0x19E7 DUP2 PUSH2 0x19AB JUMP JUMPDEST SWAP1 POP SWAP2 SWAP1 POP JUMP INVALID LOG2 PUSH5 0x6970667358 0x22 SLT KECCAK256 DUP1 0xE5 DUP2 0xBE DUP13 DUP6 0x2D GAS 0x2B 0xFB 0xF7 PUSH12 0x8CA80FC940FE0953BCA1F70E PUSH27 0x7A7CAA2B1D485064736F6C63430008110033000000000000000000 "
				},
				"gasEstimates": {
					"creation": {
						"codeDepositCost": "1338400",
						"executionCost": "25663",
						"totalCost": "1364063"
					},
					"external": {
						"addAssignment(string,uint256)": "infinite",
						"addGrade(string,uint256,uint256)": "infinite",
						"assignment_names(uint256)": "infinite",
						"designateTA(address)": "29291",
						"getAverage(string)": "infinite",
						"instructor()": "2603",
						"max_scores(uint256)": "infinite",
						"num_assignments()": "2517",
						"requestTAAccess()": "26692",
						"scores(uint256,string)": "infinite",
						"supportsInterface(bytes4)": "682",
						"tas(address)": "2911"
					}
				},
				"methodIdentifiers": {
					"addAssignment(string,uint256)": "077f3b02",
					"addGrade(string,uint256,uint256)": "7241d75f",
					"assignment_names(uint256)": "53acf883",
					"designateTA(address)": "9cfeb679",
					"getAverage(string)": "65dd2f69",
					"instructor()": "71ae413d",
					"max_scores(uint256)": "dfd68b91",
					"num_assignments()": "c7a9f77b",
					"requestTAAccess()": "7fc29673",
					"scores(uint256,string)": "77ca2947",
					"supportsInterface(bytes4)": "01ffc9a7",
					"tas(address)": "a30254e7"
				}
			},
			"storageLayout": {
				"storage": [
					{
						"astId": 9,
						"contract": "contracts/Gradebook.sol:Gradebook",
						"label": "tas",
						"offset": 0,
						"slot": "0",
						"type": "t_mapping(t_address,t_bool)"
					},
					{
						"astId": 14,
						"contract": "contracts/Gradebook.sol:Gradebook",
						"label": "assignment_names",
						"offset": 0,
						"slot": "1",
						"type": "t_mapping(t_uint256,t_string_storage)"
					},
					{
						"astId": 19,
						"contract": "contracts/Gradebook.sol:Gradebook",
						"label": "max_scores",
						"offset": 0,
						"slot": "2",
						"type": "t_mapping(t_uint256,t_uint256)"
					},
					{
						"astId": 26,
						"contract": "contracts/Gradebook.sol:Gradebook",
						"label": "scores",
						"offset": 0,
						"slot": "3",
						"type": "t_mapping(t_uint256,t_mapping(t_string_memory_ptr,t_uint256))"
					},
					{
						"astId": 29,
						"contract": "contracts/Gradebook.sol:Gradebook",
						"label": "instructor",
						"offset": 0,
						"slot": "4",
						"type": "t_address"
					},
					{
						"astId": 32,
						"contract": "contracts/Gradebook.sol:Gradebook",
						"label": "num_assignments",
						"offset": 0,
						"slot": "5",
						"type": "t_uint256"
					}
				],
				"types": {
					"t_address": {
						"encoding": "inplace",
						"label": "address",
						"numberOfBytes": "20"
					},
					"t_bool": {
						"encoding": "inplace",
						"label": "bool",
						"numberOfBytes": "1"
					},
					"t_mapping(t_address,t_bool)": {
						"encoding": "mapping",
						"key": "t_address",
						"label": "mapping(address => bool)",
						"numberOfBytes": "32",
						"value": "t_bool"
					},
					"t_mapping(t_string_memory_ptr,t_uint256)": {
						"encoding": "mapping",
						"key": "t_string_memory_ptr",
						"label": "mapping(string => uint256)",
						"numberOfBytes": "32",
						"value": "t_uint256"
					},
					"t_mapping(t_uint256,t_mapping(t_string_memory_ptr,t_uint256))": {
						"encoding": "mapping",
						"key": "t_uint256",
						"label": "mapping(uint256 => mapping(string => uint256))",
						"numberOfBytes": "32",
						"value": "t_mapping(t_string_memory_ptr,t_uint256)"
					},
					"t_mapping(t_uint256,t_string_storage)": {
						"encoding": "mapping",
						"key": "t_uint256",
						"label": "mapping(uint256 => string)",
						"numberOfBytes": "32",
						"value": "t_string_storage"
					},
					"t_mapping(t_uint256,t_uint256)": {
						"encoding": "mapping",
						"key": "t_uint256",
						"label": "mapping(uint256 => uint256)",
						"numberOfBytes": "32",
						"value": "t_uint256"
					},
					"t_string_memory_ptr": {
						"encoding": "bytes",
						"label": "string",
						"numberOfBytes": "32"
					},
					"t_string_storage": {
						"encoding": "bytes",
						"label": "string",
						"numberOfBytes": "32"
					},
					"t_uint256": {
						"encoding": "inplace",
						"label": "uint256",
						"numberOfBytes": "32"
					}
				}
			},
			"userdoc": {
				"kind": "user",
				"methods": {},
				"version": 1
			}
		}
	}
}